{
  "_format": "hh-sol-artifact-1",
  "contractName": "ProjectEscrow",
  "sourceName": "contracts/ProjectEscrow.sol",
  "abi": [
    {
      "inputs": [],
      "stateMutability": "nonpayable",
      "type": "constructor"
    },
    {
      "inputs": [],
      "name": "AccessControlBadConfirmation",
      "type": "error"
    },
    {
      "inputs": [
        {
          "internalType": "address",
          "name": "account",
          "type": "address"
        },
        {
          "internalType": "bytes32",
          "name": "neededRole",
          "type": "bytes32"
        }
      ],
      "name": "AccessControlUnauthorizedAccount",
      "type": "error"
    },
    {
      "inputs": [
        {
          "internalType": "address",
          "name": "target",
          "type": "address"
        }
      ],
      "name": "AddressEmptyCode",
      "type": "error"
    },
    {
      "inputs": [
        {
          "internalType": "address",
          "name": "implementation",
          "type": "address"
        }
      ],
      "name": "ERC1967InvalidImplementation",
      "type": "error"
    },
    {
      "inputs": [],
      "name": "ERC1967NonPayable",
      "type": "error"
    },
    {
      "inputs": [],
      "name": "EnforcedPause",
      "type": "error"
    },
    {
      "inputs": [],
      "name": "ExpectedPause",
      "type": "error"
    },
    {
      "inputs": [],
      "name": "FailedCall",
      "type": "error"
    },
    {
      "inputs": [],
      "name": "InvalidInitialization",
      "type": "error"
    },
    {
      "inputs": [],
      "name": "NotInitializing",
      "type": "error"
    },
    {
      "inputs": [],
      "name": "ReentrancyGuardReentrantCall",
      "type": "error"
    },
    {
      "inputs": [
        {
          "internalType": "address",
          "name": "token",
          "type": "address"
        }
      ],
      "name": "SafeERC20FailedOperation",
      "type": "error"
    },
    {
      "inputs": [],
      "name": "UUPSUnauthorizedCallContext",
      "type": "error"
    },
    {
      "inputs": [
        {
          "internalType": "bytes32",
          "name": "slot",
          "type": "bytes32"
        }
      ],
      "name": "UUPSUnsupportedProxiableUUID",
      "type": "error"
    },
    {
      "anonymous": false,
      "inputs": [
        {
          "indexed": false,
          "internalType": "uint64",
          "name": "version",
          "type": "uint64"
        }
      ],
      "name": "Initialized",
      "type": "event"
    },
    {
      "anonymous": false,
      "inputs": [
        {
          "indexed": false,
          "internalType": "address",
          "name": "account",
          "type": "address"
        }
      ],
      "name": "Paused",
      "type": "event"
    },
    {
      "anonymous": false,
      "inputs": [
        {
          "indexed": true,
          "internalType": "uint256",
          "name": "taskId",
          "type": "uint256"
        },
        {
          "indexed": true,
          "internalType": "address",
          "name": "approver",
          "type": "address"
        }
      ],
      "name": "PaymentApproved",
      "type": "event"
    },
    {
      "anonymous": false,
      "inputs": [
        {
          "indexed": true,
          "internalType": "uint256",
          "name": "taskId",
          "type": "uint256"
        },
        {
          "indexed": true,
          "internalType": "address",
          "name": "worker",
          "type": "address"
        },
        {
          "indexed": false,
          "internalType": "uint256",
          "name": "amount",
          "type": "uint256"
        }
      ],
      "name": "PaymentReleased",
      "type": "event"
    },
    {
      "anonymous": false,
      "inputs": [
        {
          "indexed": true,
          "internalType": "uint256",
          "name": "projectId",
          "type": "uint256"
        },
        {
          "indexed": true,
          "internalType": "address",
          "name": "employer",
          "type": "address"
        }
      ],
      "name": "ProjectCancelled",
      "type": "event"
    },
    {
      "anonymous": false,
      "inputs": [
        {
          "indexed": true,
          "internalType": "uint256",
          "name": "projectId",
          "type": "uint256"
        },
        {
          "indexed": true,
          "internalType": "address",
          "name": "employer",
          "type": "address"
        },
        {
          "indexed": false,
          "internalType": "uint256",
          "name": "amount",
          "type": "uint256"
        }
      ],
      "name": "ProjectFunded",
      "type": "event"
    },
    {
      "anonymous": false,
      "inputs": [
        {
          "indexed": true,
          "internalType": "uint256",
          "name": "projectId",
          "type": "uint256"
        },
        {
          "indexed": true,
          "internalType": "address",
          "name": "employer",
          "type": "address"
        },
        {
          "indexed": false,
          "internalType": "uint256",
          "name": "amount",
          "type": "uint256"
        }
      ],
      "name": "RefundProcessed",
      "type": "event"
    },
    {
      "anonymous": false,
      "inputs": [
        {
          "indexed": true,
          "internalType": "uint256",
          "name": "projectId",
          "type": "uint256"
        },
        {
          "indexed": true,
          "internalType": "address",
          "name": "employer",
          "type": "address"
        },
        {
          "indexed": false,
          "internalType": "uint256",
          "name": "requestedAt",
          "type": "uint256"
        }
      ],
      "name": "RefundRequested",
      "type": "event"
    },
    {
      "anonymous": false,
      "inputs": [
        {
          "indexed": true,
          "internalType": "bytes32",
          "name": "role",
          "type": "bytes32"
        },
        {
          "indexed": true,
          "internalType": "bytes32",
          "name": "previousAdminRole",
          "type": "bytes32"
        },
        {
          "indexed": true,
          "internalType": "bytes32",
          "name": "newAdminRole",
          "type": "bytes32"
        }
      ],
      "name": "RoleAdminChanged",
      "type": "event"
    },
    {
      "anonymous": false,
      "inputs": [
        {
          "indexed": true,
          "internalType": "bytes32",
          "name": "role",
          "type": "bytes32"
        },
        {
          "indexed": true,
          "internalType": "address",
          "name": "account",
          "type": "address"
        },
        {
          "indexed": true,
          "internalType": "address",
          "name": "sender",
          "type": "address"
        }
      ],
      "name": "RoleGranted",
      "type": "event"
    },
    {
      "anonymous": false,
      "inputs": [
        {
          "indexed": true,
          "internalType": "bytes32",
          "name": "role",
          "type": "bytes32"
        },
        {
          "indexed": true,
          "internalType": "address",
          "name": "account",
          "type": "address"
        },
        {
          "indexed": true,
          "internalType": "address",
          "name": "sender",
          "type": "address"
        }
      ],
      "name": "RoleRevoked",
      "type": "event"
    },
    {
      "anonymous": false,
      "inputs": [
        {
          "indexed": true,
          "internalType": "uint256",
          "name": "taskId",
          "type": "uint256"
        },
        {
          "indexed": true,
          "internalType": "uint256",
          "name": "projectId",
          "type": "uint256"
        },
        {
          "indexed": true,
          "internalType": "address",
          "name": "worker",
          "type": "address"
        },
        {
          "indexed": false,
          "internalType": "uint256",
          "name": "amount",
          "type": "uint256"
        }
      ],
      "name": "TaskAllocated",
      "type": "event"
    },
    {
      "anonymous": false,
      "inputs": [
        {
          "indexed": true,
          "internalType": "uint256",
          "name": "taskId",
          "type": "uint256"
        },
        {
          "indexed": true,
          "internalType": "address",
          "name": "worker",
          "type": "address"
        }
      ],
      "name": "TaskCompleted",
      "type": "event"
    },
    {
      "anonymous": false,
      "inputs": [
        {
          "indexed": false,
          "internalType": "address",
          "name": "account",
          "type": "address"
        }
      ],
      "name": "Unpaused",
      "type": "event"
    },
    {
      "anonymous": false,
      "inputs": [
        {
          "indexed": true,
          "internalType": "address",
          "name": "implementation",
          "type": "address"
        }
      ],
      "name": "Upgraded",
      "type": "event"
    },
    {
      "inputs": [],
      "name": "APPROVAL_THRESHOLD",
      "outputs": [
        {
          "internalType": "uint256",
          "name": "",
          "type": "uint256"
        }
      ],
      "stateMutability": "view",
      "type": "function"
    },
    {
      "inputs": [],
      "name": "APPROVER_ROLE",
      "outputs": [
        {
          "internalType": "bytes32",
          "name": "",
          "type": "bytes32"
        }
      ],
      "stateMutability": "view",
      "type": "function"
    },
    {
      "inputs": [],
      "name": "DEFAULT_ADMIN_ROLE",
      "outputs": [
        {
          "internalType": "bytes32",
          "name": "",
          "type": "bytes32"
        }
      ],
      "stateMutability": "view",
      "type": "function"
    },
    {
      "inputs": [],
      "name": "MANAGER_ROLE",
      "outputs": [
        {
          "internalType": "bytes32",
          "name": "",
          "type": "bytes32"
        }
      ],
      "stateMutability": "view",
      "type": "function"
    },
    {
      "inputs": [],
      "name": "REFUND_TIMELOCK",
      "outputs": [
        {
          "internalType": "uint256",
          "name": "",
          "type": "uint256"
        }
      ],
      "stateMutability": "view",
      "type": "function"
    },
    {
      "inputs": [],
      "name": "REQUIRED_APPROVALS",
      "outputs": [
        {
          "internalType": "uint256",
          "name": "",
          "type": "uint256"
        }
      ],
      "stateMutability": "view",
      "type": "function"
    },
    {
      "inputs": [],
      "name": "UPGRADER_ROLE",
      "outputs": [
        {
          "internalType": "bytes32",
          "name": "",
          "type": "bytes32"
        }
      ],
      "stateMutability": "view",
      "type": "function"
    },
    {
      "inputs": [],
      "name": "UPGRADE_INTERFACE_VERSION",
      "outputs": [
        {
          "internalType": "string",
          "name": "",
          "type": "string"
        }
      ],
      "stateMutability": "view",
      "type": "function"
    },
    {
      "inputs": [
        {
          "internalType": "uint256",
          "name": "projectId",
          "type": "uint256"
        },
        {
          "internalType": "address",
          "name": "worker",
          "type": "address"
        },
        {
          "internalType": "uint256",
          "name": "amount",
          "type": "uint256"
        }
      ],
      "name": "allocateTask",
      "outputs": [
        {
          "internalType": "uint256",
          "name": "taskId",
          "type": "uint256"
        }
      ],
      "stateMutability": "nonpayable",
      "type": "function"
    },
    {
      "inputs": [
        {
          "internalType": "uint256",
          "name": "taskId",
          "type": "uint256"
        }
      ],
      "name": "approvePayment",
      "outputs": [],
      "stateMutability": "nonpayable",
      "type": "function"
    },
    {
      "inputs": [
        {
          "internalType": "uint256",
          "name": "projectId",
          "type": "uint256"
        }
      ],
      "name": "cancelProject",
      "outputs": [],
      "stateMutability": "nonpayable",
      "type": "function"
    },
    {
      "inputs": [
        {
          "internalType": "uint256",
          "name": "taskId",
          "type": "uint256"
        }
      ],
      "name": "completeTask",
      "outputs": [],
      "stateMutability": "nonpayable",
      "type": "function"
    },
    {
      "inputs": [],
      "name": "finToken",
      "outputs": [
        {
          "internalType": "contract IERC20",
          "name": "",
          "type": "address"
        }
      ],
      "stateMutability": "view",
      "type": "function"
    },
    {
      "inputs": [
        {
          "internalType": "uint256",
          "name": "amount",
          "type": "uint256"
        }
      ],
      "name": "fundProject",
      "outputs": [
        {
          "internalType": "uint256",
          "name": "projectId",
          "type": "uint256"
        }
      ],
      "stateMutability": "nonpayable",
      "type": "function"
    },
    {
      "inputs": [
        {
          "internalType": "uint256",
          "name": "projectId",
          "type": "uint256"
        }
      ],
      "name": "getProject",
      "outputs": [
        {
          "internalType": "address",
          "name": "employer",
          "type": "address"
        },
        {
          "internalType": "uint256",
          "name": "totalFunded",
          "type": "uint256"
        },
        {
          "internalType": "uint256",
          "name": "totalAllocated",
          "type": "uint256"
        },
        {
          "internalType": "uint256",
          "name": "totalReleased",
          "type": "uint256"
        },
        {
          "internalType": "enum ProjectEscrow.ProjectStatus",
          "name": "status",
          "type": "uint8"
        },
        {
          "internalType": "uint256",
          "name": "createdAt",
          "type": "uint256"
        },
        {
          "internalType": "uint256",
          "name": "refundRequestedAt",
          "type": "uint256"
        }
      ],
      "stateMutability": "view",
      "type": "function"
    },
    {
      "inputs": [
        {
          "internalType": "bytes32",
          "name": "role",
          "type": "bytes32"
        }
      ],
      "name": "getRoleAdmin",
      "outputs": [
        {
          "internalType": "bytes32",
          "name": "",
          "type": "bytes32"
        }
      ],
      "stateMutability": "view",
      "type": "function"
    },
    {
      "inputs": [
        {
          "internalType": "uint256",
          "name": "taskId",
          "type": "uint256"
        }
      ],
      "name": "getTask",
      "outputs": [
        {
          "internalType": "uint256",
          "name": "projectId",
          "type": "uint256"
        },
        {
          "internalType": "address",
          "name": "worker",
          "type": "address"
        },
        {
          "internalType": "uint256",
          "name": "amount",
          "type": "uint256"
        },
        {
          "internalType": "enum ProjectEscrow.TaskStatus",
          "name": "status",
          "type": "uint8"
        },
        {
          "internalType": "uint256",
          "name": "createdAt",
          "type": "uint256"
        },
        {
          "internalType": "uint256",
          "name": "completedAt",
          "type": "uint256"
        },
        {
          "internalType": "uint256",
          "name": "approvalCount",
          "type": "uint256"
        }
      ],
      "stateMutability": "view",
      "type": "function"
    },
    {
      "inputs": [
        {
          "internalType": "bytes32",
          "name": "role",
          "type": "bytes32"
        },
        {
          "internalType": "address",
          "name": "account",
          "type": "address"
        }
      ],
      "name": "grantRole",
      "outputs": [],
      "stateMutability": "nonpayable",
      "type": "function"
    },
    {
      "inputs": [
        {
          "internalType": "bytes32",
          "name": "role",
          "type": "bytes32"
        },
        {
          "internalType": "address",
          "name": "account",
          "type": "address"
        }
      ],
      "name": "hasRole",
      "outputs": [
        {
          "internalType": "bool",
          "name": "",
          "type": "bool"
        }
      ],
      "stateMutability": "view",
      "type": "function"
    },
    {
      "inputs": [
        {
          "internalType": "address",
          "name": "_finToken",
          "type": "address"
        },
        {
          "internalType": "address",
          "name": "admin",
          "type": "address"
        }
      ],
      "name": "initialize",
      "outputs": [],
      "stateMutability": "nonpayable",
      "type": "function"
    },
    {
      "inputs": [],
      "name": "pause",
      "outputs": [],
      "stateMutability": "nonpayable",
      "type": "function"
    },
    {
      "inputs": [],
      "name": "paused",
      "outputs": [
        {
          "internalType": "bool",
          "name": "",
          "type": "bool"
        }
      ],
      "stateMutability": "view",
      "type": "function"
    },
    {
      "inputs": [
        {
          "internalType": "uint256",
          "name": "projectId",
          "type": "uint256"
        }
      ],
      "name": "processRefund",
      "outputs": [],
      "stateMutability": "nonpayable",
      "type": "function"
    },
    {
      "inputs": [],
      "name": "projectCounter",
      "outputs": [
        {
          "internalType": "uint256",
          "name": "",
          "type": "uint256"
        }
      ],
      "stateMutability": "view",
      "type": "function"
    },
    {
      "inputs": [
        {
          "internalType": "uint256",
          "name": "",
          "type": "uint256"
        }
      ],
      "name": "projects",
      "outputs": [
        {
          "internalType": "address",
          "name": "employer",
          "type": "address"
        },
        {
          "internalType": "uint256",
          "name": "totalFunded",
          "type": "uint256"
        },
        {
          "internalType": "uint256",
          "name": "totalAllocated",
          "type": "uint256"
        },
        {
          "internalType": "uint256",
          "name": "totalReleased",
          "type": "uint256"
        },
        {
          "internalType": "enum ProjectEscrow.ProjectStatus",
          "name": "status",
          "type": "uint8"
        },
        {
          "internalType": "uint256",
          "name": "createdAt",
          "type": "uint256"
        },
        {
          "internalType": "uint256",
          "name": "refundRequestedAt",
          "type": "uint256"
        }
      ],
      "stateMutability": "view",
      "type": "function"
    },
    {
      "inputs": [],
      "name": "proxiableUUID",
      "outputs": [
        {
          "internalType": "bytes32",
          "name": "",
          "type": "bytes32"
        }
      ],
      "stateMutability": "view",
      "type": "function"
    },
    {
      "inputs": [
        {
          "internalType": "bytes32",
          "name": "role",
          "type": "bytes32"
        },
        {
          "internalType": "address",
          "name": "callerConfirmation",
          "type": "address"
        }
      ],
      "name": "renounceRole",
      "outputs": [],
      "stateMutability": "nonpayable",
      "type": "function"
    },
    {
      "inputs": [
        {
          "internalType": "uint256",
          "name": "projectId",
          "type": "uint256"
        }
      ],
      "name": "requestRefund",
      "outputs": [],
      "stateMutability": "nonpayable",
      "type": "function"
    },
    {
      "inputs": [
        {
          "internalType": "bytes32",
          "name": "role",
          "type": "bytes32"
        },
        {
          "internalType": "address",
          "name": "account",
          "type": "address"
        }
      ],
      "name": "revokeRole",
      "outputs": [],
      "stateMutability": "nonpayable",
      "type": "function"
    },
    {
      "inputs": [
        {
          "internalType": "bytes4",
          "name": "interfaceId",
          "type": "bytes4"
        }
      ],
      "name": "supportsInterface",
      "outputs": [
        {
          "internalType": "bool",
          "name": "",
          "type": "bool"
        }
      ],
      "stateMutability": "view",
      "type": "function"
    },
    {
      "inputs": [],
      "name": "taskCounter",
      "outputs": [
        {
          "internalType": "uint256",
          "name": "",
          "type": "uint256"
        }
      ],
      "stateMutability": "view",
      "type": "function"
    },
    {
      "inputs": [
        {
          "internalType": "uint256",
          "name": "",
          "type": "uint256"
        }
      ],
      "name": "tasks",
      "outputs": [
        {
          "internalType": "uint256",
          "name": "projectId",
          "type": "uint256"
        },
        {
          "internalType": "address",
          "name": "worker",
          "type": "address"
        },
        {
          "internalType": "uint256",
          "name": "amount",
          "type": "uint256"
        },
        {
          "internalType": "enum ProjectEscrow.TaskStatus",
          "name": "status",
          "type": "uint8"
        },
        {
          "internalType": "uint256",
          "name": "createdAt",
          "type": "uint256"
        },
        {
          "internalType": "uint256",
          "name": "completedAt",
          "type": "uint256"
        },
        {
          "internalType": "uint256",
          "name": "approvalCount",
          "type": "uint256"
        }
      ],
      "stateMutability": "view",
      "type": "function"
    },
    {
      "inputs": [],
      "name": "unpause",
      "outputs": [],
      "stateMutability": "nonpayable",
      "type": "function"
    },
    {
      "inputs": [
        {
          "internalType": "address",
          "name": "newImplementation",
          "type": "address"
        },
        {
          "internalType": "bytes",
          "name": "data",
          "type": "bytes"
        }
      ],
      "name": "upgradeToAndCall",
      "outputs": [],
      "stateMutability": "payable",
      "type": "function"
    }
  ],
  "bytecode": "0x60a080604052346100cc57306080527ff0c57e16840df040f15088dc2f81fe391c3923bec73e23a9662efc9c229c6a009081549060ff8260401c166100bd57506001600160401b036002600160401b031982821601610078575b60405161226290816100d28239608051818181610fc701526110a70152f35b6001600160401b031990911681179091556040519081527fc7f505b2f371ae2175ee4913f4499e1f2633a7b5936321eed1cdaeb6115181d290602090a1388080610059565b63f92ee8a960e01b8152600490fd5b600080fdfe608060408181526004918236101561001657600080fd5b600092833560e01c91826301ffc9a7146117de57508163107046bd146101f65781631d65e77e14610d5b5781631df4111b146117b6578163248a9ca31461177e57816324941147146116ab5781632f2ff15d1461168157816336568abe1461163b5781633ab34290146116165781633d7faa40146115f85781633f4ba83a146115805781634245962b14611545578163485cc955146112f15781634f1ef2861461102b57816352d1902d14610fb25781635867173014610f94578163599c553314610f785781635c975abb14610f475781636c563abe14610e1f5781638456cb5914610db75781638d97767214610d5b57816391d1485414610d07578163a217fddf14610cec578163a4b2409e14610b87578163ad3cb1cc14610ae8578163d547741f14610a9b578163dac87ca414610866578163de14c8181461068d578163e1e29558146104e4578163ec87621c146104a9578163eeeb241f14610259578163f0f3f2c8146101f657508063f72c0d8b146101bc5763f8a518ed1461019b57600080fd5b346101b857816003193601126101b8576020906003549051908152f35b5080fd5b50346101b857816003193601126101b857602090517f189ab7a9244df0848122154315af71fe140f3db0fe014031783b0946b8c9d2e38152f35b828434610256576020366003190112610256578161025291843581526001602052209160018060a01b038354169260018101549460028201549060ff600384015491840154169160066005850154940154945197889788611831565b0390f35b80fd5b8383346101b85760603660031901126101b85782356102766118c8565b9060443593610283611f00565b61028b611f30565b7f241ecf16d79d0f8dbfb92cbc07fe17840425976cf0667f022fe9877caa831b08948582526020956000805160206121cd8339815191528752858320338452875260ff86842054161561048b5750828252600186528482209360ff88860154166003811015610478576102fe901561194d565b6001600160a01b0316938415610427576103198215156119c6565b6002810190600161032b848454611a36565b910154106103d257957fe6d74276b833dc8370dd737ef626f0132a4702f6fe28f4088bd1341a5c16245b91869789610364849b54611a27565b998a9687835587815260028652209087825560018201896bffffffffffffffffffffffff60a01b8254161790558360028301556003820160ff198154169055429101556103b2828254611a36565b90558651908152a4600160008051602061220d8339815191525551908152f35b855162461bcd60e51b8152808901889052602960248201527f50726f6a656374457363726f773a20696e73756666696369656e742070726f6a6044820152686563742066756e647360b81b6064820152608490fd5b855162461bcd60e51b8152808901889052602560248201527f50726f6a656374457363726f773a20776f726b6572206973207a65726f206164604482015264647265737360d81b6064820152608490fd5b634e487b7160e01b845260218952602484fd5b855163e2517d3f60e01b815233818a01526024810191909152604490fd5b5050346101b857816003193601126101b857602090517f241ecf16d79d0f8dbfb92cbc07fe17840425976cf0667f022fe9877caa831b088152f35b9190503461068957602036600319011261068957813591610503611f00565b61050b611f30565b828452600260205281842060018101549092906001600160a01b0316330361063157600383019182549160ff8316600581101561061e578015908115610613575b50156105c557505060ff1916600290811790915542600583015569021e19e0c9bab24000009133847fbb5889c77948badf90e8a5c73d55265e5f5d6e4837a79a78c5669691b897faed8780a30154106105b6575b50600160008051602061220d8339815191525580f35b6105bf90611f5b565b386105a0565b906020608492519162461bcd60e51b8352820152602260248201527f50726f6a656374457363726f773a20696e76616c6964207461736b2073746174604482015261757360f01b6064820152fd5b60019150143861054c565b634e487b7160e01b885260218352602488fd5b906020608492519162461bcd60e51b8352820152602c60248201527f50726f6a656374457363726f773a206f6e6c7920776f726b65722063616e206360448201526b6f6d706c657465207461736b60a01b6064820152fd5b8280fd5b919050346106895760209081600319360112610862578235927f408a36151f841709116a4e8aca4e0202874f7f54687dcb863b1ea4672dc9d8cf8086526000805160206121cd8339815191528452828620338752845260ff8387205416156108475750838552600283528185209260ff60038501541660058110156108345760026107189114611a43565b600784019133875282825260ff84882054166107f35769021e19e0c9bab24000006002860154106107a65750338652528320805460ff1916600117905560060180546002919061076790611a27565b80915533837f7c0257138bc682dcff9eb84d702bf9118b11a37ab9af95828ea7332c078eb93f8680a3101561079a575080f35b6107a390611f5b565b80f35b60849184519162461bcd60e51b83528201526024808201527f50726f6a656374457363726f773a20617070726f76616c206e6f7420726571756044820152631a5c995960e21b6064820152fd5b60649184519162461bcd60e51b8352820152601f60248201527f50726f6a656374457363726f773a20616c726561647920617070726f766564006044820152fd5b634e487b7160e01b875260218352602487fd5b604492519163e2517d3f60e01b835233908301526024820152fd5b8380fd5b8383346101b85760208060031936011261068957833590610885611f00565b61088d611f30565b8184526001815282842080546001600160a01b039081169691338803610a4057600681015480156109f1576201518081018091116109de57421061098f576108de60018201546002830154906119a3565b92831561094257837f79ff6a60b3e21b3630b207e2a7b0b50b69b197d3d7ca776108ed2afb8fbac8dc96979899610925928401600160ff19825416179055848b5416611b24565b54169451908152a3600160008051602061220d8339815191525580f35b865162461bcd60e51b8152908101859052602160248201527f50726f6a656374457363726f773a206e6f2066756e647320746f20726566756e6044820152601960fa1b6064820152608490fd5b855162461bcd60e51b8152808401859052602360248201527f50726f6a656374457363726f773a2074696d656c6f636b206e6f7420657870696044820152621c995960ea1b6064820152608490fd5b634e487b7160e01b885260118452602488fd5b865162461bcd60e51b8152808501869052602360248201527f50726f6a656374457363726f773a20726566756e64206e6f74207265717565736044820152621d195960ea1b6064820152608490fd5b855162461bcd60e51b8152808401859052602f60248201527f50726f6a656374457363726f773a206f6e6c7920656d706c6f7965722063616e60448201526e081c1c9bd8d95cdcc81c99599d5b99608a1b6064820152608490fd5b91905034610689578060031936011261068957610ae49135610adf6001610ac06118c8565b938387526000805160206121cd83398151915260205286200154611af1565b611e7d565b5080f35b9050346106895782600319360112610689578151908282019082821067ffffffffffffffff831117610b745750825260058152602090640352e302e360dc1b6020820152825193849260208452825192836020860152825b848110610b5e57505050828201840152601f01601f19168101030190f35b8181018301518882018801528795508201610b40565b634e487b7160e01b855260419052602484fd5b9190503461068957602036600319011261068957813591610ba6611f00565b828452600160205281842080546001600160a01b03163303610c915760ff82820154166003811015610c7e5790610bdf6006921561194d565b01908154610c2b575042905551904282527f6706020a65600b3496005cfd282dbbd692a827197e34c20e4a0fc2fa21d3eff260203393a3600160008051602061220d8339815191525580f35b608490602084519162461bcd60e51b8352820152602760248201527f50726f6a656374457363726f773a20726566756e6420616c72656164792072656044820152661c5d595cdd195960ca1b6064820152fd5b634e487b7160e01b865260218352602486fd5b506020608492519162461bcd60e51b8352820152602f60248201527f50726f6a656374457363726f773a206f6e6c7920656d706c6f7965722063616e60448201526e081c995c5d595cdd081c99599d5b99608a1b6064820152fd5b5050346101b857816003193601126101b85751908152602090f35b9050346106895781600319360112610689578160209360ff92610d286118c8565b903582526000805160206121cd83398151915286528282206001600160a01b039091168252855220549151911615158152f35b828434610256576020366003190112610256578161025291843581526002602052209182549260018060a01b036001820154169460028201549060ff600384015416908301549160066005850154940154945197889788611887565b5050346101b857816003193601126101b85760207f62e78cea01bee320cd4e420270b5ea74000d11b0c9f74754ebdbfc544b05a25891610df5611a99565b610dfd611f30565b6000805160206121ed833981519152805460ff1916600117905551338152a180f35b8383346101b85760203660031901126101b8578235610e3c611f00565b610e44611f30565b610e4f8115156119c6565b610e5a600354611a27565b92836003558381526001602052828120336bffffffffffffffffffffffff60a01b82541617815582600182015585810160ff19815416905560054291015560018060a01b038154168351916323b872dd60e01b60208401523360248401523060448401528360648401526064835260a083019083821067ffffffffffffffff831117610f345750845260209550610ef191906120a0565b8151908152827f6251418ffd7f504740544ec3d578897633e212c5d658b7dce793c5dc9d2e855e853393a3600160008051602061220d8339815191525551908152f35b634e487b7160e01b815260418852602490fd5b5050346101b857816003193601126101b85760209060ff6000805160206121ed833981519152541690519015158152f35b5050346101b857816003193601126101b8576020905160028152f35b90503461068957826003193601126106895760209250549051908152f35b828434610256578060031936011261025657507f00000000000000000000000000000000000000000000000000000000000000006001600160a01b0316300361101e57602090517f360894a13ba1a3210667c828492db98dca3e2076cc3735a920a3ca505d382bbc8152f35b5163703e46dd60e11b8152fd5b91809150600319360112610689576110416118e3565b90602493843567ffffffffffffffff81116101b857366023820112156101b8578085013561106e81611931565b9461107b855196876118f9565b81865260209182870193368a83830101116112ed578186928b8693018737880101526001600160a01b037f000000000000000000000000000000000000000000000000000000000000000081163081149081156112bf575b506112af577f189ab7a9244df0848122154315af71fe140f3db0fe014031783b0946b8c9d2e38086526000805160206121cd8339815191528452868620338752845260ff878720541615611292575081169585516352d1902d60e01b815283818a818b5afa86918161125f575b5061115c575050505050505191634c9c8ce360e01b8352820152fd5b9088888894938c7f360894a13ba1a3210667c828492db98dca3e2076cc3735a920a3ca505d382bbc9182810361124a5750853b15611236575080546001600160a01b031916821790558451889392917fbc7cd75a20ee27fd9adebab32041f755214dbc6bffa90cc0225b39da2e5c2d3b8580a2825115611218575050610ae49582915190845af4913d1561120e573d6112006111f782611931565b925192836118f9565b81528581943d92013e612149565b5060609250612149565b95509550505050503461122a57505080f35b63b398979f60e01b8152fd5b8651634c9c8ce360e01b8152808501849052fd5b8751632a87526960e21b815280860191909152fd5b9091508481813d831161128b575b61127781836118f9565b8101031261128757519038611140565b8680fd5b503d61126d565b865163e2517d3f60e01b815233818b0152808b0191909152604490fd5b855163703e46dd60e11b81528890fd5b9050817f360894a13ba1a3210667c828492db98dca3e2076cc3735a920a3ca505d382bbc54161415386110d3565b8580fd5b90503461068957816003193601126106895761130b6118e3565b906113146118c8565b7ff0c57e16840df040f15088dc2f81fe391c3923bec73e23a9662efc9c229c6a009283549260ff84871c16159367ffffffffffffffff81168015908161153d575b6001149081611533575b15908161152a575b5061151b5767ffffffffffffffff1981166001178655846114fc575b506001600160a01b039182169182156114a85783161561145957509061140f916113ab612108565b6113b3612108565b6113bb612108565b6113c3612108565b600160008051602061220d833981519152556113dd612108565b86546001600160a01b0319161786556113f581611b76565b506113ff81611c04565b5061140981611cb4565b50611d5e565b50611418578280f35b805468ff00000000000000001916905551600181527fc7f505b2f371ae2175ee4913f4499e1f2633a7b5936321eed1cdaeb6115181d290602090a138808280f35b608490602087519162461bcd60e51b83528201526024808201527f50726f6a656374457363726f773a2061646d696e206973207a65726f206164646044820152637265737360e01b6064820152fd5b865162461bcd60e51b8152602081840152602860248201527f50726f6a656374457363726f773a2046494e20746f6b656e206973207a65726f604482015267206164647265737360c01b6064820152608490fd5b68ffffffffffffffffff19166801000000000000000117855538611383565b50855163f92ee8a960e01b8152fd5b90501538611367565b303b15915061135f565b869150611355565b5050346101b857816003193601126101b857602090517f408a36151f841709116a4e8aca4e0202874f7f54687dcb863b1ea4672dc9d8cf8152f35b90503461068957826003193601126106895761159a611a99565b6000805160206121ed8339815191529081549060ff8216156115ea575060ff19169055513381527f5db9ee0a495bf2e6ff9c91a7834c1ba4fdd244a5e8aa4e537bd38aeae4b073aa90602090a180f35b8351638dfc202b60e01b8152fd5b5050346101b857816003193601126101b85760209051620151808152f35b5050346101b857816003193601126101b8576020905169021e19e0c9bab24000008152f35b8383346101b857806003193601126101b8576116556118c8565b90336001600160a01b038316036116725750610ae4919235611e7d565b5163334bd91960e11b81528390fd5b91905034610689578060031936011261068957610ae491356116a66001610ac06118c8565b611e08565b905034610689576020366003190112610689578035916116c9611a99565b82845260016020528320908082019081549060ff821690600382101561176b5750906116f76002921561194d565b60ff191617905560018101546003820154611711916119a3565b8061174a575b50546001600160a01b0316907fab770a3208518c5616af297c14f45e2e7294dffbb8b13fff5213874b7a6420728380a380f35b8354825461176592916001600160a01b039182169116611b24565b38611717565b634e487b7160e01b875260219052602486fd5b90503461068957602036600319011261068957816020936001923581526000805160206121cd83398151915285522001549051908152f35b5050346101b857816003193601126101b857905490516001600160a01b039091168152602090f35b849134610689576020366003190112610689573563ffffffff60e01b81168091036106895760209250637965db0b60e01b8114908115611820575b5015158152f35b6301ffc9a760e01b14905083611819565b939197969592909760e085019860018060a01b0316855260208501526040840152606083015260038310156118715760c092608083015260a08201520152565b634e487b7160e01b600052602160045260246000fd5b93949197969592909760e0850198855260018060a01b03166020850152604084015260058410156118715760c0936060840152608083015260a08201520152565b602435906001600160a01b03821682036118de57565b600080fd5b600435906001600160a01b03821682036118de57565b90601f8019910116810190811067ffffffffffffffff82111761191b57604052565b634e487b7160e01b600052604160045260246000fd5b67ffffffffffffffff811161191b57601f01601f191660200190565b1561195457565b60405162461bcd60e51b815260206004820152602160248201527f50726f6a656374457363726f773a2070726f6a656374206e6f742061637469766044820152606560f81b6064820152608490fd5b919082039182116119b057565b634e487b7160e01b600052601160045260246000fd5b156119cd57565b60405162461bcd60e51b815260206004820152602c60248201527f50726f6a656374457363726f773a20616d6f756e74206d75737420626520677260448201526b06561746572207468616e20360a41b6064820152608490fd5b60001981146119b05760010190565b919082018092116119b057565b15611a4a57565b60405162461bcd60e51b815260206004820152602160248201527f50726f6a656374457363726f773a207461736b206e6f7420636f6d706c6574656044820152601960fa1b6064820152608490fd5b3360009081527fb7db2dd08fcb62d0c9e08c51941cae53c267786a0b75803fb7960902fc8ef97d602052604081205460ff1615611ad35750565b6044906040519063e2517d3f60e01b82523360048301526024820152fd5b806000526000805160206121cd83398151915260205260406000203360005260205260ff6040600020541615611ad35750565b60405163a9059cbb60e01b60208201526001600160a01b039092166024830152604480830193909352918152608081019167ffffffffffffffff83118284101761191b57611b74926040526120a0565b565b6001600160a01b031660008181527fb7db2dd08fcb62d0c9e08c51941cae53c267786a0b75803fb7960902fc8ef97d60205260408120549091906000805160206121cd8339815191529060ff16611bff578280526020526040822081835260205260408220600160ff1982541617905533916000805160206121ad8339815191528180a4600190565b505090565b6001600160a01b031660008181527f06484cc59dc38e4f67c31122333a17ca81b3ca18cdf02bfc298072fa52b0316a60205260408120549091907f241ecf16d79d0f8dbfb92cbc07fe17840425976cf0667f022fe9877caa831b08906000805160206121cd8339815191529060ff16611cae578184526020526040832082845260205260408320600160ff198254161790556000805160206121ad833981519152339380a4600190565b50505090565b6001600160a01b031660008181527fdd2b03978755574964de3a540f0737454491b33185af74da97113472c72356d760205260408120549091907f408a36151f841709116a4e8aca4e0202874f7f54687dcb863b1ea4672dc9d8cf906000805160206121cd8339815191529060ff16611cae578184526020526040832082845260205260408320600160ff198254161790556000805160206121ad833981519152339380a4600190565b6001600160a01b031660008181527fab71e3f32666744d246edff3f96e4bdafee2e9867098cdd118a979a7464786a860205260408120549091907f189ab7a9244df0848122154315af71fe140f3db0fe014031783b0946b8c9d2e3906000805160206121cd8339815191529060ff16611cae578184526020526040832082845260205260408320600160ff198254161790556000805160206121ad833981519152339380a4600190565b906000918083526000805160206121cd83398151915280602052604084209260018060a01b03169283855260205260ff60408520541615600014611cae578184526020526040832082845260205260408320600160ff198254161790556000805160206121ad833981519152339380a4600190565b906000918083526000805160206121cd83398151915280602052604084209260018060a01b03169283855260205260ff604085205416600014611cae57818452602052604083208284526020526040832060ff1981541690557ff6391f5c32d9c69d2a47ea670b442974b53935d1edc7fd64eb21e047a839171b339380a4600190565b60008051602061220d8339815191526002815414611f1e5760029055565b604051633ee5aeb560e01b8152600490fd5b60ff6000805160206121ed8339815191525416611f4957565b60405163d93c066560e01b8152600490fd5b600090808252600260205260408220600381019283549160ff8316600581101561208c576002611f8b9114611a43565b600281019485549069021e19e0c9bab2400000821015612022575b90611ff160037f21d71db5be59bb9fa133895586b7404307dd33fb93b16db09dc6f1d9d7d231b0968594602097965487526001885282604088209260ff191617905501918254611a36565b905590546001909101805486546001600160a01b0393612015928516908516611b24565b54169354604051908152a3565b929190600260068301541061203957909192611fa6565b60405162461bcd60e51b815260206004820152602560248201527f50726f6a656374457363726f773a20696e73756666696369656e7420617070726044820152646f76616c7360d81b6064820152608490fd5b634e487b7160e01b83526021600452602483fd5b906000602091828151910182855af1156120fc576000513d6120f357506001600160a01b0381163b155b6120d15750565b604051635274afe760e01b81526001600160a01b039091166004820152602490fd5b600114156120ca565b6040513d6000823e3d90fd5b60ff7ff0c57e16840df040f15088dc2f81fe391c3923bec73e23a9662efc9c229c6a005460401c161561213757565b604051631afcd79f60e31b8152600490fd5b90612170575080511561215e57602081519101fd5b60405163d6bda27560e01b8152600490fd5b815115806121a3575b612181575090565b604051639996b31560e01b81526001600160a01b039091166004820152602490fd5b50803b1561217956fe2f8788117e7eff1d82e926ec794901d17c78024a50270940304540a733656f0d02dd7bc7dec4dceedda775e58dd541e08a116c6c53815c0bd028192f7b626800cd5ed15c6e187e77e9aee88184c21f4f2182ab5827cb3b7e07fbedcd63f033009b779b17422d0df92223018b32b4d1fa46e071723d6817e2486d003becc55f00a2646970667358221220d6310b98f91b9ca0e7bce693c6f4647411f158e22d857ff7295f9d2c3c62a72964736f6c63430008180033",
  "linkReferences": {},
  "deployedLinkReferences": {}
}