{"contracts/ProjectEscrow.sol":{"ProjectEscrow":{"abi":[{"inputs":[],"stateMutability":"nonpayable","type":"constructor"},{"inputs":[],"name":"AccessControlBadConfirmation","type":"error"},{"inputs":[{"internalType":"address","name":"account","type":"address"},{"internalType":"bytes32","name":"neededRole","type":"bytes32"}],"name":"AccessControlUnauthorizedAccount","type":"error"},{"inputs":[{"internalType":"address","name":"target","type":"address"}],"name":"AddressEmptyCode","type":"error"},{"inputs":[{"internalType":"address","name":"implementation","type":"address"}],"name":"ERC1967InvalidImplementation","type":"error"},{"inputs":[],"name":"ERC1967NonPayable","type":"error"},{"inputs":[],"name":"EnforcedPause","type":"error"},{"inputs":[],"name":"ExpectedPause","type":"error"},{"inputs":[],"name":"FailedCall","type":"error"},{"inputs":[],"name":"InvalidInitialization","type":"error"},{"inputs":[],"name":"NotInitializing","type":"error"},{"inputs":[],"name":"ReentrancyGuardReentrantCall","type":"error"},{"inputs":[{"internalType":"address","name":"token","type":"address"}],"name":"SafeERC20FailedOperation","type":"error"},{"inputs":[],"name":"UUPSUnauthorizedCallContext","type":"error"},{"inputs":[{"internalType":"bytes32","name":"slot","type":"bytes32"}],"name":"UUPSUnsupportedProxiableUUID","type":"error"},{"anonymous":false,"inputs":[{"indexed":false,"internalType":"uint64","name":"version","type":"uint64"}],"name":"Initialized","type":"event"},{"anonymous":false,"inputs":[{"indexed":false,"internalType":"address","name":"account","type":"address"}],"name":"Paused","type":"event"},{"anonymous":false,"inputs":[{"indexed":true,"internalType":"uint256","name":"taskId","type":"uint256"},{"indexed":true,"internalType":"address","name":"approver","type":"address"}],"name":"PaymentApproved","type":"event"},{"anonymous":false,"inputs":[{"indexed":true,"internalType":"uint256","name":"taskId","type":"uint256"},{"indexed":true,"internalType":"address","name":"worker","type":"address"},{"indexed":false,"internalType":"uint256","name":"amount","type":"uint256"}],"name":"PaymentReleased","type":"event"},{"anonymous":false,"inputs":[{"indexed":true,"internalType":"uint256","name":"projectId","type":"uint256"},{"indexed":true,"internalType":"address","name":"employer","type":"address"}],"name":"ProjectCancelled","type":"event"},{"anonymous":false,"inputs":[{"indexed":true,"internalType":"uint256","name":"projectId","type":"uint256"},{"indexed":true,"internalType":"address","name":"employer","type":"address"},{"indexed":false,"internalType":"uint256","name":"amount","type":"uint256"}],"name":"ProjectFunded","type":"event"},{"anonymous":false,"inputs":[{"indexed":true,"internalType":"uint256","name":"projectId","type":"uint256"},{"indexed":true,"internalType":"address","name":"employer","type":"address"},{"indexed":false,"internalType":"uint256","name":"amount","type":"uint256"}],"name":"RefundProcessed","type":"event"},{"anonymous":false,"inputs":[{"indexed":true,"internalType":"uint256","name":"projectId","type":"uint256"},{"indexed":true,"internalType":"address","name":"employer","type":"address"},{"indexed":false,"internalType":"uint256","name":"requestedAt","type":"uint256"}],"name":"RefundRequested","type":"event"},{"anonymous":false,"inputs":[{"indexed":true,"internalType":"bytes32","name":"role","type":"bytes32"},{"indexed":true,"internalType":"bytes32","name":"previousAdminRole","type":"bytes32"},{"indexed":true,"internalType":"bytes32","name":"newAdminRole","type":"bytes32"}],"name":"RoleAdminChanged","type":"event"},{"anonymous":false,"inputs":[{"indexed":true,"internalType":"bytes32","name":"role","type":"bytes32"},{"indexed":true,"internalType":"address","name":"account","type":"address"},{"indexed":true,"internalType":"address","name":"sender","type":"address"}],"name":"RoleGranted","type":"event"},{"anonymous":false,"inputs":[{"indexed":true,"internalType":"bytes32","name":"role","type":"bytes32"},{"indexed":true,"internalType":"address","name":"account","type":"address"},{"indexed":true,"internalType":"address","name":"sender","type":"address"}],"name":"RoleRevoked","type":"event"},{"anonymous":false,"inputs":[{"indexed":true,"internalType":"uint256","name":"taskId","type":"uint256"},{"indexed":true,"internalType":"uint256","name":"projectId","type":"uint256"},{"indexed":true,"internalType":"address","name":"worker","type":"address"},{"indexed":false,"internalType":"uint256","name":"amount","type":"uint256"}],"name":"TaskAllocated","type":"event"},{"anonymous":false,"inputs":[{"indexed":true,"internalType":"uint256","name":"taskId","type":"uint256"},{"indexed":true,"internalType":"address","name":"worker","type":"address"}],"name":"TaskCompleted","type":"event"},{"anonymous":false,"inputs":[{"indexed":false,"internalType":"address","name":"account","type":"address"}],"name":"Unpaused","type":"event"},{"anonymous":false,"inputs":[{"indexed":true,"internalType":"address","name":"implementation","type":"address"}],"name":"Upgraded","type":"event"},{"inputs":[],"name":"APPROVAL_THRESHOLD","outputs":[{"internalType":"uint256","name":"","type":"uint256"}],"stateMutability":"view","type":"function"},{"inputs":[],"name":"APPROVER_ROLE","outputs":[{"internalType":"bytes32","name":"","type":"bytes32"}],"stateMutability":"view","type":"function"},{"inputs":[],"name":"DEFAULT_ADMIN_ROLE","outputs":[{"internalType":"bytes32","name":"","type":"bytes32"}],"stateMutability":"view","type":"function"},{"inputs":[],"name":"MANAGER_ROLE","outputs":[{"internalType":"bytes32","name":"","type":"bytes32"}],"stateMutability":"view","type":"function"},{"inputs":[],"name":"REFUND_TIMELOCK","outputs":[{"internalType":"uint256","name":"","type":"uint256"}],"stateMutability":"view","type":"function"},{"inputs":[],"name":"REQUIRED_APPROVALS","outputs":[{"internalType":"uint256","name":"","type":"uint256"}],"stateMutability":"view","type":"function"},{"inputs":[],"name":"UPGRADER_ROLE","outputs":[{"internalType":"bytes32","name":"","type":"bytes32"}],"stateMutability":"view","type":"function"},{"inputs":[],"name":"UPGRADE_INTERFACE_VERSION","outputs":[{"internalType":"string","name":"","type":"string"}],"stateMutability":"view","type":"function"},{"inputs":[{"internalType":"uint256","name":"projectId","type":"uint256"},{"internalType":"address","name":"worker","type":"address"},{"internalType":"uint256","name":"amount","type":"uint256"}],"name":"allocateTask","outputs":[{"internalType":"uint256","name":"taskId","type":"uint256"}],"stateMutability":"nonpayable","type":"function"},{"inputs":[{"internalType":"uint256","name":"taskId","type":"uint256"}],"name":"approvePayment","outputs":[],"stateMutability":"nonpayable","type":"function"},{"inputs":[{"internalType":"uint256","name":"projectId","type":"uint256"}],"name":"cancelProject","outputs":[],"stateMutability":"nonpayable","type":"function"},{"inputs":[{"internalType":"uint256","name":"taskId","type":"uint256"}],"name":"completeTask","outputs":[],"stateMutability":"nonpayable","type":"function"},{"inputs":[],"name":"finToken","outputs":[{"internalType":"contract IERC20","name":"","type":"address"}],"stateMutability":"view","type":"function"},{"inputs":[{"internalType":"uint256","name":"amount","type":"uint256"}],"name":"fundProject","outputs":[{"internalType":"uint256","name":"projectId","type":"uint256"}],"stateMutability":"nonpayable","type":"function"},{"inputs":[{"internalType":"uint256","name":"projectId","type":"uint256"}],"name":"getProject","outputs":[{"internalType":"address","name":"employer","type":"address"},{"internalType":"uint256","name":"totalFunded","type":"uint256"},{"internalType":"uint256","name":"totalAllocated","type":"uint256"},{"internalType":"uint256","name":"totalReleased","type":"uint256"},{"internalType":"enum ProjectEscrow.ProjectStatus","name":"status","type":"uint8"},{"internalType":"uint256","name":"createdAt","type":"uint256"},{"internalType":"uint256","name":"refundRequestedAt","type":"uint256"}],"stateMutability":"view","type":"function"},{"inputs":[{"internalType":"bytes32","name":"role","type":"bytes32"}],"name":"getRoleAdmin","outputs":[{"internalType":"bytes32","name":"","type":"bytes32"}],"stateMutability":"view","type":"function"},{"inputs":[{"internalType":"uint256","name":"taskId","type":"uint256"}],"name":"getTask","outputs":[{"internalType":"uint256","name":"projectId","type":"uint256"},{"internalType":"address","name":"worker","type":"address"},{"internalType":"uint256","name":"amount","type":"uint256"},{"internalType":"enum ProjectEscrow.TaskStatus","name":"status","type":"uint8"},{"internalType":"uint256","name":"createdAt","type":"uint256"},{"internalType":"uint256","name":"completedAt","type":"uint256"},{"internalType":"uint256","name":"approvalCount","type":"uint256"}],"stateMutability":"view","type":"function"},{"inputs":[{"internalType":"bytes32","name":"role","type":"bytes32"},{"internalType":"address","name":"account","type":"address"}],"name":"grantRole","outputs":[],"stateMutability":"nonpayable","type":"function"},{"inputs":[{"internalType":"bytes32","name":"role","type":"bytes32"},{"internalType":"address","name":"account","type":"address"}],"name":"hasRole","outputs":[{"internalType":"bool","name":"","type":"bool"}],"stateMutability":"view","type":"function"},{"inputs":[{"internalType":"address","name":"_finToken","type":"address"},{"internalType":"address","name":"admin","type":"address"}],"name":"initialize","outputs":[],"stateMutability":"nonpayable","type":"function"},{"inputs":[],"name":"pause","outputs":[],"stateMutability":"nonpayable","type":"function"},{"inputs":[],"name":"paused","outputs":[{"internalType":"bool","name":"","type":"bool"}],"stateMutability":"view","type":"function"},{"inputs":[{"internalType":"uint256","name":"projectId","type":"uint256"}],"name":"processRefund","outputs":[],"stateMutability":"nonpayable","type":"function"},{"inputs":[],"name":"projectCounter","outputs":[{"internalType":"uint256","name":"","type":"uint256"}],"stateMutability":"view","type":"function"},{"inputs":[{"internalType":"uint256","name":"","type":"uint256"}],"name":"projects","outputs":[{"internalType":"address","name":"employer","type":"address"},{"internalType":"uint256","name":"totalFunded","type":"uint256"},{"internalType":"uint256","name":"totalAllocated","type":"uint256"},{"internalType":"uint256","name":"totalReleased","type":"uint256"},{"internalType":"enum ProjectEscrow.ProjectStatus","name":"status","type":"uint8"},{"internalType":"uint256","name":"createdAt","type":"uint256"},{"internalType":"uint256","name":"refundRequestedAt","type":"uint256"}],"stateMutability":"view","type":"function"},{"inputs":[],"name":"proxiableUUID","outputs":[{"internalType":"bytes32","name":"","type":"bytes32"}],"stateMutability":"view","type":"function"},{"inputs":[{"internalType":"bytes32","name":"role","type":"bytes32"},{"internalType":"address","name":"callerConfirmation","type":"address"}],"name":"renounceRole","outputs":[],"stateMutability":"nonpayable","type":"function"},{"inputs":[{"internalType":"uint256","name":"projectId","type":"uint256"}],"name":"requestRefund","outputs":[],"stateMutability":"nonpayable","type":"function"},{"inputs":[{"internalType":"bytes32","name":"role","type":"bytes32"},{"internalType":"address","name":"account","type":"address"}],"name":"revokeRole","outputs":[],"stateMutability":"nonpayable","type":"function"},{"inputs":[{"internalType":"bytes4","name":"interfaceId","type":"bytes4"}],"name":"supportsInterface","outputs":[{"internalType":"bool","name":"","type":"bool"}],"stateMutability":"view","type":"function"},{"inputs":[],"name":"taskCounter","outputs":[{"internalType":"uint256","name":"","type":"uint256"}],"stateMutability":"view","type":"function"},{"inputs":[{"internalType":"uint256","name":"","type":"uint256"}],"name":"tasks","outputs":[{"internalType":"uint256","name":"projectId","type":"uint256"},{"internalType":"address","name":"worker","type":"address"},{"internalType":"uint256","name":"amount","type":"uint256"},{"internalType":"enum ProjectEscrow.TaskStatus","name":"status","type":"uint8"},{"internalType":"uint256","name":"createdAt","type":"uint256"},{"internalType":"uint256","name":"completedAt","type":"uint256"},{"internalType":"uint256","name":"approvalCount","type":"uint256"}],"stateMutability":"view","type":"function"},{"inputs":[],"name":"unpause","outputs":[],"stateMutability":"nonpayable","type":"function"},{"inputs":[{"internalType":"address","name":"newImplementation","type":"address"},{"internalType":"bytes","name":"data","type":"bytes"}],"name":"upgradeToAndCall","outputs":[],"stateMutability":"payable","type":"function"}],"evm":{"bytecode":{"linkReferences":{},"object":"60a080604052346100cc57306080527ff0c57e16840df040f15088dc2f81fe391c3923bec73e23a9662efc9c229c6a009081549060ff8260401c166100bd57506001600160401b036002600160401b031982821601610078575b60405161226290816100d28239608051818181610fc701526110a70152f35b6001600160401b031990911681179091556040519081527fc7f505b2f371ae2175ee4913f4499e1f2633a7b5936321eed1cdaeb6115181d290602090a1388080610059565b63f92ee8a960e01b8152600490fd5b600080fdfe608060408181526004918236101561001657600080fd5b600092833560e01c91826301ffc9a7146117de57508163107046bd146101f65781631d65e77e14610d5b5781631df4111b146117b6578163248a9ca31461177e57816324941147146116ab5781632f2ff15d1461168157816336568abe1461163b5781633ab34290146116165781633d7faa40146115f85781633f4ba83a146115805781634245962b14611545578163485cc955146112f15781634f1ef2861461102b57816352d1902d14610fb25781635867173014610f94578163599c553314610f785781635c975abb14610f475781636c563abe14610e1f5781638456cb5914610db75781638d97767214610d5b57816391d1485414610d07578163a217fddf14610cec578163a4b2409e14610b87578163ad3cb1cc14610ae8578163d547741f14610a9b578163dac87ca414610866578163de14c8181461068d578163e1e29558146104e4578163ec87621c146104a9578163eeeb241f14610259578163f0f3f2c8146101f657508063f72c0d8b146101bc5763f8a518ed1461019b57600080fd5b346101b857816003193601126101b8576020906003549051908152f35b5080fd5b50346101b857816003193601126101b857602090517f189ab7a9244df0848122154315af71fe140f3db0fe014031783b0946b8c9d2e38152f35b828434610256576020366003190112610256578161025291843581526001602052209160018060a01b038354169260018101549460028201549060ff600384015491840154169160066005850154940154945197889788611831565b0390f35b80fd5b8383346101b85760603660031901126101b85782356102766118c8565b9060443593610283611f00565b61028b611f30565b7f241ecf16d79d0f8dbfb92cbc07fe17840425976cf0667f022fe9877caa831b08948582526020956000805160206121cd8339815191528752858320338452875260ff86842054161561048b5750828252600186528482209360ff88860154166003811015610478576102fe901561194d565b6001600160a01b0316938415610427576103198215156119c6565b6002810190600161032b848454611a36565b910154106103d257957fe6d74276b833dc8370dd737ef626f0132a4702f6fe28f4088bd1341a5c16245b91869789610364849b54611a27565b998a9687835587815260028652209087825560018201896bffffffffffffffffffffffff60a01b8254161790558360028301556003820160ff198154169055429101556103b2828254611a36565b90558651908152a4600160008051602061220d8339815191525551908152f35b855162461bcd60e51b8152808901889052602960248201527f50726f6a656374457363726f773a20696e73756666696369656e742070726f6a6044820152686563742066756e647360b81b6064820152608490fd5b855162461bcd60e51b8152808901889052602560248201527f50726f6a656374457363726f773a20776f726b6572206973207a65726f206164604482015264647265737360d81b6064820152608490fd5b634e487b7160e01b845260218952602484fd5b855163e2517d3f60e01b815233818a01526024810191909152604490fd5b5050346101b857816003193601126101b857602090517f241ecf16d79d0f8dbfb92cbc07fe17840425976cf0667f022fe9877caa831b088152f35b9190503461068957602036600319011261068957813591610503611f00565b61050b611f30565b828452600260205281842060018101549092906001600160a01b0316330361063157600383019182549160ff8316600581101561061e578015908115610613575b50156105c557505060ff1916600290811790915542600583015569021e19e0c9bab24000009133847fbb5889c77948badf90e8a5c73d55265e5f5d6e4837a79a78c5669691b897faed8780a30154106105b6575b50600160008051602061220d8339815191525580f35b6105bf90611f5b565b386105a0565b906020608492519162461bcd60e51b8352820152602260248201527f50726f6a656374457363726f773a20696e76616c6964207461736b2073746174604482015261757360f01b6064820152fd5b60019150143861054c565b634e487b7160e01b885260218352602488fd5b906020608492519162461bcd60e51b8352820152602c60248201527f50726f6a656374457363726f773a206f6e6c7920776f726b65722063616e206360448201526b6f6d706c657465207461736b60a01b6064820152fd5b8280fd5b919050346106895760209081600319360112610862578235927f408a36151f841709116a4e8aca4e0202874f7f54687dcb863b1ea4672dc9d8cf8086526000805160206121cd8339815191528452828620338752845260ff8387205416156108475750838552600283528185209260ff60038501541660058110156108345760026107189114611a43565b600784019133875282825260ff84882054166107f35769021e19e0c9bab24000006002860154106107a65750338652528320805460ff1916600117905560060180546002919061076790611a27565b80915533837f7c0257138bc682dcff9eb84d702bf9118b11a37ab9af95828ea7332c078eb93f8680a3101561079a575080f35b6107a390611f5b565b80f35b60849184519162461bcd60e51b83528201526024808201527f50726f6a656374457363726f773a20617070726f76616c206e6f7420726571756044820152631a5c995960e21b6064820152fd5b60649184519162461bcd60e51b8352820152601f60248201527f50726f6a656374457363726f773a20616c726561647920617070726f766564006044820152fd5b634e487b7160e01b875260218352602487fd5b604492519163e2517d3f60e01b835233908301526024820152fd5b8380fd5b8383346101b85760208060031936011261068957833590610885611f00565b61088d611f30565b8184526001815282842080546001600160a01b039081169691338803610a4057600681015480156109f1576201518081018091116109de57421061098f576108de60018201546002830154906119a3565b92831561094257837f79ff6a60b3e21b3630b207e2a7b0b50b69b197d3d7ca776108ed2afb8fbac8dc96979899610925928401600160ff19825416179055848b5416611b24565b54169451908152a3600160008051602061220d8339815191525580f35b865162461bcd60e51b8152908101859052602160248201527f50726f6a656374457363726f773a206e6f2066756e647320746f20726566756e6044820152601960fa1b6064820152608490fd5b855162461bcd60e51b8152808401859052602360248201527f50726f6a656374457363726f773a2074696d656c6f636b206e6f7420657870696044820152621c995960ea1b6064820152608490fd5b634e487b7160e01b885260118452602488fd5b865162461bcd60e51b8152808501869052602360248201527f50726f6a656374457363726f773a20726566756e64206e6f74207265717565736044820152621d195960ea1b6064820152608490fd5b855162461bcd60e51b8152808401859052602f60248201527f50726f6a656374457363726f773a206f6e6c7920656d706c6f7965722063616e60448201526e081c1c9bd8d95cdcc81c99599d5b99608a1b6064820152608490fd5b91905034610689578060031936011261068957610ae49135610adf6001610ac06118c8565b938387526000805160206121cd83398151915260205286200154611af1565b611e7d565b5080f35b9050346106895782600319360112610689578151908282019082821067ffffffffffffffff831117610b745750825260058152602090640352e302e360dc1b6020820152825193849260208452825192836020860152825b848110610b5e57505050828201840152601f01601f19168101030190f35b8181018301518882018801528795508201610b40565b634e487b7160e01b855260419052602484fd5b9190503461068957602036600319011261068957813591610ba6611f00565b828452600160205281842080546001600160a01b03163303610c915760ff82820154166003811015610c7e5790610bdf6006921561194d565b01908154610c2b575042905551904282527f6706020a65600b3496005cfd282dbbd692a827197e34c20e4a0fc2fa21d3eff260203393a3600160008051602061220d8339815191525580f35b608490602084519162461bcd60e51b8352820152602760248201527f50726f6a656374457363726f773a20726566756e6420616c72656164792072656044820152661c5d595cdd195960ca1b6064820152fd5b634e487b7160e01b865260218352602486fd5b506020608492519162461bcd60e51b8352820152602f60248201527f50726f6a656374457363726f773a206f6e6c7920656d706c6f7965722063616e60448201526e081c995c5d595cdd081c99599d5b99608a1b6064820152fd5b5050346101b857816003193601126101b85751908152602090f35b9050346106895781600319360112610689578160209360ff92610d286118c8565b903582526000805160206121cd83398151915286528282206001600160a01b039091168252855220549151911615158152f35b828434610256576020366003190112610256578161025291843581526002602052209182549260018060a01b036001820154169460028201549060ff600384015416908301549160066005850154940154945197889788611887565b5050346101b857816003193601126101b85760207f62e78cea01bee320cd4e420270b5ea74000d11b0c9f74754ebdbfc544b05a25891610df5611a99565b610dfd611f30565b6000805160206121ed833981519152805460ff1916600117905551338152a180f35b8383346101b85760203660031901126101b8578235610e3c611f00565b610e44611f30565b610e4f8115156119c6565b610e5a600354611a27565b92836003558381526001602052828120336bffffffffffffffffffffffff60a01b82541617815582600182015585810160ff19815416905560054291015560018060a01b038154168351916323b872dd60e01b60208401523360248401523060448401528360648401526064835260a083019083821067ffffffffffffffff831117610f345750845260209550610ef191906120a0565b8151908152827f6251418ffd7f504740544ec3d578897633e212c5d658b7dce793c5dc9d2e855e853393a3600160008051602061220d8339815191525551908152f35b634e487b7160e01b815260418852602490fd5b5050346101b857816003193601126101b85760209060ff6000805160206121ed833981519152541690519015158152f35b5050346101b857816003193601126101b8576020905160028152f35b90503461068957826003193601126106895760209250549051908152f35b828434610256578060031936011261025657507f00000000000000000000000000000000000000000000000000000000000000006001600160a01b0316300361101e57602090517f360894a13ba1a3210667c828492db98dca3e2076cc3735a920a3ca505d382bbc8152f35b5163703e46dd60e11b8152fd5b91809150600319360112610689576110416118e3565b90602493843567ffffffffffffffff81116101b857366023820112156101b8578085013561106e81611931565b9461107b855196876118f9565b81865260209182870193368a83830101116112ed578186928b8693018737880101526001600160a01b037f000000000000000000000000000000000000000000000000000000000000000081163081149081156112bf575b506112af577f189ab7a9244df0848122154315af71fe140f3db0fe014031783b0946b8c9d2e38086526000805160206121cd8339815191528452868620338752845260ff878720541615611292575081169585516352d1902d60e01b815283818a818b5afa86918161125f575b5061115c575050505050505191634c9c8ce360e01b8352820152fd5b9088888894938c7f360894a13ba1a3210667c828492db98dca3e2076cc3735a920a3ca505d382bbc9182810361124a5750853b15611236575080546001600160a01b031916821790558451889392917fbc7cd75a20ee27fd9adebab32041f755214dbc6bffa90cc0225b39da2e5c2d3b8580a2825115611218575050610ae49582915190845af4913d1561120e573d6112006111f782611931565b925192836118f9565b81528581943d92013e612149565b5060609250612149565b95509550505050503461122a57505080f35b63b398979f60e01b8152fd5b8651634c9c8ce360e01b8152808501849052fd5b8751632a87526960e21b815280860191909152fd5b9091508481813d831161128b575b61127781836118f9565b8101031261128757519038611140565b8680fd5b503d61126d565b865163e2517d3f60e01b815233818b0152808b0191909152604490fd5b855163703e46dd60e11b81528890fd5b9050817f360894a13ba1a3210667c828492db98dca3e2076cc3735a920a3ca505d382bbc54161415386110d3565b8580fd5b90503461068957816003193601126106895761130b6118e3565b906113146118c8565b7ff0c57e16840df040f15088dc2f81fe391c3923bec73e23a9662efc9c229c6a009283549260ff84871c16159367ffffffffffffffff81168015908161153d575b6001149081611533575b15908161152a575b5061151b5767ffffffffffffffff1981166001178655846114fc575b506001600160a01b039182169182156114a85783161561145957509061140f916113ab612108565b6113b3612108565b6113bb612108565b6113c3612108565b600160008051602061220d833981519152556113dd612108565b86546001600160a01b0319161786556113f581611b76565b506113ff81611c04565b5061140981611cb4565b50611d5e565b50611418578280f35b805468ff00000000000000001916905551600181527fc7f505b2f371ae2175ee4913f4499e1f2633a7b5936321eed1cdaeb6115181d290602090a138808280f35b608490602087519162461bcd60e51b83528201526024808201527f50726f6a656374457363726f773a2061646d696e206973207a65726f206164646044820152637265737360e01b6064820152fd5b865162461bcd60e51b8152602081840152602860248201527f50726f6a656374457363726f773a2046494e20746f6b656e206973207a65726f604482015267206164647265737360c01b6064820152608490fd5b68ffffffffffffffffff19166801000000000000000117855538611383565b50855163f92ee8a960e01b8152fd5b90501538611367565b303b15915061135f565b869150611355565b5050346101b857816003193601126101b857602090517f408a36151f841709116a4e8aca4e0202874f7f54687dcb863b1ea4672dc9d8cf8152f35b90503461068957826003193601126106895761159a611a99565b6000805160206121ed8339815191529081549060ff8216156115ea575060ff19169055513381527f5db9ee0a495bf2e6ff9c91a7834c1ba4fdd244a5e8aa4e537bd38aeae4b073aa90602090a180f35b8351638dfc202b60e01b8152fd5b5050346101b857816003193601126101b85760209051620151808152f35b5050346101b857816003193601126101b8576020905169021e19e0c9bab24000008152f35b8383346101b857806003193601126101b8576116556118c8565b90336001600160a01b038316036116725750610ae4919235611e7d565b5163334bd91960e11b81528390fd5b91905034610689578060031936011261068957610ae491356116a66001610ac06118c8565b611e08565b905034610689576020366003190112610689578035916116c9611a99565b82845260016020528320908082019081549060ff821690600382101561176b5750906116f76002921561194d565b60ff191617905560018101546003820154611711916119a3565b8061174a575b50546001600160a01b0316907fab770a3208518c5616af297c14f45e2e7294dffbb8b13fff5213874b7a6420728380a380f35b8354825461176592916001600160a01b039182169116611b24565b38611717565b634e487b7160e01b875260219052602486fd5b90503461068957602036600319011261068957816020936001923581526000805160206121cd83398151915285522001549051908152f35b5050346101b857816003193601126101b857905490516001600160a01b039091168152602090f35b849134610689576020366003190112610689573563ffffffff60e01b81168091036106895760209250637965db0b60e01b8114908115611820575b5015158152f35b6301ffc9a760e01b14905083611819565b939197969592909760e085019860018060a01b0316855260208501526040840152606083015260038310156118715760c092608083015260a08201520152565b634e487b7160e01b600052602160045260246000fd5b93949197969592909760e0850198855260018060a01b03166020850152604084015260058410156118715760c0936060840152608083015260a08201520152565b602435906001600160a01b03821682036118de57565b600080fd5b600435906001600160a01b03821682036118de57565b90601f8019910116810190811067ffffffffffffffff82111761191b57604052565b634e487b7160e01b600052604160045260246000fd5b67ffffffffffffffff811161191b57601f01601f191660200190565b1561195457565b60405162461bcd60e51b815260206004820152602160248201527f50726f6a656374457363726f773a2070726f6a656374206e6f742061637469766044820152606560f81b6064820152608490fd5b919082039182116119b057565b634e487b7160e01b600052601160045260246000fd5b156119cd57565b60405162461bcd60e51b815260206004820152602c60248201527f50726f6a656374457363726f773a20616d6f756e74206d75737420626520677260448201526b06561746572207468616e20360a41b6064820152608490fd5b60001981146119b05760010190565b919082018092116119b057565b15611a4a57565b60405162461bcd60e51b815260206004820152602160248201527f50726f6a656374457363726f773a207461736b206e6f7420636f6d706c6574656044820152601960fa1b6064820152608490fd5b3360009081527fb7db2dd08fcb62d0c9e08c51941cae53c267786a0b75803fb7960902fc8ef97d602052604081205460ff1615611ad35750565b6044906040519063e2517d3f60e01b82523360048301526024820152fd5b806000526000805160206121cd83398151915260205260406000203360005260205260ff6040600020541615611ad35750565b60405163a9059cbb60e01b60208201526001600160a01b039092166024830152604480830193909352918152608081019167ffffffffffffffff83118284101761191b57611b74926040526120a0565b565b6001600160a01b031660008181527fb7db2dd08fcb62d0c9e08c51941cae53c267786a0b75803fb7960902fc8ef97d60205260408120549091906000805160206121cd8339815191529060ff16611bff578280526020526040822081835260205260408220600160ff1982541617905533916000805160206121ad8339815191528180a4600190565b505090565b6001600160a01b031660008181527f06484cc59dc38e4f67c31122333a17ca81b3ca18cdf02bfc298072fa52b0316a60205260408120549091907f241ecf16d79d0f8dbfb92cbc07fe17840425976cf0667f022fe9877caa831b08906000805160206121cd8339815191529060ff16611cae578184526020526040832082845260205260408320600160ff198254161790556000805160206121ad833981519152339380a4600190565b50505090565b6001600160a01b031660008181527fdd2b03978755574964de3a540f0737454491b33185af74da97113472c72356d760205260408120549091907f408a36151f841709116a4e8aca4e0202874f7f54687dcb863b1ea4672dc9d8cf906000805160206121cd8339815191529060ff16611cae578184526020526040832082845260205260408320600160ff198254161790556000805160206121ad833981519152339380a4600190565b6001600160a01b031660008181527fab71e3f32666744d246edff3f96e4bdafee2e9867098cdd118a979a7464786a860205260408120549091907f189ab7a9244df0848122154315af71fe140f3db0fe014031783b0946b8c9d2e3906000805160206121cd8339815191529060ff16611cae578184526020526040832082845260205260408320600160ff198254161790556000805160206121ad833981519152339380a4600190565b906000918083526000805160206121cd83398151915280602052604084209260018060a01b03169283855260205260ff60408520541615600014611cae578184526020526040832082845260205260408320600160ff198254161790556000805160206121ad833981519152339380a4600190565b906000918083526000805160206121cd83398151915280602052604084209260018060a01b03169283855260205260ff604085205416600014611cae57818452602052604083208284526020526040832060ff1981541690557ff6391f5c32d9c69d2a47ea670b442974b53935d1edc7fd64eb21e047a839171b339380a4600190565b60008051602061220d8339815191526002815414611f1e5760029055565b604051633ee5aeb560e01b8152600490fd5b60ff6000805160206121ed8339815191525416611f4957565b60405163d93c066560e01b8152600490fd5b600090808252600260205260408220600381019283549160ff8316600581101561208c576002611f8b9114611a43565b600281019485549069021e19e0c9bab2400000821015612022575b90611ff160037f21d71db5be59bb9fa133895586b7404307dd33fb93b16db09dc6f1d9d7d231b0968594602097965487526001885282604088209260ff191617905501918254611a36565b905590546001909101805486546001600160a01b0393612015928516908516611b24565b54169354604051908152a3565b929190600260068301541061203957909192611fa6565b60405162461bcd60e51b815260206004820152602560248201527f50726f6a656374457363726f773a20696e73756666696369656e7420617070726044820152646f76616c7360d81b6064820152608490fd5b634e487b7160e01b83526021600452602483fd5b906000602091828151910182855af1156120fc576000513d6120f357506001600160a01b0381163b155b6120d15750565b604051635274afe760e01b81526001600160a01b039091166004820152602490fd5b600114156120ca565b6040513d6000823e3d90fd5b60ff7ff0c57e16840df040f15088dc2f81fe391c3923bec73e23a9662efc9c229c6a005460401c161561213757565b604051631afcd79f60e31b8152600490fd5b90612170575080511561215e57602081519101fd5b60405163d6bda27560e01b8152600490fd5b815115806121a3575b612181575090565b604051639996b31560e01b81526001600160a01b039091166004820152602490fd5b50803b1561217956fe2f8788117e7eff1d82e926ec794901d17c78024a50270940304540a733656f0d02dd7bc7dec4dceedda775e58dd541e08a116c6c53815c0bd028192f7b626800cd5ed15c6e187e77e9aee88184c21f4f2182ab5827cb3b7e07fbedcd63f033009b779b17422d0df92223018b32b4d1fa46e071723d6817e2486d003becc55f00a2646970667358221220d6310b98f91b9ca0e7bce693c6f4647411f158e22d857ff7295f9d2c3c62a72964736f6c63430008180033","opcodes":"PUSH1 0xA0 DUP1 PUSH1 0x40 MSTORE CALLVALUE PUSH2 0xCC JUMPI ADDRESS PUSH1 0x80 MSTORE PUSH32 0xF0C57E16840DF040F15088DC2F81FE391C3923BEC73E23A9662EFC9C229C6A00 SWAP1 DUP2 SLOAD SWAP1 PUSH1 0xFF DUP3 PUSH1 0x40 SHR AND PUSH2 0xBD JUMPI POP PUSH1 0x1 PUSH1 0x1 PUSH1 0x40 SHL SUB PUSH1 0x2 PUSH1 0x1 PUSH1 0x40 SHL SUB NOT DUP3 DUP3 AND ADD PUSH2 0x78 JUMPI JUMPDEST PUSH1 0x40 MLOAD PUSH2 0x2262 SWAP1 DUP2 PUSH2 0xD2 DUP3 CODECOPY PUSH1 0x80 MLOAD DUP2 DUP2 DUP2 PUSH2 0xFC7 ADD MSTORE PUSH2 0x10A7 ADD MSTORE RETURN JUMPDEST PUSH1 0x1 PUSH1 0x1 PUSH1 0x40 SHL SUB NOT SWAP1 SWAP2 AND DUP2 OR SWAP1 SWAP2 SSTORE PUSH1 0x40 MLOAD SWAP1 DUP2 MSTORE PUSH32 0xC7F505B2F371AE2175EE4913F4499E1F2633A7B5936321EED1CDAEB6115181D2 SWAP1 PUSH1 0x20 SWAP1 LOG1 CODESIZE DUP1 DUP1 PUSH2 0x59 JUMP JUMPDEST PUSH4 0xF92EE8A9 PUSH1 0xE0 SHL DUP2 MSTORE PUSH1 0x4 SWAP1 REVERT JUMPDEST PUSH1 0x0 DUP1 REVERT INVALID PUSH1 0x80 PUSH1 0x40 DUP2 DUP2 MSTORE PUSH1 0x4 SWAP2 DUP3 CALLDATASIZE LT ISZERO PUSH2 0x16 JUMPI PUSH1 0x0 DUP1 REVERT JUMPDEST PUSH1 0x0 SWAP3 DUP4 CALLDATALOAD PUSH1 0xE0 SHR SWAP2 DUP3 PUSH4 0x1FFC9A7 EQ PUSH2 0x17DE JUMPI POP DUP2 PUSH4 0x107046BD EQ PUSH2 0x1F6 JUMPI DUP2 PUSH4 0x1D65E77E EQ PUSH2 0xD5B JUMPI DUP2 PUSH4 0x1DF4111B EQ PUSH2 0x17B6 JUMPI DUP2 PUSH4 0x248A9CA3 EQ PUSH2 0x177E JUMPI DUP2 PUSH4 0x24941147 EQ PUSH2 0x16AB JUMPI DUP2 PUSH4 0x2F2FF15D EQ PUSH2 0x1681 JUMPI DUP2 PUSH4 0x36568ABE EQ PUSH2 0x163B JUMPI DUP2 PUSH4 0x3AB34290 EQ PUSH2 0x1616 JUMPI DUP2 PUSH4 0x3D7FAA40 EQ PUSH2 0x15F8 JUMPI DUP2 PUSH4 0x3F4BA83A EQ PUSH2 0x1580 JUMPI DUP2 PUSH4 0x4245962B EQ PUSH2 0x1545 JUMPI DUP2 PUSH4 0x485CC955 EQ PUSH2 0x12F1 JUMPI DUP2 PUSH4 0x4F1EF286 EQ PUSH2 0x102B JUMPI DUP2 PUSH4 0x52D1902D EQ PUSH2 0xFB2 JUMPI DUP2 PUSH4 0x58671730 EQ PUSH2 0xF94 JUMPI DUP2 PUSH4 0x599C5533 EQ PUSH2 0xF78 JUMPI DUP2 PUSH4 0x5C975ABB EQ PUSH2 0xF47 JUMPI DUP2 PUSH4 0x6C563ABE EQ PUSH2 0xE1F JUMPI DUP2 PUSH4 0x8456CB59 EQ PUSH2 0xDB7 JUMPI DUP2 PUSH4 0x8D977672 EQ PUSH2 0xD5B JUMPI DUP2 PUSH4 0x91D14854 EQ PUSH2 0xD07 JUMPI DUP2 PUSH4 0xA217FDDF EQ PUSH2 0xCEC JUMPI DUP2 PUSH4 0xA4B2409E EQ PUSH2 0xB87 JUMPI DUP2 PUSH4 0xAD3CB1CC EQ PUSH2 0xAE8 JUMPI DUP2 PUSH4 0xD547741F EQ PUSH2 0xA9B JUMPI DUP2 PUSH4 0xDAC87CA4 EQ PUSH2 0x866 JUMPI DUP2 PUSH4 0xDE14C818 EQ PUSH2 0x68D JUMPI DUP2 PUSH4 0xE1E29558 EQ PUSH2 0x4E4 JUMPI DUP2 PUSH4 0xEC87621C EQ PUSH2 0x4A9 JUMPI DUP2 PUSH4 0xEEEB241F EQ PUSH2 0x259 JUMPI DUP2 PUSH4 0xF0F3F2C8 EQ PUSH2 0x1F6 JUMPI POP DUP1 PUSH4 0xF72C0D8B EQ PUSH2 0x1BC JUMPI PUSH4 0xF8A518ED EQ PUSH2 0x19B JUMPI PUSH1 0x0 DUP1 REVERT JUMPDEST CALLVALUE PUSH2 0x1B8 JUMPI DUP2 PUSH1 0x3 NOT CALLDATASIZE ADD SLT PUSH2 0x1B8 JUMPI PUSH1 0x20 SWAP1 PUSH1 0x3 SLOAD SWAP1 MLOAD SWAP1 DUP2 MSTORE RETURN JUMPDEST POP DUP1 REVERT JUMPDEST POP CALLVALUE PUSH2 0x1B8 JUMPI DUP2 PUSH1 0x3 NOT CALLDATASIZE ADD SLT PUSH2 0x1B8 JUMPI PUSH1 0x20 SWAP1 MLOAD PUSH32 0x189AB7A9244DF0848122154315AF71FE140F3DB0FE014031783B0946B8C9D2E3 DUP2 MSTORE RETURN JUMPDEST DUP3 DUP5 CALLVALUE PUSH2 0x256 JUMPI PUSH1 0x20 CALLDATASIZE PUSH1 0x3 NOT ADD SLT PUSH2 0x256 JUMPI DUP2 PUSH2 0x252 SWAP2 DUP5 CALLDATALOAD DUP2 MSTORE PUSH1 0x1 PUSH1 0x20 MSTORE KECCAK256 SWAP2 PUSH1 0x1 DUP1 PUSH1 0xA0 SHL SUB DUP4 SLOAD AND SWAP3 PUSH1 0x1 DUP2 ADD SLOAD SWAP5 PUSH1 0x2 DUP3 ADD SLOAD SWAP1 PUSH1 0xFF PUSH1 0x3 DUP5 ADD SLOAD SWAP2 DUP5 ADD SLOAD AND SWAP2 PUSH1 0x6 PUSH1 0x5 DUP6 ADD SLOAD SWAP5 ADD SLOAD SWAP5 MLOAD SWAP8 DUP9 SWAP8 DUP9 PUSH2 0x1831 JUMP JUMPDEST SUB SWAP1 RETURN JUMPDEST DUP1 REVERT JUMPDEST DUP4 DUP4 CALLVALUE PUSH2 0x1B8 JUMPI PUSH1 0x60 CALLDATASIZE PUSH1 0x3 NOT ADD SLT PUSH2 0x1B8 JUMPI DUP3 CALLDATALOAD PUSH2 0x276 PUSH2 0x18C8 JUMP JUMPDEST SWAP1 PUSH1 0x44 CALLDATALOAD SWAP4 PUSH2 0x283 PUSH2 0x1F00 JUMP JUMPDEST PUSH2 0x28B PUSH2 0x1F30 JUMP JUMPDEST PUSH32 0x241ECF16D79D0F8DBFB92CBC07FE17840425976CF0667F022FE9877CAA831B08 SWAP5 DUP6 DUP3 MSTORE PUSH1 0x20 SWAP6 PUSH1 0x0 DUP1 MLOAD PUSH1 0x20 PUSH2 0x21CD DUP4 CODECOPY DUP2 MLOAD SWAP2 MSTORE DUP8 MSTORE DUP6 DUP4 KECCAK256 CALLER DUP5 MSTORE DUP8 MSTORE PUSH1 0xFF DUP7 DUP5 KECCAK256 SLOAD AND ISZERO PUSH2 0x48B JUMPI POP DUP3 DUP3 MSTORE PUSH1 0x1 DUP7 MSTORE DUP5 DUP3 KECCAK256 SWAP4 PUSH1 0xFF DUP9 DUP7 ADD SLOAD AND PUSH1 0x3 DUP2 LT ISZERO PUSH2 0x478 JUMPI PUSH2 0x2FE SWAP1 ISZERO PUSH2 0x194D JUMP JUMPDEST PUSH1 0x1 PUSH1 0x1 PUSH1 0xA0 SHL SUB AND SWAP4 DUP5 ISZERO PUSH2 0x427 JUMPI PUSH2 0x319 DUP3 ISZERO ISZERO PUSH2 0x19C6 JUMP JUMPDEST PUSH1 0x2 DUP2 ADD SWAP1 PUSH1 0x1 PUSH2 0x32B DUP5 DUP5 SLOAD PUSH2 0x1A36 JUMP JUMPDEST SWAP2 ADD SLOAD LT PUSH2 0x3D2 JUMPI SWAP6 PUSH32 0xE6D74276B833DC8370DD737EF626F0132A4702F6FE28F4088BD1341A5C16245B SWAP2 DUP7 SWAP8 DUP10 PUSH2 0x364 DUP5 SWAP12 SLOAD PUSH2 0x1A27 JUMP JUMPDEST SWAP10 DUP11 SWAP7 DUP8 DUP4 SSTORE DUP8 DUP2 MSTORE PUSH1 0x2 DUP7 MSTORE KECCAK256 SWAP1 DUP8 DUP3 SSTORE PUSH1 0x1 DUP3 ADD DUP10 PUSH12 0xFFFFFFFFFFFFFFFFFFFFFFFF PUSH1 0xA0 SHL DUP3 SLOAD AND OR SWAP1 SSTORE DUP4 PUSH1 0x2 DUP4 ADD SSTORE PUSH1 0x3 DUP3 ADD PUSH1 0xFF NOT DUP2 SLOAD AND SWAP1 SSTORE TIMESTAMP SWAP2 ADD SSTORE PUSH2 0x3B2 DUP3 DUP3 SLOAD PUSH2 0x1A36 JUMP JUMPDEST SWAP1 SSTORE DUP7 MLOAD SWAP1 DUP2 MSTORE LOG4 PUSH1 0x1 PUSH1 0x0 DUP1 MLOAD PUSH1 0x20 PUSH2 0x220D DUP4 CODECOPY DUP2 MLOAD SWAP2 MSTORE SSTORE MLOAD SWAP1 DUP2 MSTORE RETURN JUMPDEST DUP6 MLOAD PUSH3 0x461BCD PUSH1 0xE5 SHL DUP2 MSTORE DUP1 DUP10 ADD DUP9 SWAP1 MSTORE PUSH1 0x29 PUSH1 0x24 DUP3 ADD MSTORE PUSH32 0x50726F6A656374457363726F773A20696E73756666696369656E742070726F6A PUSH1 0x44 DUP3 ADD MSTORE PUSH9 0x6563742066756E6473 PUSH1 0xB8 SHL PUSH1 0x64 DUP3 ADD MSTORE PUSH1 0x84 SWAP1 REVERT JUMPDEST DUP6 MLOAD PUSH3 0x461BCD PUSH1 0xE5 SHL DUP2 MSTORE DUP1 DUP10 ADD DUP9 SWAP1 MSTORE PUSH1 0x25 PUSH1 0x24 DUP3 ADD MSTORE PUSH32 0x50726F6A656374457363726F773A20776F726B6572206973207A65726F206164 PUSH1 0x44 DUP3 ADD MSTORE PUSH5 0x6472657373 PUSH1 0xD8 SHL PUSH1 0x64 DUP3 ADD MSTORE PUSH1 0x84 SWAP1 REVERT JUMPDEST PUSH4 0x4E487B71 PUSH1 0xE0 SHL DUP5 MSTORE PUSH1 0x21 DUP10 MSTORE PUSH1 0x24 DUP5 REVERT JUMPDEST DUP6 MLOAD PUSH4 0xE2517D3F PUSH1 0xE0 SHL DUP2 MSTORE CALLER DUP2 DUP11 ADD MSTORE PUSH1 0x24 DUP2 ADD SWAP2 SWAP1 SWAP2 MSTORE PUSH1 0x44 SWAP1 REVERT JUMPDEST POP POP CALLVALUE PUSH2 0x1B8 JUMPI DUP2 PUSH1 0x3 NOT CALLDATASIZE ADD SLT PUSH2 0x1B8 JUMPI PUSH1 0x20 SWAP1 MLOAD PUSH32 0x241ECF16D79D0F8DBFB92CBC07FE17840425976CF0667F022FE9877CAA831B08 DUP2 MSTORE RETURN JUMPDEST SWAP2 SWAP1 POP CALLVALUE PUSH2 0x689 JUMPI PUSH1 0x20 CALLDATASIZE PUSH1 0x3 NOT ADD SLT PUSH2 0x689 JUMPI DUP2 CALLDATALOAD SWAP2 PUSH2 0x503 PUSH2 0x1F00 JUMP JUMPDEST PUSH2 0x50B PUSH2 0x1F30 JUMP JUMPDEST DUP3 DUP5 MSTORE PUSH1 0x2 PUSH1 0x20 MSTORE DUP2 DUP5 KECCAK256 PUSH1 0x1 DUP2 ADD SLOAD SWAP1 SWAP3 SWAP1 PUSH1 0x1 PUSH1 0x1 PUSH1 0xA0 SHL SUB AND CALLER SUB PUSH2 0x631 JUMPI PUSH1 0x3 DUP4 ADD SWAP2 DUP3 SLOAD SWAP2 PUSH1 0xFF DUP4 AND PUSH1 0x5 DUP2 LT ISZERO PUSH2 0x61E JUMPI DUP1 ISZERO SWAP1 DUP2 ISZERO PUSH2 0x613 JUMPI JUMPDEST POP ISZERO PUSH2 0x5C5 JUMPI POP POP PUSH1 0xFF NOT AND PUSH1 0x2 SWAP1 DUP2 OR SWAP1 SWAP2 SSTORE TIMESTAMP PUSH1 0x5 DUP4 ADD SSTORE PUSH10 0x21E19E0C9BAB2400000 SWAP2 CALLER DUP5 PUSH32 0xBB5889C77948BADF90E8A5C73D55265E5F5D6E4837A79A78C5669691B897FAED DUP8 DUP1 LOG3 ADD SLOAD LT PUSH2 0x5B6 JUMPI JUMPDEST POP PUSH1 0x1 PUSH1 0x0 DUP1 MLOAD PUSH1 0x20 PUSH2 0x220D DUP4 CODECOPY DUP2 MLOAD SWAP2 MSTORE SSTORE DUP1 RETURN JUMPDEST PUSH2 0x5BF SWAP1 PUSH2 0x1F5B JUMP JUMPDEST CODESIZE PUSH2 0x5A0 JUMP JUMPDEST SWAP1 PUSH1 0x20 PUSH1 0x84 SWAP3 MLOAD SWAP2 PUSH3 0x461BCD PUSH1 0xE5 SHL DUP4 MSTORE DUP3 ADD MSTORE PUSH1 0x22 PUSH1 0x24 DUP3 ADD MSTORE PUSH32 0x50726F6A656374457363726F773A20696E76616C6964207461736B2073746174 PUSH1 0x44 DUP3 ADD MSTORE PUSH2 0x7573 PUSH1 0xF0 SHL PUSH1 0x64 DUP3 ADD MSTORE REVERT JUMPDEST PUSH1 0x1 SWAP2 POP EQ CODESIZE PUSH2 0x54C JUMP JUMPDEST PUSH4 0x4E487B71 PUSH1 0xE0 SHL DUP9 MSTORE PUSH1 0x21 DUP4 MSTORE PUSH1 0x24 DUP9 REVERT JUMPDEST SWAP1 PUSH1 0x20 PUSH1 0x84 SWAP3 MLOAD SWAP2 PUSH3 0x461BCD PUSH1 0xE5 SHL DUP4 MSTORE DUP3 ADD MSTORE PUSH1 0x2C PUSH1 0x24 DUP3 ADD MSTORE PUSH32 0x50726F6A656374457363726F773A206F6E6C7920776F726B65722063616E2063 PUSH1 0x44 DUP3 ADD MSTORE PUSH12 0x6F6D706C657465207461736B PUSH1 0xA0 SHL PUSH1 0x64 DUP3 ADD MSTORE REVERT JUMPDEST DUP3 DUP1 REVERT JUMPDEST SWAP2 SWAP1 POP CALLVALUE PUSH2 0x689 JUMPI PUSH1 0x20 SWAP1 DUP2 PUSH1 0x3 NOT CALLDATASIZE ADD SLT PUSH2 0x862 JUMPI DUP3 CALLDATALOAD SWAP3 PUSH32 0x408A36151F841709116A4E8ACA4E0202874F7F54687DCB863B1EA4672DC9D8CF DUP1 DUP7 MSTORE PUSH1 0x0 DUP1 MLOAD PUSH1 0x20 PUSH2 0x21CD DUP4 CODECOPY DUP2 MLOAD SWAP2 MSTORE DUP5 MSTORE DUP3 DUP7 KECCAK256 CALLER DUP8 MSTORE DUP5 MSTORE PUSH1 0xFF DUP4 DUP8 KECCAK256 SLOAD AND ISZERO PUSH2 0x847 JUMPI POP DUP4 DUP6 MSTORE PUSH1 0x2 DUP4 MSTORE DUP2 DUP6 KECCAK256 SWAP3 PUSH1 0xFF PUSH1 0x3 DUP6 ADD SLOAD AND PUSH1 0x5 DUP2 LT ISZERO PUSH2 0x834 JUMPI PUSH1 0x2 PUSH2 0x718 SWAP2 EQ PUSH2 0x1A43 JUMP JUMPDEST PUSH1 0x7 DUP5 ADD SWAP2 CALLER DUP8 MSTORE DUP3 DUP3 MSTORE PUSH1 0xFF DUP5 DUP9 KECCAK256 SLOAD AND PUSH2 0x7F3 JUMPI PUSH10 0x21E19E0C9BAB2400000 PUSH1 0x2 DUP7 ADD SLOAD LT PUSH2 0x7A6 JUMPI POP CALLER DUP7 MSTORE MSTORE DUP4 KECCAK256 DUP1 SLOAD PUSH1 0xFF NOT AND PUSH1 0x1 OR SWAP1 SSTORE PUSH1 0x6 ADD DUP1 SLOAD PUSH1 0x2 SWAP2 SWAP1 PUSH2 0x767 SWAP1 PUSH2 0x1A27 JUMP JUMPDEST DUP1 SWAP2 SSTORE CALLER DUP4 PUSH32 0x7C0257138BC682DCFF9EB84D702BF9118B11A37AB9AF95828EA7332C078EB93F DUP7 DUP1 LOG3 LT ISZERO PUSH2 0x79A JUMPI POP DUP1 RETURN JUMPDEST PUSH2 0x7A3 SWAP1 PUSH2 0x1F5B JUMP JUMPDEST DUP1 RETURN JUMPDEST PUSH1 0x84 SWAP2 DUP5 MLOAD SWAP2 PUSH3 0x461BCD PUSH1 0xE5 SHL DUP4 MSTORE DUP3 ADD MSTORE PUSH1 0x24 DUP1 DUP3 ADD MSTORE PUSH32 0x50726F6A656374457363726F773A20617070726F76616C206E6F742072657175 PUSH1 0x44 DUP3 ADD MSTORE PUSH4 0x1A5C9959 PUSH1 0xE2 SHL PUSH1 0x64 DUP3 ADD MSTORE REVERT JUMPDEST PUSH1 0x64 SWAP2 DUP5 MLOAD SWAP2 PUSH3 0x461BCD PUSH1 0xE5 SHL DUP4 MSTORE DUP3 ADD MSTORE PUSH1 0x1F PUSH1 0x24 DUP3 ADD MSTORE PUSH32 0x50726F6A656374457363726F773A20616C726561647920617070726F76656400 PUSH1 0x44 DUP3 ADD MSTORE REVERT JUMPDEST PUSH4 0x4E487B71 PUSH1 0xE0 SHL DUP8 MSTORE PUSH1 0x21 DUP4 MSTORE PUSH1 0x24 DUP8 REVERT JUMPDEST PUSH1 0x44 SWAP3 MLOAD SWAP2 PUSH4 0xE2517D3F PUSH1 0xE0 SHL DUP4 MSTORE CALLER SWAP1 DUP4 ADD MSTORE PUSH1 0x24 DUP3 ADD MSTORE REVERT JUMPDEST DUP4 DUP1 REVERT JUMPDEST DUP4 DUP4 CALLVALUE PUSH2 0x1B8 JUMPI PUSH1 0x20 DUP1 PUSH1 0x3 NOT CALLDATASIZE ADD SLT PUSH2 0x689 JUMPI DUP4 CALLDATALOAD SWAP1 PUSH2 0x885 PUSH2 0x1F00 JUMP JUMPDEST PUSH2 0x88D PUSH2 0x1F30 JUMP JUMPDEST DUP2 DUP5 MSTORE PUSH1 0x1 DUP2 MSTORE DUP3 DUP5 KECCAK256 DUP1 SLOAD PUSH1 0x1 PUSH1 0x1 PUSH1 0xA0 SHL SUB SWAP1 DUP2 AND SWAP7 SWAP2 CALLER DUP9 SUB PUSH2 0xA40 JUMPI PUSH1 0x6 DUP2 ADD SLOAD DUP1 ISZERO PUSH2 0x9F1 JUMPI PUSH3 0x15180 DUP2 ADD DUP1 SWAP2 GT PUSH2 0x9DE JUMPI TIMESTAMP LT PUSH2 0x98F JUMPI PUSH2 0x8DE PUSH1 0x1 DUP3 ADD SLOAD PUSH1 0x2 DUP4 ADD SLOAD SWAP1 PUSH2 0x19A3 JUMP JUMPDEST SWAP3 DUP4 ISZERO PUSH2 0x942 JUMPI DUP4 PUSH32 0x79FF6A60B3E21B3630B207E2A7B0B50B69B197D3D7CA776108ED2AFB8FBAC8DC SWAP7 SWAP8 SWAP9 SWAP10 PUSH2 0x925 SWAP3 DUP5 ADD PUSH1 0x1 PUSH1 0xFF NOT DUP3 SLOAD AND OR SWAP1 SSTORE DUP5 DUP12 SLOAD AND PUSH2 0x1B24 JUMP JUMPDEST SLOAD AND SWAP5 MLOAD SWAP1 DUP2 MSTORE LOG3 PUSH1 0x1 PUSH1 0x0 DUP1 MLOAD PUSH1 0x20 PUSH2 0x220D DUP4 CODECOPY DUP2 MLOAD SWAP2 MSTORE SSTORE DUP1 RETURN JUMPDEST DUP7 MLOAD PUSH3 0x461BCD PUSH1 0xE5 SHL DUP2 MSTORE SWAP1 DUP2 ADD DUP6 SWAP1 MSTORE PUSH1 0x21 PUSH1 0x24 DUP3 ADD MSTORE PUSH32 0x50726F6A656374457363726F773A206E6F2066756E647320746F20726566756E PUSH1 0x44 DUP3 ADD MSTORE PUSH1 0x19 PUSH1 0xFA SHL PUSH1 0x64 DUP3 ADD MSTORE PUSH1 0x84 SWAP1 REVERT JUMPDEST DUP6 MLOAD PUSH3 0x461BCD PUSH1 0xE5 SHL DUP2 MSTORE DUP1 DUP5 ADD DUP6 SWAP1 MSTORE PUSH1 0x23 PUSH1 0x24 DUP3 ADD MSTORE PUSH32 0x50726F6A656374457363726F773A2074696D656C6F636B206E6F742065787069 PUSH1 0x44 DUP3 ADD MSTORE PUSH3 0x1C9959 PUSH1 0xEA SHL PUSH1 0x64 DUP3 ADD MSTORE PUSH1 0x84 SWAP1 REVERT JUMPDEST PUSH4 0x4E487B71 PUSH1 0xE0 SHL DUP9 MSTORE PUSH1 0x11 DUP5 MSTORE PUSH1 0x24 DUP9 REVERT JUMPDEST DUP7 MLOAD PUSH3 0x461BCD PUSH1 0xE5 SHL DUP2 MSTORE DUP1 DUP6 ADD DUP7 SWAP1 MSTORE PUSH1 0x23 PUSH1 0x24 DUP3 ADD MSTORE PUSH32 0x50726F6A656374457363726F773A20726566756E64206E6F7420726571756573 PUSH1 0x44 DUP3 ADD MSTORE PUSH3 0x1D1959 PUSH1 0xEA SHL PUSH1 0x64 DUP3 ADD MSTORE PUSH1 0x84 SWAP1 REVERT JUMPDEST DUP6 MLOAD PUSH3 0x461BCD PUSH1 0xE5 SHL DUP2 MSTORE DUP1 DUP5 ADD DUP6 SWAP1 MSTORE PUSH1 0x2F PUSH1 0x24 DUP3 ADD MSTORE PUSH32 0x50726F6A656374457363726F773A206F6E6C7920656D706C6F7965722063616E PUSH1 0x44 DUP3 ADD MSTORE PUSH15 0x81C1C9BD8D95CDCC81C99599D5B99 PUSH1 0x8A SHL PUSH1 0x64 DUP3 ADD MSTORE PUSH1 0x84 SWAP1 REVERT JUMPDEST SWAP2 SWAP1 POP CALLVALUE PUSH2 0x689 JUMPI DUP1 PUSH1 0x3 NOT CALLDATASIZE ADD SLT PUSH2 0x689 JUMPI PUSH2 0xAE4 SWAP2 CALLDATALOAD PUSH2 0xADF PUSH1 0x1 PUSH2 0xAC0 PUSH2 0x18C8 JUMP JUMPDEST SWAP4 DUP4 DUP8 MSTORE PUSH1 0x0 DUP1 MLOAD PUSH1 0x20 PUSH2 0x21CD DUP4 CODECOPY DUP2 MLOAD SWAP2 MSTORE PUSH1 0x20 MSTORE DUP7 KECCAK256 ADD SLOAD PUSH2 0x1AF1 JUMP JUMPDEST PUSH2 0x1E7D JUMP JUMPDEST POP DUP1 RETURN JUMPDEST SWAP1 POP CALLVALUE PUSH2 0x689 JUMPI DUP3 PUSH1 0x3 NOT CALLDATASIZE ADD SLT PUSH2 0x689 JUMPI DUP2 MLOAD SWAP1 DUP3 DUP3 ADD SWAP1 DUP3 DUP3 LT PUSH8 0xFFFFFFFFFFFFFFFF DUP4 GT OR PUSH2 0xB74 JUMPI POP DUP3 MSTORE PUSH1 0x5 DUP2 MSTORE PUSH1 0x20 SWAP1 PUSH5 0x352E302E3 PUSH1 0xDC SHL PUSH1 0x20 DUP3 ADD MSTORE DUP3 MLOAD SWAP4 DUP5 SWAP3 PUSH1 0x20 DUP5 MSTORE DUP3 MLOAD SWAP3 DUP4 PUSH1 0x20 DUP7 ADD MSTORE DUP3 JUMPDEST DUP5 DUP2 LT PUSH2 0xB5E JUMPI POP POP POP DUP3 DUP3 ADD DUP5 ADD MSTORE PUSH1 0x1F ADD PUSH1 0x1F NOT AND DUP2 ADD SUB ADD SWAP1 RETURN JUMPDEST DUP2 DUP2 ADD DUP4 ADD MLOAD DUP9 DUP3 ADD DUP9 ADD MSTORE DUP8 SWAP6 POP DUP3 ADD PUSH2 0xB40 JUMP JUMPDEST PUSH4 0x4E487B71 PUSH1 0xE0 SHL DUP6 MSTORE PUSH1 0x41 SWAP1 MSTORE PUSH1 0x24 DUP5 REVERT JUMPDEST SWAP2 SWAP1 POP CALLVALUE PUSH2 0x689 JUMPI PUSH1 0x20 CALLDATASIZE PUSH1 0x3 NOT ADD SLT PUSH2 0x689 JUMPI DUP2 CALLDATALOAD SWAP2 PUSH2 0xBA6 PUSH2 0x1F00 JUMP JUMPDEST DUP3 DUP5 MSTORE PUSH1 0x1 PUSH1 0x20 MSTORE DUP2 DUP5 KECCAK256 DUP1 SLOAD PUSH1 0x1 PUSH1 0x1 PUSH1 0xA0 SHL SUB AND CALLER SUB PUSH2 0xC91 JUMPI PUSH1 0xFF DUP3 DUP3 ADD SLOAD AND PUSH1 0x3 DUP2 LT ISZERO PUSH2 0xC7E JUMPI SWAP1 PUSH2 0xBDF PUSH1 0x6 SWAP3 ISZERO PUSH2 0x194D JUMP JUMPDEST ADD SWAP1 DUP2 SLOAD PUSH2 0xC2B JUMPI POP TIMESTAMP SWAP1 SSTORE MLOAD SWAP1 TIMESTAMP DUP3 MSTORE PUSH32 0x6706020A65600B3496005CFD282DBBD692A827197E34C20E4A0FC2FA21D3EFF2 PUSH1 0x20 CALLER SWAP4 LOG3 PUSH1 0x1 PUSH1 0x0 DUP1 MLOAD PUSH1 0x20 PUSH2 0x220D DUP4 CODECOPY DUP2 MLOAD SWAP2 MSTORE SSTORE DUP1 RETURN JUMPDEST PUSH1 0x84 SWAP1 PUSH1 0x20 DUP5 MLOAD SWAP2 PUSH3 0x461BCD PUSH1 0xE5 SHL DUP4 MSTORE DUP3 ADD MSTORE PUSH1 0x27 PUSH1 0x24 DUP3 ADD MSTORE PUSH32 0x50726F6A656374457363726F773A20726566756E6420616C7265616479207265 PUSH1 0x44 DUP3 ADD MSTORE PUSH7 0x1C5D595CDD1959 PUSH1 0xCA SHL PUSH1 0x64 DUP3 ADD MSTORE REVERT JUMPDEST PUSH4 0x4E487B71 PUSH1 0xE0 SHL DUP7 MSTORE PUSH1 0x21 DUP4 MSTORE PUSH1 0x24 DUP7 REVERT JUMPDEST POP PUSH1 0x20 PUSH1 0x84 SWAP3 MLOAD SWAP2 PUSH3 0x461BCD PUSH1 0xE5 SHL DUP4 MSTORE DUP3 ADD MSTORE PUSH1 0x2F PUSH1 0x24 DUP3 ADD MSTORE PUSH32 0x50726F6A656374457363726F773A206F6E6C7920656D706C6F7965722063616E PUSH1 0x44 DUP3 ADD MSTORE PUSH15 0x81C995C5D595CDD081C99599D5B99 PUSH1 0x8A SHL PUSH1 0x64 DUP3 ADD MSTORE REVERT JUMPDEST POP POP CALLVALUE PUSH2 0x1B8 JUMPI DUP2 PUSH1 0x3 NOT CALLDATASIZE ADD SLT PUSH2 0x1B8 JUMPI MLOAD SWAP1 DUP2 MSTORE PUSH1 0x20 SWAP1 RETURN JUMPDEST SWAP1 POP CALLVALUE PUSH2 0x689 JUMPI DUP2 PUSH1 0x3 NOT CALLDATASIZE ADD SLT PUSH2 0x689 JUMPI DUP2 PUSH1 0x20 SWAP4 PUSH1 0xFF SWAP3 PUSH2 0xD28 PUSH2 0x18C8 JUMP JUMPDEST SWAP1 CALLDATALOAD DUP3 MSTORE PUSH1 0x0 DUP1 MLOAD PUSH1 0x20 PUSH2 0x21CD DUP4 CODECOPY DUP2 MLOAD SWAP2 MSTORE DUP7 MSTORE DUP3 DUP3 KECCAK256 PUSH1 0x1 PUSH1 0x1 PUSH1 0xA0 SHL SUB SWAP1 SWAP2 AND DUP3 MSTORE DUP6 MSTORE KECCAK256 SLOAD SWAP2 MLOAD SWAP2 AND ISZERO ISZERO DUP2 MSTORE RETURN JUMPDEST DUP3 DUP5 CALLVALUE PUSH2 0x256 JUMPI PUSH1 0x20 CALLDATASIZE PUSH1 0x3 NOT ADD SLT PUSH2 0x256 JUMPI DUP2 PUSH2 0x252 SWAP2 DUP5 CALLDATALOAD DUP2 MSTORE PUSH1 0x2 PUSH1 0x20 MSTORE KECCAK256 SWAP2 DUP3 SLOAD SWAP3 PUSH1 0x1 DUP1 PUSH1 0xA0 SHL SUB PUSH1 0x1 DUP3 ADD SLOAD AND SWAP5 PUSH1 0x2 DUP3 ADD SLOAD SWAP1 PUSH1 0xFF PUSH1 0x3 DUP5 ADD SLOAD AND SWAP1 DUP4 ADD SLOAD SWAP2 PUSH1 0x6 PUSH1 0x5 DUP6 ADD SLOAD SWAP5 ADD SLOAD SWAP5 MLOAD SWAP8 DUP9 SWAP8 DUP9 PUSH2 0x1887 JUMP JUMPDEST POP POP CALLVALUE PUSH2 0x1B8 JUMPI DUP2 PUSH1 0x3 NOT CALLDATASIZE ADD SLT PUSH2 0x1B8 JUMPI PUSH1 0x20 PUSH32 0x62E78CEA01BEE320CD4E420270B5EA74000D11B0C9F74754EBDBFC544B05A258 SWAP2 PUSH2 0xDF5 PUSH2 0x1A99 JUMP JUMPDEST PUSH2 0xDFD PUSH2 0x1F30 JUMP JUMPDEST PUSH1 0x0 DUP1 MLOAD PUSH1 0x20 PUSH2 0x21ED DUP4 CODECOPY DUP2 MLOAD SWAP2 MSTORE DUP1 SLOAD PUSH1 0xFF NOT AND PUSH1 0x1 OR SWAP1 SSTORE MLOAD CALLER DUP2 MSTORE LOG1 DUP1 RETURN JUMPDEST DUP4 DUP4 CALLVALUE PUSH2 0x1B8 JUMPI PUSH1 0x20 CALLDATASIZE PUSH1 0x3 NOT ADD SLT PUSH2 0x1B8 JUMPI DUP3 CALLDATALOAD PUSH2 0xE3C PUSH2 0x1F00 JUMP JUMPDEST PUSH2 0xE44 PUSH2 0x1F30 JUMP JUMPDEST PUSH2 0xE4F DUP2 ISZERO ISZERO PUSH2 0x19C6 JUMP JUMPDEST PUSH2 0xE5A PUSH1 0x3 SLOAD PUSH2 0x1A27 JUMP JUMPDEST SWAP3 DUP4 PUSH1 0x3 SSTORE DUP4 DUP2 MSTORE PUSH1 0x1 PUSH1 0x20 MSTORE DUP3 DUP2 KECCAK256 CALLER PUSH12 0xFFFFFFFFFFFFFFFFFFFFFFFF PUSH1 0xA0 SHL DUP3 SLOAD AND OR DUP2 SSTORE DUP3 PUSH1 0x1 DUP3 ADD SSTORE DUP6 DUP2 ADD PUSH1 0xFF NOT DUP2 SLOAD AND SWAP1 SSTORE PUSH1 0x5 TIMESTAMP SWAP2 ADD SSTORE PUSH1 0x1 DUP1 PUSH1 0xA0 SHL SUB DUP2 SLOAD AND DUP4 MLOAD SWAP2 PUSH4 0x23B872DD PUSH1 0xE0 SHL PUSH1 0x20 DUP5 ADD MSTORE CALLER PUSH1 0x24 DUP5 ADD MSTORE ADDRESS PUSH1 0x44 DUP5 ADD MSTORE DUP4 PUSH1 0x64 DUP5 ADD MSTORE PUSH1 0x64 DUP4 MSTORE PUSH1 0xA0 DUP4 ADD SWAP1 DUP4 DUP3 LT PUSH8 0xFFFFFFFFFFFFFFFF DUP4 GT OR PUSH2 0xF34 JUMPI POP DUP5 MSTORE PUSH1 0x20 SWAP6 POP PUSH2 0xEF1 SWAP2 SWAP1 PUSH2 0x20A0 JUMP JUMPDEST DUP2 MLOAD SWAP1 DUP2 MSTORE DUP3 PUSH32 0x6251418FFD7F504740544EC3D578897633E212C5D658B7DCE793C5DC9D2E855E DUP6 CALLER SWAP4 LOG3 PUSH1 0x1 PUSH1 0x0 DUP1 MLOAD PUSH1 0x20 PUSH2 0x220D DUP4 CODECOPY DUP2 MLOAD SWAP2 MSTORE SSTORE MLOAD SWAP1 DUP2 MSTORE RETURN JUMPDEST PUSH4 0x4E487B71 PUSH1 0xE0 SHL DUP2 MSTORE PUSH1 0x41 DUP9 MSTORE PUSH1 0x24 SWAP1 REVERT JUMPDEST POP POP CALLVALUE PUSH2 0x1B8 JUMPI DUP2 PUSH1 0x3 NOT CALLDATASIZE ADD SLT PUSH2 0x1B8 JUMPI PUSH1 0x20 SWAP1 PUSH1 0xFF PUSH1 0x0 DUP1 MLOAD PUSH1 0x20 PUSH2 0x21ED DUP4 CODECOPY DUP2 MLOAD SWAP2 MSTORE SLOAD AND SWAP1 MLOAD SWAP1 ISZERO ISZERO DUP2 MSTORE RETURN JUMPDEST POP POP CALLVALUE PUSH2 0x1B8 JUMPI DUP2 PUSH1 0x3 NOT CALLDATASIZE ADD SLT PUSH2 0x1B8 JUMPI PUSH1 0x20 SWAP1 MLOAD PUSH1 0x2 DUP2 MSTORE RETURN JUMPDEST SWAP1 POP CALLVALUE PUSH2 0x689 JUMPI DUP3 PUSH1 0x3 NOT CALLDATASIZE ADD SLT PUSH2 0x689 JUMPI PUSH1 0x20 SWAP3 POP SLOAD SWAP1 MLOAD SWAP1 DUP2 MSTORE RETURN JUMPDEST DUP3 DUP5 CALLVALUE PUSH2 0x256 JUMPI DUP1 PUSH1 0x3 NOT CALLDATASIZE ADD SLT PUSH2 0x256 JUMPI POP PUSH32 0x0 PUSH1 0x1 PUSH1 0x1 PUSH1 0xA0 SHL SUB AND ADDRESS SUB PUSH2 0x101E JUMPI PUSH1 0x20 SWAP1 MLOAD PUSH32 0x360894A13BA1A3210667C828492DB98DCA3E2076CC3735A920A3CA505D382BBC DUP2 MSTORE RETURN JUMPDEST MLOAD PUSH4 0x703E46DD PUSH1 0xE1 SHL DUP2 MSTORE REVERT JUMPDEST SWAP2 DUP1 SWAP2 POP PUSH1 0x3 NOT CALLDATASIZE ADD SLT PUSH2 0x689 JUMPI PUSH2 0x1041 PUSH2 0x18E3 JUMP JUMPDEST SWAP1 PUSH1 0x24 SWAP4 DUP5 CALLDATALOAD PUSH8 0xFFFFFFFFFFFFFFFF DUP2 GT PUSH2 0x1B8 JUMPI CALLDATASIZE PUSH1 0x23 DUP3 ADD SLT ISZERO PUSH2 0x1B8 JUMPI DUP1 DUP6 ADD CALLDATALOAD PUSH2 0x106E DUP2 PUSH2 0x1931 JUMP JUMPDEST SWAP5 PUSH2 0x107B DUP6 MLOAD SWAP7 DUP8 PUSH2 0x18F9 JUMP JUMPDEST DUP2 DUP7 MSTORE PUSH1 0x20 SWAP2 DUP3 DUP8 ADD SWAP4 CALLDATASIZE DUP11 DUP4 DUP4 ADD ADD GT PUSH2 0x12ED JUMPI DUP2 DUP7 SWAP3 DUP12 DUP7 SWAP4 ADD DUP8 CALLDATACOPY DUP9 ADD ADD MSTORE PUSH1 0x1 PUSH1 0x1 PUSH1 0xA0 SHL SUB PUSH32 0x0 DUP2 AND ADDRESS DUP2 EQ SWAP1 DUP2 ISZERO PUSH2 0x12BF JUMPI JUMPDEST POP PUSH2 0x12AF JUMPI PUSH32 0x189AB7A9244DF0848122154315AF71FE140F3DB0FE014031783B0946B8C9D2E3 DUP1 DUP7 MSTORE PUSH1 0x0 DUP1 MLOAD PUSH1 0x20 PUSH2 0x21CD DUP4 CODECOPY DUP2 MLOAD SWAP2 MSTORE DUP5 MSTORE DUP7 DUP7 KECCAK256 CALLER DUP8 MSTORE DUP5 MSTORE PUSH1 0xFF DUP8 DUP8 KECCAK256 SLOAD AND ISZERO PUSH2 0x1292 JUMPI POP DUP2 AND SWAP6 DUP6 MLOAD PUSH4 0x52D1902D PUSH1 0xE0 SHL DUP2 MSTORE DUP4 DUP2 DUP11 DUP2 DUP12 GAS STATICCALL DUP7 SWAP2 DUP2 PUSH2 0x125F JUMPI JUMPDEST POP PUSH2 0x115C JUMPI POP POP POP POP POP POP MLOAD SWAP2 PUSH4 0x4C9C8CE3 PUSH1 0xE0 SHL DUP4 MSTORE DUP3 ADD MSTORE REVERT JUMPDEST SWAP1 DUP9 DUP9 DUP9 SWAP5 SWAP4 DUP13 PUSH32 0x360894A13BA1A3210667C828492DB98DCA3E2076CC3735A920A3CA505D382BBC SWAP2 DUP3 DUP2 SUB PUSH2 0x124A JUMPI POP DUP6 EXTCODESIZE ISZERO PUSH2 0x1236 JUMPI POP DUP1 SLOAD PUSH1 0x1 PUSH1 0x1 PUSH1 0xA0 SHL SUB NOT AND DUP3 OR SWAP1 SSTORE DUP5 MLOAD DUP9 SWAP4 SWAP3 SWAP2 PUSH32 0xBC7CD75A20EE27FD9ADEBAB32041F755214DBC6BFFA90CC0225B39DA2E5C2D3B DUP6 DUP1 LOG2 DUP3 MLOAD ISZERO PUSH2 0x1218 JUMPI POP POP PUSH2 0xAE4 SWAP6 DUP3 SWAP2 MLOAD SWAP1 DUP5 GAS DELEGATECALL SWAP2 RETURNDATASIZE ISZERO PUSH2 0x120E JUMPI RETURNDATASIZE PUSH2 0x1200 PUSH2 0x11F7 DUP3 PUSH2 0x1931 JUMP JUMPDEST SWAP3 MLOAD SWAP3 DUP4 PUSH2 0x18F9 JUMP JUMPDEST DUP2 MSTORE DUP6 DUP2 SWAP5 RETURNDATASIZE SWAP3 ADD RETURNDATACOPY PUSH2 0x2149 JUMP JUMPDEST POP PUSH1 0x60 SWAP3 POP PUSH2 0x2149 JUMP JUMPDEST SWAP6 POP SWAP6 POP POP POP POP POP CALLVALUE PUSH2 0x122A JUMPI POP POP DUP1 RETURN JUMPDEST PUSH4 0xB398979F PUSH1 0xE0 SHL DUP2 MSTORE REVERT JUMPDEST DUP7 MLOAD PUSH4 0x4C9C8CE3 PUSH1 0xE0 SHL DUP2 MSTORE DUP1 DUP6 ADD DUP5 SWAP1 MSTORE REVERT JUMPDEST DUP8 MLOAD PUSH4 0x2A875269 PUSH1 0xE2 SHL DUP2 MSTORE DUP1 DUP7 ADD SWAP2 SWAP1 SWAP2 MSTORE REVERT JUMPDEST SWAP1 SWAP2 POP DUP5 DUP2 DUP2 RETURNDATASIZE DUP4 GT PUSH2 0x128B JUMPI JUMPDEST PUSH2 0x1277 DUP2 DUP4 PUSH2 0x18F9 JUMP JUMPDEST DUP2 ADD SUB SLT PUSH2 0x1287 JUMPI MLOAD SWAP1 CODESIZE PUSH2 0x1140 JUMP JUMPDEST DUP7 DUP1 REVERT JUMPDEST POP RETURNDATASIZE PUSH2 0x126D JUMP JUMPDEST DUP7 MLOAD PUSH4 0xE2517D3F PUSH1 0xE0 SHL DUP2 MSTORE CALLER DUP2 DUP12 ADD MSTORE DUP1 DUP12 ADD SWAP2 SWAP1 SWAP2 MSTORE PUSH1 0x44 SWAP1 REVERT JUMPDEST DUP6 MLOAD PUSH4 0x703E46DD PUSH1 0xE1 SHL DUP2 MSTORE DUP9 SWAP1 REVERT JUMPDEST SWAP1 POP DUP2 PUSH32 0x360894A13BA1A3210667C828492DB98DCA3E2076CC3735A920A3CA505D382BBC SLOAD AND EQ ISZERO CODESIZE PUSH2 0x10D3 JUMP JUMPDEST DUP6 DUP1 REVERT JUMPDEST SWAP1 POP CALLVALUE PUSH2 0x689 JUMPI DUP2 PUSH1 0x3 NOT CALLDATASIZE ADD SLT PUSH2 0x689 JUMPI PUSH2 0x130B PUSH2 0x18E3 JUMP JUMPDEST SWAP1 PUSH2 0x1314 PUSH2 0x18C8 JUMP JUMPDEST PUSH32 0xF0C57E16840DF040F15088DC2F81FE391C3923BEC73E23A9662EFC9C229C6A00 SWAP3 DUP4 SLOAD SWAP3 PUSH1 0xFF DUP5 DUP8 SHR AND ISZERO SWAP4 PUSH8 0xFFFFFFFFFFFFFFFF DUP2 AND DUP1 ISZERO SWAP1 DUP2 PUSH2 0x153D JUMPI JUMPDEST PUSH1 0x1 EQ SWAP1 DUP2 PUSH2 0x1533 JUMPI JUMPDEST ISZERO SWAP1 DUP2 PUSH2 0x152A JUMPI JUMPDEST POP PUSH2 0x151B JUMPI PUSH8 0xFFFFFFFFFFFFFFFF NOT DUP2 AND PUSH1 0x1 OR DUP7 SSTORE DUP5 PUSH2 0x14FC JUMPI JUMPDEST POP PUSH1 0x1 PUSH1 0x1 PUSH1 0xA0 SHL SUB SWAP2 DUP3 AND SWAP2 DUP3 ISZERO PUSH2 0x14A8 JUMPI DUP4 AND ISZERO PUSH2 0x1459 JUMPI POP SWAP1 PUSH2 0x140F SWAP2 PUSH2 0x13AB PUSH2 0x2108 JUMP JUMPDEST PUSH2 0x13B3 PUSH2 0x2108 JUMP JUMPDEST PUSH2 0x13BB PUSH2 0x2108 JUMP JUMPDEST PUSH2 0x13C3 PUSH2 0x2108 JUMP JUMPDEST PUSH1 0x1 PUSH1 0x0 DUP1 MLOAD PUSH1 0x20 PUSH2 0x220D DUP4 CODECOPY DUP2 MLOAD SWAP2 MSTORE SSTORE PUSH2 0x13DD PUSH2 0x2108 JUMP JUMPDEST DUP7 SLOAD PUSH1 0x1 PUSH1 0x1 PUSH1 0xA0 SHL SUB NOT AND OR DUP7 SSTORE PUSH2 0x13F5 DUP2 PUSH2 0x1B76 JUMP JUMPDEST POP PUSH2 0x13FF DUP2 PUSH2 0x1C04 JUMP JUMPDEST POP PUSH2 0x1409 DUP2 PUSH2 0x1CB4 JUMP JUMPDEST POP PUSH2 0x1D5E JUMP JUMPDEST POP PUSH2 0x1418 JUMPI DUP3 DUP1 RETURN JUMPDEST DUP1 SLOAD PUSH9 0xFF0000000000000000 NOT AND SWAP1 SSTORE MLOAD PUSH1 0x1 DUP2 MSTORE PUSH32 0xC7F505B2F371AE2175EE4913F4499E1F2633A7B5936321EED1CDAEB6115181D2 SWAP1 PUSH1 0x20 SWAP1 LOG1 CODESIZE DUP1 DUP3 DUP1 RETURN JUMPDEST PUSH1 0x84 SWAP1 PUSH1 0x20 DUP8 MLOAD SWAP2 PUSH3 0x461BCD PUSH1 0xE5 SHL DUP4 MSTORE DUP3 ADD MSTORE PUSH1 0x24 DUP1 DUP3 ADD MSTORE PUSH32 0x50726F6A656374457363726F773A2061646D696E206973207A65726F20616464 PUSH1 0x44 DUP3 ADD MSTORE PUSH4 0x72657373 PUSH1 0xE0 SHL PUSH1 0x64 DUP3 ADD MSTORE REVERT JUMPDEST DUP7 MLOAD PUSH3 0x461BCD PUSH1 0xE5 SHL DUP2 MSTORE PUSH1 0x20 DUP2 DUP5 ADD MSTORE PUSH1 0x28 PUSH1 0x24 DUP3 ADD MSTORE PUSH32 0x50726F6A656374457363726F773A2046494E20746F6B656E206973207A65726F PUSH1 0x44 DUP3 ADD MSTORE PUSH8 0x2061646472657373 PUSH1 0xC0 SHL PUSH1 0x64 DUP3 ADD MSTORE PUSH1 0x84 SWAP1 REVERT JUMPDEST PUSH9 0xFFFFFFFFFFFFFFFFFF NOT AND PUSH9 0x10000000000000001 OR DUP6 SSTORE CODESIZE PUSH2 0x1383 JUMP JUMPDEST POP DUP6 MLOAD PUSH4 0xF92EE8A9 PUSH1 0xE0 SHL DUP2 MSTORE REVERT JUMPDEST SWAP1 POP ISZERO CODESIZE PUSH2 0x1367 JUMP JUMPDEST ADDRESS EXTCODESIZE ISZERO SWAP2 POP PUSH2 0x135F JUMP JUMPDEST DUP7 SWAP2 POP PUSH2 0x1355 JUMP JUMPDEST POP POP CALLVALUE PUSH2 0x1B8 JUMPI DUP2 PUSH1 0x3 NOT CALLDATASIZE ADD SLT PUSH2 0x1B8 JUMPI PUSH1 0x20 SWAP1 MLOAD PUSH32 0x408A36151F841709116A4E8ACA4E0202874F7F54687DCB863B1EA4672DC9D8CF DUP2 MSTORE RETURN JUMPDEST SWAP1 POP CALLVALUE PUSH2 0x689 JUMPI DUP3 PUSH1 0x3 NOT CALLDATASIZE ADD SLT PUSH2 0x689 JUMPI PUSH2 0x159A PUSH2 0x1A99 JUMP JUMPDEST PUSH1 0x0 DUP1 MLOAD PUSH1 0x20 PUSH2 0x21ED DUP4 CODECOPY DUP2 MLOAD SWAP2 MSTORE SWAP1 DUP2 SLOAD SWAP1 PUSH1 0xFF DUP3 AND ISZERO PUSH2 0x15EA JUMPI POP PUSH1 0xFF NOT AND SWAP1 SSTORE MLOAD CALLER DUP2 MSTORE PUSH32 0x5DB9EE0A495BF2E6FF9C91A7834C1BA4FDD244A5E8AA4E537BD38AEAE4B073AA SWAP1 PUSH1 0x20 SWAP1 LOG1 DUP1 RETURN JUMPDEST DUP4 MLOAD PUSH4 0x8DFC202B PUSH1 0xE0 SHL DUP2 MSTORE REVERT JUMPDEST POP POP CALLVALUE PUSH2 0x1B8 JUMPI DUP2 PUSH1 0x3 NOT CALLDATASIZE ADD SLT PUSH2 0x1B8 JUMPI PUSH1 0x20 SWAP1 MLOAD PUSH3 0x15180 DUP2 MSTORE RETURN JUMPDEST POP POP CALLVALUE PUSH2 0x1B8 JUMPI DUP2 PUSH1 0x3 NOT CALLDATASIZE ADD SLT PUSH2 0x1B8 JUMPI PUSH1 0x20 SWAP1 MLOAD PUSH10 0x21E19E0C9BAB2400000 DUP2 MSTORE RETURN JUMPDEST DUP4 DUP4 CALLVALUE PUSH2 0x1B8 JUMPI DUP1 PUSH1 0x3 NOT CALLDATASIZE ADD SLT PUSH2 0x1B8 JUMPI PUSH2 0x1655 PUSH2 0x18C8 JUMP JUMPDEST SWAP1 CALLER PUSH1 0x1 PUSH1 0x1 PUSH1 0xA0 SHL SUB DUP4 AND SUB PUSH2 0x1672 JUMPI POP PUSH2 0xAE4 SWAP2 SWAP3 CALLDATALOAD PUSH2 0x1E7D JUMP JUMPDEST MLOAD PUSH4 0x334BD919 PUSH1 0xE1 SHL DUP2 MSTORE DUP4 SWAP1 REVERT JUMPDEST SWAP2 SWAP1 POP CALLVALUE PUSH2 0x689 JUMPI DUP1 PUSH1 0x3 NOT CALLDATASIZE ADD SLT PUSH2 0x689 JUMPI PUSH2 0xAE4 SWAP2 CALLDATALOAD PUSH2 0x16A6 PUSH1 0x1 PUSH2 0xAC0 PUSH2 0x18C8 JUMP JUMPDEST PUSH2 0x1E08 JUMP JUMPDEST SWAP1 POP CALLVALUE PUSH2 0x689 JUMPI PUSH1 0x20 CALLDATASIZE PUSH1 0x3 NOT ADD SLT PUSH2 0x689 JUMPI DUP1 CALLDATALOAD SWAP2 PUSH2 0x16C9 PUSH2 0x1A99 JUMP JUMPDEST DUP3 DUP5 MSTORE PUSH1 0x1 PUSH1 0x20 MSTORE DUP4 KECCAK256 SWAP1 DUP1 DUP3 ADD SWAP1 DUP2 SLOAD SWAP1 PUSH1 0xFF DUP3 AND SWAP1 PUSH1 0x3 DUP3 LT ISZERO PUSH2 0x176B JUMPI POP SWAP1 PUSH2 0x16F7 PUSH1 0x2 SWAP3 ISZERO PUSH2 0x194D JUMP JUMPDEST PUSH1 0xFF NOT AND OR SWAP1 SSTORE PUSH1 0x1 DUP2 ADD SLOAD PUSH1 0x3 DUP3 ADD SLOAD PUSH2 0x1711 SWAP2 PUSH2 0x19A3 JUMP JUMPDEST DUP1 PUSH2 0x174A JUMPI JUMPDEST POP SLOAD PUSH1 0x1 PUSH1 0x1 PUSH1 0xA0 SHL SUB AND SWAP1 PUSH32 0xAB770A3208518C5616AF297C14F45E2E7294DFFBB8B13FFF5213874B7A642072 DUP4 DUP1 LOG3 DUP1 RETURN JUMPDEST DUP4 SLOAD DUP3 SLOAD PUSH2 0x1765 SWAP3 SWAP2 PUSH1 0x1 PUSH1 0x1 PUSH1 0xA0 SHL SUB SWAP2 DUP3 AND SWAP2 AND PUSH2 0x1B24 JUMP JUMPDEST CODESIZE PUSH2 0x1717 JUMP JUMPDEST PUSH4 0x4E487B71 PUSH1 0xE0 SHL DUP8 MSTORE PUSH1 0x21 SWAP1 MSTORE PUSH1 0x24 DUP7 REVERT JUMPDEST SWAP1 POP CALLVALUE PUSH2 0x689 JUMPI PUSH1 0x20 CALLDATASIZE PUSH1 0x3 NOT ADD SLT PUSH2 0x689 JUMPI DUP2 PUSH1 0x20 SWAP4 PUSH1 0x1 SWAP3 CALLDATALOAD DUP2 MSTORE PUSH1 0x0 DUP1 MLOAD PUSH1 0x20 PUSH2 0x21CD DUP4 CODECOPY DUP2 MLOAD SWAP2 MSTORE DUP6 MSTORE KECCAK256 ADD SLOAD SWAP1 MLOAD SWAP1 DUP2 MSTORE RETURN JUMPDEST POP POP CALLVALUE PUSH2 0x1B8 JUMPI DUP2 PUSH1 0x3 NOT CALLDATASIZE ADD SLT PUSH2 0x1B8 JUMPI SWAP1 SLOAD SWAP1 MLOAD PUSH1 0x1 PUSH1 0x1 PUSH1 0xA0 SHL SUB SWAP1 SWAP2 AND DUP2 MSTORE PUSH1 0x20 SWAP1 RETURN JUMPDEST DUP5 SWAP2 CALLVALUE PUSH2 0x689 JUMPI PUSH1 0x20 CALLDATASIZE PUSH1 0x3 NOT ADD SLT PUSH2 0x689 JUMPI CALLDATALOAD PUSH4 0xFFFFFFFF PUSH1 0xE0 SHL DUP2 AND DUP1 SWAP2 SUB PUSH2 0x689 JUMPI PUSH1 0x20 SWAP3 POP PUSH4 0x7965DB0B PUSH1 0xE0 SHL DUP2 EQ SWAP1 DUP2 ISZERO PUSH2 0x1820 JUMPI JUMPDEST POP ISZERO ISZERO DUP2 MSTORE RETURN JUMPDEST PUSH4 0x1FFC9A7 PUSH1 0xE0 SHL EQ SWAP1 POP DUP4 PUSH2 0x1819 JUMP JUMPDEST SWAP4 SWAP2 SWAP8 SWAP7 SWAP6 SWAP3 SWAP1 SWAP8 PUSH1 0xE0 DUP6 ADD SWAP9 PUSH1 0x1 DUP1 PUSH1 0xA0 SHL SUB AND DUP6 MSTORE PUSH1 0x20 DUP6 ADD MSTORE PUSH1 0x40 DUP5 ADD MSTORE PUSH1 0x60 DUP4 ADD MSTORE PUSH1 0x3 DUP4 LT ISZERO PUSH2 0x1871 JUMPI PUSH1 0xC0 SWAP3 PUSH1 0x80 DUP4 ADD MSTORE PUSH1 0xA0 DUP3 ADD MSTORE ADD MSTORE JUMP JUMPDEST PUSH4 0x4E487B71 PUSH1 0xE0 SHL PUSH1 0x0 MSTORE PUSH1 0x21 PUSH1 0x4 MSTORE PUSH1 0x24 PUSH1 0x0 REVERT JUMPDEST SWAP4 SWAP5 SWAP2 SWAP8 SWAP7 SWAP6 SWAP3 SWAP1 SWAP8 PUSH1 0xE0 DUP6 ADD SWAP9 DUP6 MSTORE PUSH1 0x1 DUP1 PUSH1 0xA0 SHL SUB AND PUSH1 0x20 DUP6 ADD MSTORE PUSH1 0x40 DUP5 ADD MSTORE PUSH1 0x5 DUP5 LT ISZERO PUSH2 0x1871 JUMPI PUSH1 0xC0 SWAP4 PUSH1 0x60 DUP5 ADD MSTORE PUSH1 0x80 DUP4 ADD MSTORE PUSH1 0xA0 DUP3 ADD MSTORE ADD MSTORE JUMP JUMPDEST PUSH1 0x24 CALLDATALOAD SWAP1 PUSH1 0x1 PUSH1 0x1 PUSH1 0xA0 SHL SUB DUP3 AND DUP3 SUB PUSH2 0x18DE JUMPI JUMP JUMPDEST PUSH1 0x0 DUP1 REVERT JUMPDEST PUSH1 0x4 CALLDATALOAD SWAP1 PUSH1 0x1 PUSH1 0x1 PUSH1 0xA0 SHL SUB DUP3 AND DUP3 SUB PUSH2 0x18DE JUMPI JUMP JUMPDEST SWAP1 PUSH1 0x1F DUP1 NOT SWAP2 ADD AND DUP2 ADD SWAP1 DUP2 LT PUSH8 0xFFFFFFFFFFFFFFFF DUP3 GT OR PUSH2 0x191B JUMPI PUSH1 0x40 MSTORE JUMP JUMPDEST PUSH4 0x4E487B71 PUSH1 0xE0 SHL PUSH1 0x0 MSTORE PUSH1 0x41 PUSH1 0x4 MSTORE PUSH1 0x24 PUSH1 0x0 REVERT JUMPDEST PUSH8 0xFFFFFFFFFFFFFFFF DUP2 GT PUSH2 0x191B JUMPI PUSH1 0x1F ADD PUSH1 0x1F NOT AND PUSH1 0x20 ADD SWAP1 JUMP JUMPDEST ISZERO PUSH2 0x1954 JUMPI JUMP JUMPDEST PUSH1 0x40 MLOAD PUSH3 0x461BCD PUSH1 0xE5 SHL DUP2 MSTORE PUSH1 0x20 PUSH1 0x4 DUP3 ADD MSTORE PUSH1 0x21 PUSH1 0x24 DUP3 ADD MSTORE PUSH32 0x50726F6A656374457363726F773A2070726F6A656374206E6F74206163746976 PUSH1 0x44 DUP3 ADD MSTORE PUSH1 0x65 PUSH1 0xF8 SHL PUSH1 0x64 DUP3 ADD MSTORE PUSH1 0x84 SWAP1 REVERT JUMPDEST SWAP2 SWAP1 DUP3 SUB SWAP2 DUP3 GT PUSH2 0x19B0 JUMPI JUMP JUMPDEST PUSH4 0x4E487B71 PUSH1 0xE0 SHL PUSH1 0x0 MSTORE PUSH1 0x11 PUSH1 0x4 MSTORE PUSH1 0x24 PUSH1 0x0 REVERT JUMPDEST ISZERO PUSH2 0x19CD JUMPI JUMP JUMPDEST PUSH1 0x40 MLOAD PUSH3 0x461BCD PUSH1 0xE5 SHL DUP2 MSTORE PUSH1 0x20 PUSH1 0x4 DUP3 ADD MSTORE PUSH1 0x2C PUSH1 0x24 DUP3 ADD MSTORE PUSH32 0x50726F6A656374457363726F773A20616D6F756E74206D757374206265206772 PUSH1 0x44 DUP3 ADD MSTORE PUSH12 0x6561746572207468616E203 PUSH1 0xA4 SHL PUSH1 0x64 DUP3 ADD MSTORE PUSH1 0x84 SWAP1 REVERT JUMPDEST PUSH1 0x0 NOT DUP2 EQ PUSH2 0x19B0 JUMPI PUSH1 0x1 ADD SWAP1 JUMP JUMPDEST SWAP2 SWAP1 DUP3 ADD DUP1 SWAP3 GT PUSH2 0x19B0 JUMPI JUMP JUMPDEST ISZERO PUSH2 0x1A4A JUMPI JUMP JUMPDEST PUSH1 0x40 MLOAD PUSH3 0x461BCD PUSH1 0xE5 SHL DUP2 MSTORE PUSH1 0x20 PUSH1 0x4 DUP3 ADD MSTORE PUSH1 0x21 PUSH1 0x24 DUP3 ADD MSTORE PUSH32 0x50726F6A656374457363726F773A207461736B206E6F7420636F6D706C657465 PUSH1 0x44 DUP3 ADD MSTORE PUSH1 0x19 PUSH1 0xFA SHL PUSH1 0x64 DUP3 ADD MSTORE PUSH1 0x84 SWAP1 REVERT JUMPDEST CALLER PUSH1 0x0 SWAP1 DUP2 MSTORE PUSH32 0xB7DB2DD08FCB62D0C9E08C51941CAE53C267786A0B75803FB7960902FC8EF97D PUSH1 0x20 MSTORE PUSH1 0x40 DUP2 KECCAK256 SLOAD PUSH1 0xFF AND ISZERO PUSH2 0x1AD3 JUMPI POP JUMP JUMPDEST PUSH1 0x44 SWAP1 PUSH1 0x40 MLOAD SWAP1 PUSH4 0xE2517D3F PUSH1 0xE0 SHL DUP3 MSTORE CALLER PUSH1 0x4 DUP4 ADD MSTORE PUSH1 0x24 DUP3 ADD MSTORE REVERT JUMPDEST DUP1 PUSH1 0x0 MSTORE PUSH1 0x0 DUP1 MLOAD PUSH1 0x20 PUSH2 0x21CD DUP4 CODECOPY DUP2 MLOAD SWAP2 MSTORE PUSH1 0x20 MSTORE PUSH1 0x40 PUSH1 0x0 KECCAK256 CALLER PUSH1 0x0 MSTORE PUSH1 0x20 MSTORE PUSH1 0xFF PUSH1 0x40 PUSH1 0x0 KECCAK256 SLOAD AND ISZERO PUSH2 0x1AD3 JUMPI POP JUMP JUMPDEST PUSH1 0x40 MLOAD PUSH4 0xA9059CBB PUSH1 0xE0 SHL PUSH1 0x20 DUP3 ADD MSTORE PUSH1 0x1 PUSH1 0x1 PUSH1 0xA0 SHL SUB SWAP1 SWAP3 AND PUSH1 0x24 DUP4 ADD MSTORE PUSH1 0x44 DUP1 DUP4 ADD SWAP4 SWAP1 SWAP4 MSTORE SWAP2 DUP2 MSTORE PUSH1 0x80 DUP2 ADD SWAP2 PUSH8 0xFFFFFFFFFFFFFFFF DUP4 GT DUP3 DUP5 LT OR PUSH2 0x191B JUMPI PUSH2 0x1B74 SWAP3 PUSH1 0x40 MSTORE PUSH2 0x20A0 JUMP JUMPDEST JUMP JUMPDEST PUSH1 0x1 PUSH1 0x1 PUSH1 0xA0 SHL SUB AND PUSH1 0x0 DUP2 DUP2 MSTORE PUSH32 0xB7DB2DD08FCB62D0C9E08C51941CAE53C267786A0B75803FB7960902FC8EF97D PUSH1 0x20 MSTORE PUSH1 0x40 DUP2 KECCAK256 SLOAD SWAP1 SWAP2 SWAP1 PUSH1 0x0 DUP1 MLOAD PUSH1 0x20 PUSH2 0x21CD DUP4 CODECOPY DUP2 MLOAD SWAP2 MSTORE SWAP1 PUSH1 0xFF AND PUSH2 0x1BFF JUMPI DUP3 DUP1 MSTORE PUSH1 0x20 MSTORE PUSH1 0x40 DUP3 KECCAK256 DUP2 DUP4 MSTORE PUSH1 0x20 MSTORE PUSH1 0x40 DUP3 KECCAK256 PUSH1 0x1 PUSH1 0xFF NOT DUP3 SLOAD AND OR SWAP1 SSTORE CALLER SWAP2 PUSH1 0x0 DUP1 MLOAD PUSH1 0x20 PUSH2 0x21AD DUP4 CODECOPY DUP2 MLOAD SWAP2 MSTORE DUP2 DUP1 LOG4 PUSH1 0x1 SWAP1 JUMP JUMPDEST POP POP SWAP1 JUMP JUMPDEST PUSH1 0x1 PUSH1 0x1 PUSH1 0xA0 SHL SUB AND PUSH1 0x0 DUP2 DUP2 MSTORE PUSH32 0x6484CC59DC38E4F67C31122333A17CA81B3CA18CDF02BFC298072FA52B0316A PUSH1 0x20 MSTORE PUSH1 0x40 DUP2 KECCAK256 SLOAD SWAP1 SWAP2 SWAP1 PUSH32 0x241ECF16D79D0F8DBFB92CBC07FE17840425976CF0667F022FE9877CAA831B08 SWAP1 PUSH1 0x0 DUP1 MLOAD PUSH1 0x20 PUSH2 0x21CD DUP4 CODECOPY DUP2 MLOAD SWAP2 MSTORE SWAP1 PUSH1 0xFF AND PUSH2 0x1CAE JUMPI DUP2 DUP5 MSTORE PUSH1 0x20 MSTORE PUSH1 0x40 DUP4 KECCAK256 DUP3 DUP5 MSTORE PUSH1 0x20 MSTORE PUSH1 0x40 DUP4 KECCAK256 PUSH1 0x1 PUSH1 0xFF NOT DUP3 SLOAD AND OR SWAP1 SSTORE PUSH1 0x0 DUP1 MLOAD PUSH1 0x20 PUSH2 0x21AD DUP4 CODECOPY DUP2 MLOAD SWAP2 MSTORE CALLER SWAP4 DUP1 LOG4 PUSH1 0x1 SWAP1 JUMP JUMPDEST POP POP POP SWAP1 JUMP JUMPDEST PUSH1 0x1 PUSH1 0x1 PUSH1 0xA0 SHL SUB AND PUSH1 0x0 DUP2 DUP2 MSTORE PUSH32 0xDD2B03978755574964DE3A540F0737454491B33185AF74DA97113472C72356D7 PUSH1 0x20 MSTORE PUSH1 0x40 DUP2 KECCAK256 SLOAD SWAP1 SWAP2 SWAP1 PUSH32 0x408A36151F841709116A4E8ACA4E0202874F7F54687DCB863B1EA4672DC9D8CF SWAP1 PUSH1 0x0 DUP1 MLOAD PUSH1 0x20 PUSH2 0x21CD DUP4 CODECOPY DUP2 MLOAD SWAP2 MSTORE SWAP1 PUSH1 0xFF AND PUSH2 0x1CAE JUMPI DUP2 DUP5 MSTORE PUSH1 0x20 MSTORE PUSH1 0x40 DUP4 KECCAK256 DUP3 DUP5 MSTORE PUSH1 0x20 MSTORE PUSH1 0x40 DUP4 KECCAK256 PUSH1 0x1 PUSH1 0xFF NOT DUP3 SLOAD AND OR SWAP1 SSTORE PUSH1 0x0 DUP1 MLOAD PUSH1 0x20 PUSH2 0x21AD DUP4 CODECOPY DUP2 MLOAD SWAP2 MSTORE CALLER SWAP4 DUP1 LOG4 PUSH1 0x1 SWAP1 JUMP JUMPDEST PUSH1 0x1 PUSH1 0x1 PUSH1 0xA0 SHL SUB AND PUSH1 0x0 DUP2 DUP2 MSTORE PUSH32 0xAB71E3F32666744D246EDFF3F96E4BDAFEE2E9867098CDD118A979A7464786A8 PUSH1 0x20 MSTORE PUSH1 0x40 DUP2 KECCAK256 SLOAD SWAP1 SWAP2 SWAP1 PUSH32 0x189AB7A9244DF0848122154315AF71FE140F3DB0FE014031783B0946B8C9D2E3 SWAP1 PUSH1 0x0 DUP1 MLOAD PUSH1 0x20 PUSH2 0x21CD DUP4 CODECOPY DUP2 MLOAD SWAP2 MSTORE SWAP1 PUSH1 0xFF AND PUSH2 0x1CAE JUMPI DUP2 DUP5 MSTORE PUSH1 0x20 MSTORE PUSH1 0x40 DUP4 KECCAK256 DUP3 DUP5 MSTORE PUSH1 0x20 MSTORE PUSH1 0x40 DUP4 KECCAK256 PUSH1 0x1 PUSH1 0xFF NOT DUP3 SLOAD AND OR SWAP1 SSTORE PUSH1 0x0 DUP1 MLOAD PUSH1 0x20 PUSH2 0x21AD DUP4 CODECOPY DUP2 MLOAD SWAP2 MSTORE CALLER SWAP4 DUP1 LOG4 PUSH1 0x1 SWAP1 JUMP JUMPDEST SWAP1 PUSH1 0x0 SWAP2 DUP1 DUP4 MSTORE PUSH1 0x0 DUP1 MLOAD PUSH1 0x20 PUSH2 0x21CD DUP4 CODECOPY DUP2 MLOAD SWAP2 MSTORE DUP1 PUSH1 0x20 MSTORE PUSH1 0x40 DUP5 KECCAK256 SWAP3 PUSH1 0x1 DUP1 PUSH1 0xA0 SHL SUB AND SWAP3 DUP4 DUP6 MSTORE PUSH1 0x20 MSTORE PUSH1 0xFF PUSH1 0x40 DUP6 KECCAK256 SLOAD AND ISZERO PUSH1 0x0 EQ PUSH2 0x1CAE JUMPI DUP2 DUP5 MSTORE PUSH1 0x20 MSTORE PUSH1 0x40 DUP4 KECCAK256 DUP3 DUP5 MSTORE PUSH1 0x20 MSTORE PUSH1 0x40 DUP4 KECCAK256 PUSH1 0x1 PUSH1 0xFF NOT DUP3 SLOAD AND OR SWAP1 SSTORE PUSH1 0x0 DUP1 MLOAD PUSH1 0x20 PUSH2 0x21AD DUP4 CODECOPY DUP2 MLOAD SWAP2 MSTORE CALLER SWAP4 DUP1 LOG4 PUSH1 0x1 SWAP1 JUMP JUMPDEST SWAP1 PUSH1 0x0 SWAP2 DUP1 DUP4 MSTORE PUSH1 0x0 DUP1 MLOAD PUSH1 0x20 PUSH2 0x21CD DUP4 CODECOPY DUP2 MLOAD SWAP2 MSTORE DUP1 PUSH1 0x20 MSTORE PUSH1 0x40 DUP5 KECCAK256 SWAP3 PUSH1 0x1 DUP1 PUSH1 0xA0 SHL SUB AND SWAP3 DUP4 DUP6 MSTORE PUSH1 0x20 MSTORE PUSH1 0xFF PUSH1 0x40 DUP6 KECCAK256 SLOAD AND PUSH1 0x0 EQ PUSH2 0x1CAE JUMPI DUP2 DUP5 MSTORE PUSH1 0x20 MSTORE PUSH1 0x40 DUP4 KECCAK256 DUP3 DUP5 MSTORE PUSH1 0x20 MSTORE PUSH1 0x40 DUP4 KECCAK256 PUSH1 0xFF NOT DUP2 SLOAD AND SWAP1 SSTORE PUSH32 0xF6391F5C32D9C69D2A47EA670B442974B53935D1EDC7FD64EB21E047A839171B CALLER SWAP4 DUP1 LOG4 PUSH1 0x1 SWAP1 JUMP JUMPDEST PUSH1 0x0 DUP1 MLOAD PUSH1 0x20 PUSH2 0x220D DUP4 CODECOPY DUP2 MLOAD SWAP2 MSTORE PUSH1 0x2 DUP2 SLOAD EQ PUSH2 0x1F1E JUMPI PUSH1 0x2 SWAP1 SSTORE JUMP JUMPDEST PUSH1 0x40 MLOAD PUSH4 0x3EE5AEB5 PUSH1 0xE0 SHL DUP2 MSTORE PUSH1 0x4 SWAP1 REVERT JUMPDEST PUSH1 0xFF PUSH1 0x0 DUP1 MLOAD PUSH1 0x20 PUSH2 0x21ED DUP4 CODECOPY DUP2 MLOAD SWAP2 MSTORE SLOAD AND PUSH2 0x1F49 JUMPI JUMP JUMPDEST PUSH1 0x40 MLOAD PUSH4 0xD93C0665 PUSH1 0xE0 SHL DUP2 MSTORE PUSH1 0x4 SWAP1 REVERT JUMPDEST PUSH1 0x0 SWAP1 DUP1 DUP3 MSTORE PUSH1 0x2 PUSH1 0x20 MSTORE PUSH1 0x40 DUP3 KECCAK256 PUSH1 0x3 DUP2 ADD SWAP3 DUP4 SLOAD SWAP2 PUSH1 0xFF DUP4 AND PUSH1 0x5 DUP2 LT ISZERO PUSH2 0x208C JUMPI PUSH1 0x2 PUSH2 0x1F8B SWAP2 EQ PUSH2 0x1A43 JUMP JUMPDEST PUSH1 0x2 DUP2 ADD SWAP5 DUP6 SLOAD SWAP1 PUSH10 0x21E19E0C9BAB2400000 DUP3 LT ISZERO PUSH2 0x2022 JUMPI JUMPDEST SWAP1 PUSH2 0x1FF1 PUSH1 0x3 PUSH32 0x21D71DB5BE59BB9FA133895586B7404307DD33FB93B16DB09DC6F1D9D7D231B0 SWAP7 DUP6 SWAP5 PUSH1 0x20 SWAP8 SWAP7 SLOAD DUP8 MSTORE PUSH1 0x1 DUP9 MSTORE DUP3 PUSH1 0x40 DUP9 KECCAK256 SWAP3 PUSH1 0xFF NOT AND OR SWAP1 SSTORE ADD SWAP2 DUP3 SLOAD PUSH2 0x1A36 JUMP JUMPDEST SWAP1 SSTORE SWAP1 SLOAD PUSH1 0x1 SWAP1 SWAP2 ADD DUP1 SLOAD DUP7 SLOAD PUSH1 0x1 PUSH1 0x1 PUSH1 0xA0 SHL SUB SWAP4 PUSH2 0x2015 SWAP3 DUP6 AND SWAP1 DUP6 AND PUSH2 0x1B24 JUMP JUMPDEST SLOAD AND SWAP4 SLOAD PUSH1 0x40 MLOAD SWAP1 DUP2 MSTORE LOG3 JUMP JUMPDEST SWAP3 SWAP2 SWAP1 PUSH1 0x2 PUSH1 0x6 DUP4 ADD SLOAD LT PUSH2 0x2039 JUMPI SWAP1 SWAP2 SWAP3 PUSH2 0x1FA6 JUMP JUMPDEST PUSH1 0x40 MLOAD PUSH3 0x461BCD PUSH1 0xE5 SHL DUP2 MSTORE PUSH1 0x20 PUSH1 0x4 DUP3 ADD MSTORE PUSH1 0x25 PUSH1 0x24 DUP3 ADD MSTORE PUSH32 0x50726F6A656374457363726F773A20696E73756666696369656E742061707072 PUSH1 0x44 DUP3 ADD MSTORE PUSH5 0x6F76616C73 PUSH1 0xD8 SHL PUSH1 0x64 DUP3 ADD MSTORE PUSH1 0x84 SWAP1 REVERT JUMPDEST PUSH4 0x4E487B71 PUSH1 0xE0 SHL DUP4 MSTORE PUSH1 0x21 PUSH1 0x4 MSTORE PUSH1 0x24 DUP4 REVERT JUMPDEST SWAP1 PUSH1 0x0 PUSH1 0x20 SWAP2 DUP3 DUP2 MLOAD SWAP2 ADD DUP3 DUP6 GAS CALL ISZERO PUSH2 0x20FC JUMPI PUSH1 0x0 MLOAD RETURNDATASIZE PUSH2 0x20F3 JUMPI POP PUSH1 0x1 PUSH1 0x1 PUSH1 0xA0 SHL SUB DUP2 AND EXTCODESIZE ISZERO JUMPDEST PUSH2 0x20D1 JUMPI POP JUMP JUMPDEST PUSH1 0x40 MLOAD PUSH4 0x5274AFE7 PUSH1 0xE0 SHL DUP2 MSTORE PUSH1 0x1 PUSH1 0x1 PUSH1 0xA0 SHL SUB SWAP1 SWAP2 AND PUSH1 0x4 DUP3 ADD MSTORE PUSH1 0x24 SWAP1 REVERT JUMPDEST PUSH1 0x1 EQ ISZERO PUSH2 0x20CA JUMP JUMPDEST PUSH1 0x40 MLOAD RETURNDATASIZE PUSH1 0x0 DUP3 RETURNDATACOPY RETURNDATASIZE SWAP1 REVERT JUMPDEST PUSH1 0xFF PUSH32 0xF0C57E16840DF040F15088DC2F81FE391C3923BEC73E23A9662EFC9C229C6A00 SLOAD PUSH1 0x40 SHR AND ISZERO PUSH2 0x2137 JUMPI JUMP JUMPDEST PUSH1 0x40 MLOAD PUSH4 0x1AFCD79F PUSH1 0xE3 SHL DUP2 MSTORE PUSH1 0x4 SWAP1 REVERT JUMPDEST SWAP1 PUSH2 0x2170 JUMPI POP DUP1 MLOAD ISZERO PUSH2 0x215E JUMPI PUSH1 0x20 DUP2 MLOAD SWAP2 ADD REVERT JUMPDEST PUSH1 0x40 MLOAD PUSH4 0xD6BDA275 PUSH1 0xE0 SHL DUP2 MSTORE PUSH1 0x4 SWAP1 REVERT JUMPDEST DUP2 MLOAD ISZERO DUP1 PUSH2 0x21A3 JUMPI JUMPDEST PUSH2 0x2181 JUMPI POP SWAP1 JUMP JUMPDEST PUSH1 0x40 MLOAD PUSH4 0x9996B315 PUSH1 0xE0 SHL DUP2 MSTORE PUSH1 0x1 PUSH1 0x1 PUSH1 0xA0 SHL SUB SWAP1 SWAP2 AND PUSH1 0x4 DUP3 ADD MSTORE PUSH1 0x24 SWAP1 REVERT JUMPDEST POP DUP1 EXTCODESIZE ISZERO PUSH2 0x2179 JUMP INVALID 0x2F DUP8 DUP9 GT PUSH31 0x7EFF1D82E926EC794901D17C78024A50270940304540A733656F0D02DD7BC7 0xDE 0xC4 0xDC 0xEE 0xDD 0xA7 PUSH22 0xE58DD541E08A116C6C53815C0BD028192F7B626800CD MCOPY 0xD1 TLOAD PUSH15 0x187E77E9AEE88184C21F4F2182AB58 0x27 0xCB EXTCODESIZE PUSH31 0x7FBEDCD63F033009B779B17422D0DF92223018B32B4D1FA46E071723D6817 0xE2 BASEFEE PUSH14 0x3BECC55F00A264697066735822 SLT KECCAK256 0xD6 BALANCE SIGNEXTEND SWAP9 0xF9 SHL SWAP13 LOG0 0xE7 0xBC 0xE6 SWAP4 0xC6 DELEGATECALL PUSH5 0x7411F158E2 0x2D DUP6 PUSH32 0xF7295F9D2C3C62A72964736F6C63430008180033000000000000000000000000 "},"methodIdentifiers":{"APPROVAL_THRESHOLD()":"3ab34290","APPROVER_ROLE()":"4245962b","DEFAULT_ADMIN_ROLE()":"a217fddf","MANAGER_ROLE()":"ec87621c","REFUND_TIMELOCK()":"3d7faa40","REQUIRED_APPROVALS()":"599c5533","UPGRADER_ROLE()":"f72c0d8b","UPGRADE_INTERFACE_VERSION()":"ad3cb1cc","allocateTask(uint256,address,uint256)":"eeeb241f","approvePayment(uint256)":"de14c818","cancelProject(uint256)":"24941147","completeTask(uint256)":"e1e29558","finToken()":"1df4111b","fundProject(uint256)":"6c563abe","getProject(uint256)":"f0f3f2c8","getRoleAdmin(bytes32)":"248a9ca3","getTask(uint256)":"1d65e77e","grantRole(bytes32,address)":"2f2ff15d","hasRole(bytes32,address)":"91d14854","initialize(address,address)":"485cc955","pause()":"8456cb59","paused()":"5c975abb","processRefund(uint256)":"dac87ca4","projectCounter()":"f8a518ed","projects(uint256)":"107046bd","proxiableUUID()":"52d1902d","renounceRole(bytes32,address)":"36568abe","requestRefund(uint256)":"a4b2409e","revokeRole(bytes32,address)":"d547741f","supportsInterface(bytes4)":"01ffc9a7","taskCounter()":"58671730","tasks(uint256)":"8d977672","unpause()":"3f4ba83a","upgradeToAndCall(address,bytes)":"4f1ef286"}},"storageLayout":{"storage":[{"astId":2719,"contract":"contracts/ProjectEscrow.sol:ProjectEscrow","label":"finToken","offset":0,"slot":"0","type":"t_contract(IERC20)1775"},{"astId":2775,"contract":"contracts/ProjectEscrow.sol:ProjectEscrow","label":"projects","offset":0,"slot":"1","type":"t_mapping(t_uint256,t_struct(Project)2748_storage)"},{"astId":2781,"contract":"contracts/ProjectEscrow.sol:ProjectEscrow","label":"tasks","offset":0,"slot":"2","type":"t_mapping(t_uint256,t_struct(Task)2769_storage)"},{"astId":2784,"contract":"contracts/ProjectEscrow.sol:ProjectEscrow","label":"projectCounter","offset":0,"slot":"3","type":"t_uint256"},{"astId":2787,"contract":"contracts/ProjectEscrow.sol:ProjectEscrow","label":"taskCounter","offset":0,"slot":"4","type":"t_uint256"}],"types":{"t_address":{"encoding":"inplace","label":"address","numberOfBytes":"20"},"t_bool":{"encoding":"inplace","label":"bool","numberOfBytes":"1"},"t_contract(IERC20)1775":{"encoding":"inplace","label":"contract IERC20","numberOfBytes":"20"},"t_enum(ProjectStatus)2724":{"encoding":"inplace","label":"enum ProjectEscrow.ProjectStatus","numberOfBytes":"1"},"t_enum(TaskStatus)2731":{"encoding":"inplace","label":"enum ProjectEscrow.TaskStatus","numberOfBytes":"1"},"t_mapping(t_address,t_bool)":{"encoding":"mapping","key":"t_address","label":"mapping(address => bool)","numberOfBytes":"32","value":"t_bool"},"t_mapping(t_uint256,t_struct(Project)2748_storage)":{"encoding":"mapping","key":"t_uint256","label":"mapping(uint256 => struct ProjectEscrow.Project)","numberOfBytes":"32","value":"t_struct(Project)2748_storage"},"t_mapping(t_uint256,t_struct(Task)2769_storage)":{"encoding":"mapping","key":"t_uint256","label":"mapping(uint256 => struct ProjectEscrow.Task)","numberOfBytes":"32","value":"t_struct(Task)2769_storage"},"t_struct(Project)2748_storage":{"encoding":"inplace","label":"struct ProjectEscrow.Project","members":[{"astId":2734,"contract":"contracts/ProjectEscrow.sol:ProjectEscrow","label":"employer","offset":0,"slot":"0","type":"t_address"},{"astId":2736,"contract":"contracts/ProjectEscrow.sol:ProjectEscrow","label":"totalFunded","offset":0,"slot":"1","type":"t_uint256"},{"astId":2738,"contract":"contracts/ProjectEscrow.sol:ProjectEscrow","label":"totalAllocated","offset":0,"slot":"2","type":"t_uint256"},{"astId":2740,"contract":"contracts/ProjectEscrow.sol:ProjectEscrow","label":"totalReleased","offset":0,"slot":"3","type":"t_uint256"},{"astId":2743,"contract":"contracts/ProjectEscrow.sol:ProjectEscrow","label":"status","offset":0,"slot":"4","type":"t_enum(ProjectStatus)2724"},{"astId":2745,"contract":"contracts/ProjectEscrow.sol:ProjectEscrow","label":"createdAt","offset":0,"slot":"5","type":"t_uint256"},{"astId":2747,"contract":"contracts/ProjectEscrow.sol:ProjectEscrow","label":"refundRequestedAt","offset":0,"slot":"6","type":"t_uint256"}],"numberOfBytes":"224"},"t_struct(Task)2769_storage":{"encoding":"inplace","label":"struct ProjectEscrow.Task","members":[{"astId":2751,"contract":"contracts/ProjectEscrow.sol:ProjectEscrow","label":"projectId","offset":0,"slot":"0","type":"t_uint256"},{"astId":2753,"contract":"contracts/ProjectEscrow.sol:ProjectEscrow","label":"worker","offset":0,"slot":"1","type":"t_address"},{"astId":2755,"contract":"contracts/ProjectEscrow.sol:ProjectEscrow","label":"amount","offset":0,"slot":"2","type":"t_uint256"},{"astId":2758,"contract":"contracts/ProjectEscrow.sol:ProjectEscrow","label":"status","offset":0,"slot":"3","type":"t_enum(TaskStatus)2731"},{"astId":2760,"contract":"contracts/ProjectEscrow.sol:ProjectEscrow","label":"createdAt","offset":0,"slot":"4","type":"t_uint256"},{"astId":2762,"contract":"contracts/ProjectEscrow.sol:ProjectEscrow","label":"completedAt","offset":0,"slot":"5","type":"t_uint256"},{"astId":2764,"contract":"contracts/ProjectEscrow.sol:ProjectEscrow","label":"approvalCount","offset":0,"slot":"6","type":"t_uint256"},{"astId":2768,"contract":"contracts/ProjectEscrow.sol:ProjectEscrow","label":"approvals","offset":0,"slot":"7","type":"t_mapping(t_address,t_bool)"}],"numberOfBytes":"256"},"t_uint256":{"encoding":"inplace","label":"uint256","numberOfBytes":"32"}}}}}}