{"contracts/ProjectEscrow.sol":{"ProjectEscrow":{"abi":[{"inputs":[],"stateMutability":"nonpayable","type":"constructor"},{"inputs":[],"name":"AccessControlBadConfirmation","type":"error"},{"inputs":[{"internalType":"address","name":"account","type":"address"},{"internalType":"bytes32","name":"neededRole","type":"bytes32"}],"name":"AccessControlUnauthorizedAccount","type":"error"},{"inputs":[{"internalType":"address","name":"target","type":"address"}],"name":"AddressEmptyCode","type":"error"},{"inputs":[{"internalType":"address","name":"implementation","type":"address"}],"name":"ERC1967InvalidImplementation","type":"error"},{"inputs":[],"name":"ERC1967NonPayable","type":"error"},{"inputs":[],"name":"EnforcedPause","type":"error"},{"inputs":[],"name":"ExpectedPause","type":"error"},{"inputs":[],"name":"FailedCall","type":"error"},{"inputs":[],"name":"InvalidInitialization","type":"error"},{"inputs":[],"name":"NotInitializing","type":"error"},{"inputs":[],"name":"ReentrancyGuardReentrantCall","type":"error"},{"inputs":[{"internalType":"address","name":"token","type":"address"}],"name":"SafeERC20FailedOperation","type":"error"},{"inputs":[],"name":"UUPSUnauthorizedCallContext","type":"error"},{"inputs":[{"internalType":"bytes32","name":"slot","type":"bytes32"}],"name":"UUPSUnsupportedProxiableUUID","type":"error"},{"anonymous":false,"inputs":[{"indexed":true,"internalType":"uint256","name":"taskId","type":"uint256"},{"indexed":false,"internalType":"uint256","name":"hashrate","type":"uint256"}],"name":"HashrateUpdated","type":"event"},{"anonymous":false,"inputs":[{"indexed":false,"internalType":"uint64","name":"version","type":"uint64"}],"name":"Initialized","type":"event"},{"anonymous":false,"inputs":[{"indexed":false,"internalType":"address","name":"account","type":"address"}],"name":"Paused","type":"event"},{"anonymous":false,"inputs":[{"indexed":true,"internalType":"uint256","name":"taskId","type":"uint256"},{"indexed":true,"internalType":"address","name":"approver","type":"address"}],"name":"PaymentApproved","type":"event"},{"anonymous":false,"inputs":[{"indexed":true,"internalType":"uint256","name":"taskId","type":"uint256"},{"indexed":true,"internalType":"address","name":"worker","type":"address"},{"indexed":false,"internalType":"uint256","name":"amount","type":"uint256"}],"name":"PaymentReleased","type":"event"},{"anonymous":false,"inputs":[{"indexed":true,"internalType":"uint256","name":"taskId","type":"uint256"},{"indexed":true,"internalType":"address","name":"recipient","type":"address"},{"indexed":false,"internalType":"uint256","name":"feeAmount","type":"uint256"},{"indexed":false,"internalType":"uint256","name":"workerAmount","type":"uint256"}],"name":"PlatformFeeCollected","type":"event"},{"anonymous":false,"inputs":[{"indexed":true,"internalType":"uint256","name":"projectId","type":"uint256"},{"indexed":true,"internalType":"address","name":"employer","type":"address"}],"name":"ProjectCancelled","type":"event"},{"anonymous":false,"inputs":[{"indexed":true,"internalType":"uint256","name":"projectId","type":"uint256"},{"indexed":true,"internalType":"address","name":"employer","type":"address"},{"indexed":false,"internalType":"uint256","name":"amount","type":"uint256"}],"name":"ProjectFunded","type":"event"},{"anonymous":false,"inputs":[{"indexed":true,"internalType":"uint256","name":"projectId","type":"uint256"},{"indexed":true,"internalType":"address","name":"employer","type":"address"},{"indexed":false,"internalType":"uint256","name":"amount","type":"uint256"}],"name":"RefundProcessed","type":"event"},{"anonymous":false,"inputs":[{"indexed":true,"internalType":"uint256","name":"projectId","type":"uint256"},{"indexed":true,"internalType":"address","name":"employer","type":"address"},{"indexed":false,"internalType":"uint256","name":"requestedAt","type":"uint256"}],"name":"RefundRequested","type":"event"},{"anonymous":false,"inputs":[{"indexed":true,"internalType":"bytes32","name":"role","type":"bytes32"},{"indexed":true,"internalType":"bytes32","name":"previousAdminRole","type":"bytes32"},{"indexed":true,"internalType":"bytes32","name":"newAdminRole","type":"bytes32"}],"name":"RoleAdminChanged","type":"event"},{"anonymous":false,"inputs":[{"indexed":true,"internalType":"bytes32","name":"role","type":"bytes32"},{"indexed":true,"internalType":"address","name":"account","type":"address"},{"indexed":true,"internalType":"address","name":"sender","type":"address"}],"name":"RoleGranted","type":"event"},{"anonymous":false,"inputs":[{"indexed":true,"internalType":"bytes32","name":"role","type":"bytes32"},{"indexed":true,"internalType":"address","name":"account","type":"address"},{"indexed":true,"internalType":"address","name":"sender","type":"address"}],"name":"RoleRevoked","type":"event"},{"anonymous":false,"inputs":[{"indexed":true,"internalType":"uint256","name":"taskId","type":"uint256"},{"indexed":true,"internalType":"uint256","name":"projectId","type":"uint256"},{"indexed":true,"internalType":"address","name":"worker","type":"address"},{"indexed":false,"internalType":"uint256","name":"amount","type":"uint256"}],"name":"TaskAllocated","type":"event"},{"anonymous":false,"inputs":[{"indexed":true,"internalType":"uint256","name":"taskId","type":"uint256"},{"indexed":true,"internalType":"address","name":"worker","type":"address"}],"name":"TaskCompleted","type":"event"},{"anonymous":false,"inputs":[{"indexed":true,"internalType":"uint256","name":"taskId","type":"uint256"},{"indexed":false,"internalType":"enum ProjectEscrow.TaskStatus","name":"status","type":"uint8"}],"name":"TaskStatusUpdated","type":"event"},{"anonymous":false,"inputs":[{"indexed":false,"internalType":"address","name":"account","type":"address"}],"name":"Unpaused","type":"event"},{"anonymous":false,"inputs":[{"indexed":true,"internalType":"address","name":"implementation","type":"address"}],"name":"Upgraded","type":"event"},{"inputs":[],"name":"APPROVAL_THRESHOLD","outputs":[{"internalType":"uint256","name":"","type":"uint256"}],"stateMutability":"view","type":"function"},{"inputs":[],"name":"APPROVER_ROLE","outputs":[{"internalType":"bytes32","name":"","type":"bytes32"}],"stateMutability":"view","type":"function"},{"inputs":[],"name":"DEFAULT_ADMIN_ROLE","outputs":[{"internalType":"bytes32","name":"","type":"bytes32"}],"stateMutability":"view","type":"function"},{"inputs":[],"name":"MANAGER_ROLE","outputs":[{"internalType":"bytes32","name":"","type":"bytes32"}],"stateMutability":"view","type":"function"},{"inputs":[],"name":"MAX_PLATFORM_FEE","outputs":[{"internalType":"uint256","name":"","type":"uint256"}],"stateMutability":"view","type":"function"},{"inputs":[],"name":"REFUND_TIMELOCK","outputs":[{"internalType":"uint256","name":"","type":"uint256"}],"stateMutability":"view","type":"function"},{"inputs":[],"name":"REQUIRED_APPROVALS","outputs":[{"internalType":"uint256","name":"","type":"uint256"}],"stateMutability":"view","type":"function"},{"inputs":[],"name":"UPGRADER_ROLE","outputs":[{"internalType":"bytes32","name":"","type":"bytes32"}],"stateMutability":"view","type":"function"},{"inputs":[],"name":"UPGRADE_INTERFACE_VERSION","outputs":[{"internalType":"string","name":"","type":"string"}],"stateMutability":"view","type":"function"},{"inputs":[{"internalType":"uint256","name":"projectId","type":"uint256"},{"internalType":"address","name":"worker","type":"address"},{"internalType":"uint256","name":"amount","type":"uint256"}],"name":"allocateTask","outputs":[{"internalType":"uint256","name":"taskId","type":"uint256"}],"stateMutability":"nonpayable","type":"function"},{"inputs":[{"internalType":"uint256","name":"taskId","type":"uint256"}],"name":"approvePayment","outputs":[],"stateMutability":"nonpayable","type":"function"},{"inputs":[{"internalType":"uint256","name":"projectId","type":"uint256"}],"name":"cancelProject","outputs":[],"stateMutability":"nonpayable","type":"function"},{"inputs":[{"internalType":"uint256","name":"taskId","type":"uint256"}],"name":"cancelTask","outputs":[],"stateMutability":"nonpayable","type":"function"},{"inputs":[{"internalType":"uint256","name":"taskId","type":"uint256"}],"name":"completeTask","outputs":[],"stateMutability":"nonpayable","type":"function"},{"inputs":[],"name":"finToken","outputs":[{"internalType":"contract IERC20","name":"","type":"address"}],"stateMutability":"view","type":"function"},{"inputs":[{"internalType":"uint256","name":"amount","type":"uint256"}],"name":"fundProject","outputs":[{"internalType":"uint256","name":"projectId","type":"uint256"}],"stateMutability":"nonpayable","type":"function"},{"inputs":[{"internalType":"uint256","name":"amount","type":"uint256"}],"name":"getPlatformFeeAmount","outputs":[{"internalType":"uint256","name":"","type":"uint256"}],"stateMutability":"view","type":"function"},{"inputs":[{"internalType":"uint256","name":"projectId","type":"uint256"}],"name":"getProject","outputs":[{"internalType":"address","name":"employer","type":"address"},{"internalType":"uint256","name":"totalFunded","type":"uint256"},{"internalType":"uint256","name":"totalAllocated","type":"uint256"},{"internalType":"uint256","name":"totalReleased","type":"uint256"},{"internalType":"enum ProjectEscrow.ProjectStatus","name":"status","type":"uint8"},{"internalType":"uint256","name":"createdAt","type":"uint256"},{"internalType":"uint256","name":"refundRequestedAt","type":"uint256"}],"stateMutability":"view","type":"function"},{"inputs":[{"internalType":"bytes32","name":"role","type":"bytes32"}],"name":"getRoleAdmin","outputs":[{"internalType":"bytes32","name":"","type":"bytes32"}],"stateMutability":"view","type":"function"},{"inputs":[{"internalType":"uint256","name":"taskId","type":"uint256"}],"name":"getTask","outputs":[{"internalType":"uint256","name":"projectId","type":"uint256"},{"internalType":"address","name":"worker","type":"address"},{"internalType":"uint256","name":"amount","type":"uint256"},{"internalType":"enum ProjectEscrow.TaskStatus","name":"status","type":"uint8"},{"internalType":"uint256","name":"createdAt","type":"uint256"},{"internalType":"uint256","name":"completedAt","type":"uint256"},{"internalType":"uint256","name":"approvalCount","type":"uint256"},{"internalType":"uint256","name":"hashrate","type":"uint256"}],"stateMutability":"view","type":"function"},{"inputs":[{"internalType":"bytes32","name":"role","type":"bytes32"},{"internalType":"address","name":"account","type":"address"}],"name":"grantRole","outputs":[],"stateMutability":"nonpayable","type":"function"},{"inputs":[{"internalType":"bytes32","name":"role","type":"bytes32"},{"internalType":"address","name":"account","type":"address"}],"name":"hasRole","outputs":[{"internalType":"bool","name":"","type":"bool"}],"stateMutability":"view","type":"function"},{"inputs":[{"internalType":"address","name":"_finToken","type":"address"},{"internalType":"address","name":"admin","type":"address"}],"name":"initialize","outputs":[],"stateMutability":"nonpayable","type":"function"},{"inputs":[],"name":"pause","outputs":[],"stateMutability":"nonpayable","type":"function"},{"inputs":[],"name":"paused","outputs":[{"internalType":"bool","name":"","type":"bool"}],"stateMutability":"view","type":"function"},{"inputs":[],"name":"platformFeePercentage","outputs":[{"internalType":"uint256","name":"","type":"uint256"}],"stateMutability":"view","type":"function"},{"inputs":[],"name":"platformFeeRecipient","outputs":[{"internalType":"address","name":"","type":"address"}],"stateMutability":"view","type":"function"},{"inputs":[{"internalType":"uint256","name":"projectId","type":"uint256"}],"name":"processRefund","outputs":[],"stateMutability":"nonpayable","type":"function"},{"inputs":[],"name":"projectCounter","outputs":[{"internalType":"uint256","name":"","type":"uint256"}],"stateMutability":"view","type":"function"},{"inputs":[{"internalType":"uint256","name":"","type":"uint256"}],"name":"projects","outputs":[{"internalType":"address","name":"employer","type":"address"},{"internalType":"uint256","name":"totalFunded","type":"uint256"},{"internalType":"uint256","name":"totalAllocated","type":"uint256"},{"internalType":"uint256","name":"totalReleased","type":"uint256"},{"internalType":"enum ProjectEscrow.ProjectStatus","name":"status","type":"uint8"},{"internalType":"uint256","name":"createdAt","type":"uint256"},{"internalType":"uint256","name":"refundRequestedAt","type":"uint256"}],"stateMutability":"view","type":"function"},{"inputs":[],"name":"proxiableUUID","outputs":[{"internalType":"bytes32","name":"","type":"bytes32"}],"stateMutability":"view","type":"function"},{"inputs":[{"internalType":"bytes32","name":"role","type":"bytes32"},{"internalType":"address","name":"callerConfirmation","type":"address"}],"name":"renounceRole","outputs":[],"stateMutability":"nonpayable","type":"function"},{"inputs":[{"internalType":"uint256","name":"projectId","type":"uint256"}],"name":"requestRefund","outputs":[],"stateMutability":"nonpayable","type":"function"},{"inputs":[{"internalType":"bytes32","name":"role","type":"bytes32"},{"internalType":"address","name":"account","type":"address"}],"name":"revokeRole","outputs":[],"stateMutability":"nonpayable","type":"function"},{"inputs":[{"internalType":"uint256","name":"","type":"uint256"}],"name":"setPlatformFee","outputs":[],"stateMutability":"pure","type":"function"},{"inputs":[{"internalType":"address","name":"","type":"address"}],"name":"setPlatformFeeRecipient","outputs":[],"stateMutability":"pure","type":"function"},{"inputs":[{"internalType":"bytes4","name":"interfaceId","type":"bytes4"}],"name":"supportsInterface","outputs":[{"internalType":"bool","name":"","type":"bool"}],"stateMutability":"view","type":"function"},{"inputs":[],"name":"taskCounter","outputs":[{"internalType":"uint256","name":"","type":"uint256"}],"stateMutability":"view","type":"function"},{"inputs":[{"internalType":"uint256","name":"","type":"uint256"}],"name":"tasks","outputs":[{"internalType":"uint256","name":"projectId","type":"uint256"},{"internalType":"address","name":"worker","type":"address"},{"internalType":"uint256","name":"amount","type":"uint256"},{"internalType":"enum ProjectEscrow.TaskStatus","name":"status","type":"uint8"},{"internalType":"uint256","name":"createdAt","type":"uint256"},{"internalType":"uint256","name":"completedAt","type":"uint256"},{"internalType":"uint256","name":"approvalCount","type":"uint256"},{"internalType":"uint256","name":"hashrate","type":"uint256"}],"stateMutability":"view","type":"function"},{"inputs":[],"name":"unpause","outputs":[],"stateMutability":"nonpayable","type":"function"},{"inputs":[{"internalType":"uint256","name":"taskId","type":"uint256"},{"internalType":"uint256","name":"newHashrate","type":"uint256"}],"name":"updateTaskHashrate","outputs":[],"stateMutability":"nonpayable","type":"function"},{"inputs":[{"internalType":"address","name":"newImplementation","type":"address"},{"internalType":"bytes","name":"data","type":"bytes"}],"name":"upgradeToAndCall","outputs":[],"stateMutability":"payable","type":"function"}],"evm":{"bytecode":{"linkReferences":{},"object":"60a080604052346100cc57306080527ff0c57e16840df040f15088dc2f81fe391c3923bec73e23a9662efc9c229c6a009081549060ff8260401c166100bd57506001600160401b036002600160401b031982821601610078575b60405161275890816100d282396080518181816111af015261128f0152f35b6001600160401b031990911681179091556040519081527fc7f505b2f371ae2175ee4913f4499e1f2633a7b5936321eed1cdaeb6115181d290602090a1388080610059565b63f92ee8a960e01b8152600490fd5b600080fdfe608060408181526004918236101561001657600080fd5b600092833560e01c91826301ffc9a714611bb757508163107046bd1461024e57816312e8e2c314611b5557816316d924ef14611a7a5781631871e24314611a0c5781631d65e77e14610d955781631df4111b146119e3578163248a9ca3146119ab57816324941147146118d75781632f2ff15d146118ad57816336568abe146118675781633998a6811461184a5781633ab34290146118255781633d7faa40146118075781633f4ba83a1461178f5781634245962b14611754578163485cc955146114d95781634f1ef2861461121357816352d1902d1461119a578163586717301461117b578163599c55331461115f5781635c975abb1461112e5781636c563abe1461100a5781636f4532c214610fdb5781637eec20a814610e5e5781638456cb5914610df65781638d97767214610d9557816391d1485414610d41578163a217fddf14610d26578163a4b2409e14610bc1578163ad3cb1cc14610b22578163cdd78cfc14610b03578163d547741f14610ab6578163dac87ca414610880578163de14c818146106a8578163e1e29558146104ff578163eb13554f146104d7578163ec87621c1461049c578163eeeb241f146102b1578163f0f3f2c81461024e57508063f72c0d8b146102145763f8a518ed146101f357600080fd5b346102105781600319360112610210576020906005549051908152f35b5080fd5b5034610210578160031936011261021057602090517f189ab7a9244df0848122154315af71fe140f3db0fe014031783b0946b8c9d2e38152f35b8284346102ae5760203660031901126102ae57816102aa91843581526003602052209160018060a01b038354169260018101549460028201549060ff600384015491840154169160066005850154940154945197889788611c0a565b0390f35b80fd5b8383346102105760603660031901126102105782356102ce611c7b565b90604435936102db611e8f565b6102e3611ebf565b6102eb611eea565b818152602094600386528482209360ff88860154166003811015610489576103139015611d30565b6001600160a01b03169384156104385761032e821515611da9565b60028101906001610340848454611e2c565b910154106103e357957fe6d74276b833dc8370dd737ef626f0132a4702f6fe28f4088bd1341a5c16245b918697829961037a600654611e0a565b998a9687600655878152828652209087825560018201896001600160601b0360a01b8254161790558360028301556003820160ff198154169055429101556103c3828254611e2c565b90558651908152a460016000805160206127038339815191525551908152f35b855162461bcd60e51b8152808901889052602960248201527f50726f6a656374457363726f773a20696e73756666696369656e742070726f6a6044820152686563742066756e647360b81b6064820152608490fd5b855162461bcd60e51b8152808901889052602560248201527f50726f6a656374457363726f773a20776f726b6572206973207a65726f206164604482015264647265737360d81b6064820152608490fd5b634e487b7160e01b845260218952602484fd5b505034610210578160031936011261021057602090517f241ecf16d79d0f8dbfb92cbc07fe17840425976cf0667f022fe9877caa831b088152f35b505034610210578160031936011261021057905490516001600160a01b039091168152602090f35b919050346106a45760203660031901126106a45781359161051e611e8f565b610526611ebf565b828452602081905281842060018101549092906001600160a01b0316330361064c57600383019182549160ff8316600581101561063957801590811561062e575b50156105e057505060ff1916600290811790915542600583015569021e19e0c9bab24000009133847fbb5889c77948badf90e8a5c73d55265e5f5d6e4837a79a78c5669691b897faed8780a30154106105d1575b5060016000805160206127038339815191525580f35b6105da906123ad565b386105bb565b906020608492519162461bcd60e51b8352820152602260248201527f50726f6a656374457363726f773a20696e76616c6964207461736b2073746174604482015261757360f01b6064820152fd5b600191501438610567565b634e487b7160e01b885260218352602488fd5b906020608492519162461bcd60e51b8352820152602c60248201527f50726f6a656374457363726f773a206f6e6c7920776f726b65722063616e206360448201526b6f6d706c657465207461736b60a01b6064820152fd5b8280fd5b919050346106a4576020908160031936011261087c578235927f408a36151f841709116a4e8aca4e0202874f7f54687dcb863b1ea4672dc9d8cf8086526000805160206126c38339815191528452828620338752845260ff83872054161561086157508385528083528185209260ff600385015416600581101561084e5760026107329114611e39565b600884019133875282825260ff848820541661080d5769021e19e0c9bab24000006002860154106107c05750338652528320805460ff1916600117905560060180546002919061078190611e0a565b80915533837f7c0257138bc682dcff9eb84d702bf9118b11a37ab9af95828ea7332c078eb93f8680a310156107b4575080f35b6107bd906123ad565b80f35b60849184519162461bcd60e51b83528201526024808201527f50726f6a656374457363726f773a20617070726f76616c206e6f7420726571756044820152631a5c995960e21b6064820152fd5b60649184519162461bcd60e51b8352820152601f60248201527f50726f6a656374457363726f773a20616c726561647920617070726f766564006044820152fd5b634e487b7160e01b875260218352602487fd5b604492519163e2517d3f60e01b835233908301526024820152fd5b8380fd5b838334610210576020806003193601126106a45783359061089f611e8f565b6108a7611ebf565b8184526003815282842080546001600160a01b039081169691338803610a5b5760068101548015610a0c576201518081018091116109f95742106109aa576108f86001820154600283015490611d86565b92831561095d57837f79ff6a60b3e21b3630b207e2a7b0b50b69b197d3d7ca776108ed2afb8fbac8dc96979899610940928401600160ff198254161790558460025416611fd1565b54169451908152a360016000805160206127038339815191525580f35b865162461bcd60e51b8152908101859052602160248201527f50726f6a656374457363726f773a206e6f2066756e647320746f20726566756e6044820152601960fa1b6064820152608490fd5b855162461bcd60e51b8152808401859052602360248201527f50726f6a656374457363726f773a2074696d656c6f636b206e6f7420657870696044820152621c995960ea1b6064820152608490fd5b634e487b7160e01b885260118452602488fd5b865162461bcd60e51b8152808501869052602360248201527f50726f6a656374457363726f773a20726566756e64206e6f74207265717565736044820152621d195960ea1b6064820152608490fd5b855162461bcd60e51b8152808401859052602f60248201527f50726f6a656374457363726f773a206f6e6c7920656d706c6f7965722063616e60448201526e081c1c9bd8d95cdcc81c99599d5b99608a1b6064820152608490fd5b919050346106a457806003193601126106a457610aff9135610afa6001610adb611c7b565b938387526000805160206126c383398151915260205286200154611f9e565b61232a565b5080f35b5050346102105781600319360112610210576020906001549051908152f35b9050346106a457826003193601126106a4578151908282019082821067ffffffffffffffff831117610bae5750825260058152602090640352e302e360dc1b6020820152825193849260208452825192836020860152825b848110610b9857505050828201840152601f01601f19168101030190f35b8181018301518882018801528795508201610b7a565b634e487b7160e01b855260419052602484fd5b919050346106a45760203660031901126106a457813591610be0611e8f565b828452600360205281842080546001600160a01b03163303610ccb5760ff82820154166003811015610cb85790610c1960069215611d30565b01908154610c65575042905551904282527f6706020a65600b3496005cfd282dbbd692a827197e34c20e4a0fc2fa21d3eff260203393a360016000805160206127038339815191525580f35b608490602084519162461bcd60e51b8352820152602760248201527f50726f6a656374457363726f773a20726566756e6420616c72656164792072656044820152661c5d595cdd195960ca1b6064820152fd5b634e487b7160e01b865260218352602486fd5b506020608492519162461bcd60e51b8352820152602f60248201527f50726f6a656374457363726f773a206f6e6c7920656d706c6f7965722063616e60448201526e081c995c5d595cdd081c99599d5b99608a1b6064820152fd5b50503461021057816003193601126102105751908152602090f35b9050346106a457816003193601126106a4578160209360ff92610d62611c7b565b903582526000805160206126c383398151915286528282206001600160a01b039091168252855220549151911615158152f35b8284346102ae5760203660031901126102ae57816102aa918435815284602052209182549260018060a01b036001820154169460028201549060ff600384015416908301549060058401549260076006860154950154955198899889611c91565b50503461021057816003193601126102105760207f62e78cea01bee320cd4e420270b5ea74000d11b0c9f74754ebdbfc544b05a25891610e34611f64565b610e3c611ebf565b6000805160206126e3833981519152805460ff1916600117905551338152a180f35b9050346106a45760203660031901126106a457803591610e7c611e8f565b610e84611ebf565b610e8c611eea565b82845281602052808420600381019081549160ff83166005811015610fc8578015908115610fbd575b5015610f54578154875260036020528387209260ff86850154166003811015610f41576002602096948896947f9a4f521400d1b2f610a5c4845f80b4d79e3ec73d18e977ac9e0b0e6e741ec85f99610f2595610f12859615611d30565b60ff191617905501549201918254611d86565b905551908152a260016000805160206127038339815191525580f35b634e487b7160e01b895260218752602489fd5b835162461bcd60e51b8152602081870152603960248201527f50726f6a656374457363726f773a207461736b2063616e6e6f7420626520636160448201527f6e63656c6c656420696e2063757272656e7420737461747573000000000000006064820152608490fd5b600191501438610eb5565b634e487b7160e01b885260218652602488fd5b8284346102ae5760203660031901126102ae57506127106110026020936001549035611e19565b049051908152f35b838334610210576020366003190112610210578235611027611e8f565b61102f611ebf565b61103a811515611da9565b611045600554611e0a565b92836005558381526003602052828120336001600160601b0360a01b82541617815582600182015585810160ff19815416905560054291015560018060a01b03600254168351916323b872dd60e01b60208401523360248401523060448401528360648401526064835260a083019083821067ffffffffffffffff83111761111b57508452602095506110d89190612596565b8151908152827f6251418ffd7f504740544ec3d578897633e212c5d658b7dce793c5dc9d2e855e853393a360016000805160206127038339815191525551908152f35b634e487b7160e01b815260418852602490fd5b50503461021057816003193601126102105760209060ff6000805160206126e3833981519152541690519015158152f35b5050346102105781600319360112610210576020905160028152f35b5050346102105781600319360112610210576020906006549051908152f35b8284346102ae57806003193601126102ae57507f00000000000000000000000000000000000000000000000000000000000000006001600160a01b0316300361120657602090517f360894a13ba1a3210667c828492db98dca3e2076cc3735a920a3ca505d382bbc8152f35b5163703e46dd60e11b8152fd5b918091506003193601126106a457611229611c60565b90602493843567ffffffffffffffff81116102105736602382011215610210578085013561125681611d14565b9461126385519687611cdc565b81865260209182870193368a83830101116114d5578186928b8693018737880101526001600160a01b037f000000000000000000000000000000000000000000000000000000000000000081163081149081156114a7575b50611497577f189ab7a9244df0848122154315af71fe140f3db0fe014031783b0946b8c9d2e38086526000805160206126c38339815191528452868620338752845260ff87872054161561147a575081169585516352d1902d60e01b815283818a818b5afa869181611447575b50611344575050505050505191634c9c8ce360e01b8352820152fd5b9088888894938c7f360894a13ba1a3210667c828492db98dca3e2076cc3735a920a3ca505d382bbc918281036114325750853b1561141e575080546001600160a01b031916821790558451889392917fbc7cd75a20ee27fd9adebab32041f755214dbc6bffa90cc0225b39da2e5c2d3b8580a2825115611400575050610aff9582915190845af4913d156113f6573d6113e86113df82611d14565b92519283611cdc565b81528581943d92013e61263f565b506060925061263f565b95509550505050503461141257505080f35b63b398979f60e01b8152fd5b8651634c9c8ce360e01b8152808501849052fd5b8751632a87526960e21b815280860191909152fd5b9091508481813d8311611473575b61145f8183611cdc565b8101031261146f57519038611328565b8680fd5b503d611455565b865163e2517d3f60e01b815233818b0152808b0191909152604490fd5b855163703e46dd60e11b81528890fd5b9050817f360894a13ba1a3210667c828492db98dca3e2076cc3735a920a3ca505d382bbc54161415386112bb565b8580fd5b9050346106a457816003193601126106a4576114f3611c60565b906114fc611c7b565b7ff0c57e16840df040f15088dc2f81fe391c3923bec73e23a9662efc9c229c6a009283549260ff84871c16159367ffffffffffffffff81168015908161174c575b6001149081611742575b159081611739575b5061172a5767ffffffffffffffff19811660011786558461170b575b506001600160a01b039182169182156116b757831615611668575090738943cced9dae2e4552820834d14134362ad6d46a61161e926115a86125fe565b6115b06125fe565b6115b86125fe565b6115c06125fe565b6001600080516020612703833981519152556115da6125fe565b6001600160601b0360a01b90816002541617600255875416178655610bb860015561160481612023565b5061160e816120b1565b5061161881612161565b5061220b565b50611627578280f35b805468ff00000000000000001916905551600181527fc7f505b2f371ae2175ee4913f4499e1f2633a7b5936321eed1cdaeb6115181d290602090a138808280f35b608490602087519162461bcd60e51b83528201526024808201527f50726f6a656374457363726f773a2061646d696e206973207a65726f206164646044820152637265737360e01b6064820152fd5b865162461bcd60e51b8152602081840152602860248201527f50726f6a656374457363726f773a2046494e20746f6b656e206973207a65726f604482015267206164647265737360c01b6064820152608490fd5b68ffffffffffffffffff1916680100000000000000011785553861156b565b50855163f92ee8a960e01b8152fd5b9050153861154f565b303b159150611547565b86915061153d565b505034610210578160031936011261021057602090517f408a36151f841709116a4e8aca4e0202874f7f54687dcb863b1ea4672dc9d8cf8152f35b9050346106a457826003193601126106a4576117a9611f64565b6000805160206126e38339815191529081549060ff8216156117f9575060ff19169055513381527f5db9ee0a495bf2e6ff9c91a7834c1ba4fdd244a5e8aa4e537bd38aeae4b073aa90602090a180f35b8351638dfc202b60e01b8152fd5b50503461021057816003193601126102105760209051620151808152f35b5050346102105781600319360112610210576020905169021e19e0c9bab24000008152f35b50503461021057816003193601126102105760209051610bb88152f35b838334610210578060031936011261021057611881611c7b565b90336001600160a01b0383160361189e5750610aff91923561232a565b5163334bd91960e11b81528390fd5b919050346106a457806003193601126106a457610aff91356118d26001610adb611c7b565b6122b5565b9050346106a45760203660031901126106a4578035916118f5611f64565b82845260036020528320908082019081549060ff821690600382101561199857509061192360029215611d30565b60ff19161790556001810154600382015461193d91611d86565b80611976575b50546001600160a01b0316907fab770a3208518c5616af297c14f45e2e7294dffbb8b13fff5213874b7a6420728380a380f35b600254825461199292916001600160a01b039182169116611fd1565b38611943565b634e487b7160e01b875260219052602486fd5b9050346106a45760203660031901126106a457816020936001923581526000805160206126c383398151915285522001549051908152f35b50503461021057816003193601126102105760025490516001600160a01b039091168152602090f35b905082346102ae5760203660031901126102ae57506020608492611a2e611c60565b505162461bcd60e51b815291820152602560248201527f50726f6a656374457363726f773a20726563697069656e7420697320696d6d756044820152647461626c6560d81b6064820152fd5b9050346106a457816003193601126106a45780359160243591611a9b611e8f565b611aa3611ebf565b611aab611eea565b838552602081905281852060018101549091906001600160a01b031615611b125750916020918160077fe164b1e1db9272d9cf0c98816f78bde86b33ae0dad5c1745900d943fced9c3a595015551908152a260016000805160206127038339815191525580f35b606490602084519162461bcd60e51b8352820152601d60248201527f50726f6a656374457363726f773a207461736b206e6f7420666f756e640000006044820152fd5b905082346102ae5760203660031901126102ae57506020608492519162461bcd60e51b8352820152602260248201527f50726f6a656374457363726f773a206665652069732066697865642061742033604482015261302560f01b6064820152fd5b8491346106a45760203660031901126106a4573563ffffffff60e01b81168091036106a45760209250637965db0b60e01b8114908115611bf9575b5015158152f35b6301ffc9a760e01b14905083611bf2565b939197969592909760e085019860018060a01b031685526020850152604084015260608301526003831015611c4a5760c092608083015260a08201520152565b634e487b7160e01b600052602160045260246000fd5b600435906001600160a01b0382168203611c7657565b600080fd5b602435906001600160a01b0382168203611c7657565b9081526001600160a01b03909116602082015260408101919091526101008101969594919390926005851015611c4a5760e0946060850152608084015260a083015260c08201520152565b90601f8019910116810190811067ffffffffffffffff821117611cfe57604052565b634e487b7160e01b600052604160045260246000fd5b67ffffffffffffffff8111611cfe57601f01601f191660200190565b15611d3757565b60405162461bcd60e51b815260206004820152602160248201527f50726f6a656374457363726f773a2070726f6a656374206e6f742061637469766044820152606560f81b6064820152608490fd5b91908203918211611d9357565b634e487b7160e01b600052601160045260246000fd5b15611db057565b60405162461bcd60e51b815260206004820152602c60248201527f50726f6a656374457363726f773a20616d6f756e74206d75737420626520677260448201526b06561746572207468616e20360a41b6064820152608490fd5b6000198114611d935760010190565b81810292918115918404141715611d9357565b91908201809211611d9357565b15611e4057565b60405162461bcd60e51b815260206004820152602160248201527f50726f6a656374457363726f773a207461736b206e6f7420636f6d706c6574656044820152601960fa1b6064820152608490fd5b6000805160206127038339815191526002815414611ead5760029055565b604051633ee5aeb560e01b8152600490fd5b60ff6000805160206126e38339815191525416611ed857565b60405163d93c066560e01b8152600490fd5b3360009081527f06484cc59dc38e4f67c31122333a17ca81b3ca18cdf02bfc298072fa52b0316a60205260409020547f241ecf16d79d0f8dbfb92cbc07fe17840425976cf0667f022fe9877caa831b089060ff1615611f465750565b6044906040519063e2517d3f60e01b82523360048301526024820152fd5b3360009081527fb7db2dd08fcb62d0c9e08c51941cae53c267786a0b75803fb7960902fc8ef97d602052604081205460ff1615611f465750565b806000526000805160206126c383398151915260205260406000203360005260205260ff6040600020541615611f465750565b60405163a9059cbb60e01b60208201526001600160a01b039092166024830152604480830193909352918152608081019167ffffffffffffffff831182841017611cfe5761202192604052612596565b565b6001600160a01b031660008181527fb7db2dd08fcb62d0c9e08c51941cae53c267786a0b75803fb7960902fc8ef97d60205260408120549091906000805160206126c38339815191529060ff166120ac578280526020526040822081835260205260408220600160ff1982541617905533916000805160206126a38339815191528180a4600190565b505090565b6001600160a01b031660008181527f06484cc59dc38e4f67c31122333a17ca81b3ca18cdf02bfc298072fa52b0316a60205260408120549091907f241ecf16d79d0f8dbfb92cbc07fe17840425976cf0667f022fe9877caa831b08906000805160206126c38339815191529060ff1661215b578184526020526040832082845260205260408320600160ff198254161790556000805160206126a3833981519152339380a4600190565b50505090565b6001600160a01b031660008181527fdd2b03978755574964de3a540f0737454491b33185af74da97113472c72356d760205260408120549091907f408a36151f841709116a4e8aca4e0202874f7f54687dcb863b1ea4672dc9d8cf906000805160206126c38339815191529060ff1661215b578184526020526040832082845260205260408320600160ff198254161790556000805160206126a3833981519152339380a4600190565b6001600160a01b031660008181527fab71e3f32666744d246edff3f96e4bdafee2e9867098cdd118a979a7464786a860205260408120549091907f189ab7a9244df0848122154315af71fe140f3db0fe014031783b0946b8c9d2e3906000805160206126c38339815191529060ff1661215b578184526020526040832082845260205260408320600160ff198254161790556000805160206126a3833981519152339380a4600190565b906000918083526000805160206126c383398151915280602052604084209260018060a01b03169283855260205260ff6040852054161560001461215b578184526020526040832082845260205260408320600160ff198254161790556000805160206126a3833981519152339380a4600190565b906000918083526000805160206126c383398151915280602052604084209260018060a01b03169283855260205260ff60408520541660001461215b57818452602052604083208284526020526040832060ff1981541690557ff6391f5c32d9c69d2a47ea670b442974b53935d1edc7fd64eb21e047a839171b339380a4600190565b6000908082526004602052604091828120926003840180549060ff821660058110156125825760026123df9114611e39565b600286019182549169021e19e0c9bab2400000831015612523575b61241e916003918954885282602052828789209260ff191617905501918254611e2c565b90555461271061243060015483611e19565b049061243c8282611d86565b845490966001600160a01b039290918316908115158061251a575b1561250f57509061246e8484938460025416611fd1565b61248688600184600254169301928484541690611fd1565b5416857f21d71db5be59bb9fa133895586b7404307dd33fb93b16db09dc6f1d9d7d231b0602086518a8152a381151580612503575b6124c8575b505050505050565b7f64687f8f42032f5db03c3cf2d2ea692d7e5e64bd9e78e890fc2dd2d2b81906b89354169482519182526020820152a33880808080806124c0565b508084541615156124bb565b97508291905061246e565b50841515612457565b6002600689015410156123fa57845162461bcd60e51b815260206004820152602560248201527f50726f6a656374457363726f773a20696e73756666696369656e7420617070726044820152646f76616c7360d81b6064820152608490fd5b634e487b7160e01b85526021600452602485fd5b906000602091828151910182855af1156125f2576000513d6125e957506001600160a01b0381163b155b6125c75750565b604051635274afe760e01b81526001600160a01b039091166004820152602490fd5b600114156125c0565b6040513d6000823e3d90fd5b60ff7ff0c57e16840df040f15088dc2f81fe391c3923bec73e23a9662efc9c229c6a005460401c161561262d57565b604051631afcd79f60e31b8152600490fd5b90612666575080511561265457602081519101fd5b60405163d6bda27560e01b8152600490fd5b81511580612699575b612677575090565b604051639996b31560e01b81526001600160a01b039091166004820152602490fd5b50803b1561266f56fe2f8788117e7eff1d82e926ec794901d17c78024a50270940304540a733656f0d02dd7bc7dec4dceedda775e58dd541e08a116c6c53815c0bd028192f7b626800cd5ed15c6e187e77e9aee88184c21f4f2182ab5827cb3b7e07fbedcd63f033009b779b17422d0df92223018b32b4d1fa46e071723d6817e2486d003becc55f00a2646970667358221220ed0a24eb32c492cf5eb4343cfe1fd45b661fe7a8fda71efed0a93928bed7f1ab64736f6c63430008180033","opcodes":"PUSH1 0xA0 DUP1 PUSH1 0x40 MSTORE CALLVALUE PUSH2 0xCC JUMPI ADDRESS PUSH1 0x80 MSTORE PUSH32 0xF0C57E16840DF040F15088DC2F81FE391C3923BEC73E23A9662EFC9C229C6A00 SWAP1 DUP2 SLOAD SWAP1 PUSH1 0xFF DUP3 PUSH1 0x40 SHR AND PUSH2 0xBD JUMPI POP PUSH1 0x1 PUSH1 0x1 PUSH1 0x40 SHL SUB PUSH1 0x2 PUSH1 0x1 PUSH1 0x40 SHL SUB NOT DUP3 DUP3 AND ADD PUSH2 0x78 JUMPI JUMPDEST PUSH1 0x40 MLOAD PUSH2 0x2758 SWAP1 DUP2 PUSH2 0xD2 DUP3 CODECOPY PUSH1 0x80 MLOAD DUP2 DUP2 DUP2 PUSH2 0x11AF ADD MSTORE PUSH2 0x128F ADD MSTORE RETURN JUMPDEST PUSH1 0x1 PUSH1 0x1 PUSH1 0x40 SHL SUB NOT SWAP1 SWAP2 AND DUP2 OR SWAP1 SWAP2 SSTORE PUSH1 0x40 MLOAD SWAP1 DUP2 MSTORE PUSH32 0xC7F505B2F371AE2175EE4913F4499E1F2633A7B5936321EED1CDAEB6115181D2 SWAP1 PUSH1 0x20 SWAP1 LOG1 CODESIZE DUP1 DUP1 PUSH2 0x59 JUMP JUMPDEST PUSH4 0xF92EE8A9 PUSH1 0xE0 SHL DUP2 MSTORE PUSH1 0x4 SWAP1 REVERT JUMPDEST PUSH1 0x0 DUP1 REVERT INVALID PUSH1 0x80 PUSH1 0x40 DUP2 DUP2 MSTORE PUSH1 0x4 SWAP2 DUP3 CALLDATASIZE LT ISZERO PUSH2 0x16 JUMPI PUSH1 0x0 DUP1 REVERT JUMPDEST PUSH1 0x0 SWAP3 DUP4 CALLDATALOAD PUSH1 0xE0 SHR SWAP2 DUP3 PUSH4 0x1FFC9A7 EQ PUSH2 0x1BB7 JUMPI POP DUP2 PUSH4 0x107046BD EQ PUSH2 0x24E JUMPI DUP2 PUSH4 0x12E8E2C3 EQ PUSH2 0x1B55 JUMPI DUP2 PUSH4 0x16D924EF EQ PUSH2 0x1A7A JUMPI DUP2 PUSH4 0x1871E243 EQ PUSH2 0x1A0C JUMPI DUP2 PUSH4 0x1D65E77E EQ PUSH2 0xD95 JUMPI DUP2 PUSH4 0x1DF4111B EQ PUSH2 0x19E3 JUMPI DUP2 PUSH4 0x248A9CA3 EQ PUSH2 0x19AB JUMPI DUP2 PUSH4 0x24941147 EQ PUSH2 0x18D7 JUMPI DUP2 PUSH4 0x2F2FF15D EQ PUSH2 0x18AD JUMPI DUP2 PUSH4 0x36568ABE EQ PUSH2 0x1867 JUMPI DUP2 PUSH4 0x3998A681 EQ PUSH2 0x184A JUMPI DUP2 PUSH4 0x3AB34290 EQ PUSH2 0x1825 JUMPI DUP2 PUSH4 0x3D7FAA40 EQ PUSH2 0x1807 JUMPI DUP2 PUSH4 0x3F4BA83A EQ PUSH2 0x178F JUMPI DUP2 PUSH4 0x4245962B EQ PUSH2 0x1754 JUMPI DUP2 PUSH4 0x485CC955 EQ PUSH2 0x14D9 JUMPI DUP2 PUSH4 0x4F1EF286 EQ PUSH2 0x1213 JUMPI DUP2 PUSH4 0x52D1902D EQ PUSH2 0x119A JUMPI DUP2 PUSH4 0x58671730 EQ PUSH2 0x117B JUMPI DUP2 PUSH4 0x599C5533 EQ PUSH2 0x115F JUMPI DUP2 PUSH4 0x5C975ABB EQ PUSH2 0x112E JUMPI DUP2 PUSH4 0x6C563ABE EQ PUSH2 0x100A JUMPI DUP2 PUSH4 0x6F4532C2 EQ PUSH2 0xFDB JUMPI DUP2 PUSH4 0x7EEC20A8 EQ PUSH2 0xE5E JUMPI DUP2 PUSH4 0x8456CB59 EQ PUSH2 0xDF6 JUMPI DUP2 PUSH4 0x8D977672 EQ PUSH2 0xD95 JUMPI DUP2 PUSH4 0x91D14854 EQ PUSH2 0xD41 JUMPI DUP2 PUSH4 0xA217FDDF EQ PUSH2 0xD26 JUMPI DUP2 PUSH4 0xA4B2409E EQ PUSH2 0xBC1 JUMPI DUP2 PUSH4 0xAD3CB1CC EQ PUSH2 0xB22 JUMPI DUP2 PUSH4 0xCDD78CFC EQ PUSH2 0xB03 JUMPI DUP2 PUSH4 0xD547741F EQ PUSH2 0xAB6 JUMPI DUP2 PUSH4 0xDAC87CA4 EQ PUSH2 0x880 JUMPI DUP2 PUSH4 0xDE14C818 EQ PUSH2 0x6A8 JUMPI DUP2 PUSH4 0xE1E29558 EQ PUSH2 0x4FF JUMPI DUP2 PUSH4 0xEB13554F EQ PUSH2 0x4D7 JUMPI DUP2 PUSH4 0xEC87621C EQ PUSH2 0x49C JUMPI DUP2 PUSH4 0xEEEB241F EQ PUSH2 0x2B1 JUMPI DUP2 PUSH4 0xF0F3F2C8 EQ PUSH2 0x24E JUMPI POP DUP1 PUSH4 0xF72C0D8B EQ PUSH2 0x214 JUMPI PUSH4 0xF8A518ED EQ PUSH2 0x1F3 JUMPI PUSH1 0x0 DUP1 REVERT JUMPDEST CALLVALUE PUSH2 0x210 JUMPI DUP2 PUSH1 0x3 NOT CALLDATASIZE ADD SLT PUSH2 0x210 JUMPI PUSH1 0x20 SWAP1 PUSH1 0x5 SLOAD SWAP1 MLOAD SWAP1 DUP2 MSTORE RETURN JUMPDEST POP DUP1 REVERT JUMPDEST POP CALLVALUE PUSH2 0x210 JUMPI DUP2 PUSH1 0x3 NOT CALLDATASIZE ADD SLT PUSH2 0x210 JUMPI PUSH1 0x20 SWAP1 MLOAD PUSH32 0x189AB7A9244DF0848122154315AF71FE140F3DB0FE014031783B0946B8C9D2E3 DUP2 MSTORE RETURN JUMPDEST DUP3 DUP5 CALLVALUE PUSH2 0x2AE JUMPI PUSH1 0x20 CALLDATASIZE PUSH1 0x3 NOT ADD SLT PUSH2 0x2AE JUMPI DUP2 PUSH2 0x2AA SWAP2 DUP5 CALLDATALOAD DUP2 MSTORE PUSH1 0x3 PUSH1 0x20 MSTORE KECCAK256 SWAP2 PUSH1 0x1 DUP1 PUSH1 0xA0 SHL SUB DUP4 SLOAD AND SWAP3 PUSH1 0x1 DUP2 ADD SLOAD SWAP5 PUSH1 0x2 DUP3 ADD SLOAD SWAP1 PUSH1 0xFF PUSH1 0x3 DUP5 ADD SLOAD SWAP2 DUP5 ADD SLOAD AND SWAP2 PUSH1 0x6 PUSH1 0x5 DUP6 ADD SLOAD SWAP5 ADD SLOAD SWAP5 MLOAD SWAP8 DUP9 SWAP8 DUP9 PUSH2 0x1C0A JUMP JUMPDEST SUB SWAP1 RETURN JUMPDEST DUP1 REVERT JUMPDEST DUP4 DUP4 CALLVALUE PUSH2 0x210 JUMPI PUSH1 0x60 CALLDATASIZE PUSH1 0x3 NOT ADD SLT PUSH2 0x210 JUMPI DUP3 CALLDATALOAD PUSH2 0x2CE PUSH2 0x1C7B JUMP JUMPDEST SWAP1 PUSH1 0x44 CALLDATALOAD SWAP4 PUSH2 0x2DB PUSH2 0x1E8F JUMP JUMPDEST PUSH2 0x2E3 PUSH2 0x1EBF JUMP JUMPDEST PUSH2 0x2EB PUSH2 0x1EEA JUMP JUMPDEST DUP2 DUP2 MSTORE PUSH1 0x20 SWAP5 PUSH1 0x3 DUP7 MSTORE DUP5 DUP3 KECCAK256 SWAP4 PUSH1 0xFF DUP9 DUP7 ADD SLOAD AND PUSH1 0x3 DUP2 LT ISZERO PUSH2 0x489 JUMPI PUSH2 0x313 SWAP1 ISZERO PUSH2 0x1D30 JUMP JUMPDEST PUSH1 0x1 PUSH1 0x1 PUSH1 0xA0 SHL SUB AND SWAP4 DUP5 ISZERO PUSH2 0x438 JUMPI PUSH2 0x32E DUP3 ISZERO ISZERO PUSH2 0x1DA9 JUMP JUMPDEST PUSH1 0x2 DUP2 ADD SWAP1 PUSH1 0x1 PUSH2 0x340 DUP5 DUP5 SLOAD PUSH2 0x1E2C JUMP JUMPDEST SWAP2 ADD SLOAD LT PUSH2 0x3E3 JUMPI SWAP6 PUSH32 0xE6D74276B833DC8370DD737EF626F0132A4702F6FE28F4088BD1341A5C16245B SWAP2 DUP7 SWAP8 DUP3 SWAP10 PUSH2 0x37A PUSH1 0x6 SLOAD PUSH2 0x1E0A JUMP JUMPDEST SWAP10 DUP11 SWAP7 DUP8 PUSH1 0x6 SSTORE DUP8 DUP2 MSTORE DUP3 DUP7 MSTORE KECCAK256 SWAP1 DUP8 DUP3 SSTORE PUSH1 0x1 DUP3 ADD DUP10 PUSH1 0x1 PUSH1 0x1 PUSH1 0x60 SHL SUB PUSH1 0xA0 SHL DUP3 SLOAD AND OR SWAP1 SSTORE DUP4 PUSH1 0x2 DUP4 ADD SSTORE PUSH1 0x3 DUP3 ADD PUSH1 0xFF NOT DUP2 SLOAD AND SWAP1 SSTORE TIMESTAMP SWAP2 ADD SSTORE PUSH2 0x3C3 DUP3 DUP3 SLOAD PUSH2 0x1E2C JUMP JUMPDEST SWAP1 SSTORE DUP7 MLOAD SWAP1 DUP2 MSTORE LOG4 PUSH1 0x1 PUSH1 0x0 DUP1 MLOAD PUSH1 0x20 PUSH2 0x2703 DUP4 CODECOPY DUP2 MLOAD SWAP2 MSTORE SSTORE MLOAD SWAP1 DUP2 MSTORE RETURN JUMPDEST DUP6 MLOAD PUSH3 0x461BCD PUSH1 0xE5 SHL DUP2 MSTORE DUP1 DUP10 ADD DUP9 SWAP1 MSTORE PUSH1 0x29 PUSH1 0x24 DUP3 ADD MSTORE PUSH32 0x50726F6A656374457363726F773A20696E73756666696369656E742070726F6A PUSH1 0x44 DUP3 ADD MSTORE PUSH9 0x6563742066756E6473 PUSH1 0xB8 SHL PUSH1 0x64 DUP3 ADD MSTORE PUSH1 0x84 SWAP1 REVERT JUMPDEST DUP6 MLOAD PUSH3 0x461BCD PUSH1 0xE5 SHL DUP2 MSTORE DUP1 DUP10 ADD DUP9 SWAP1 MSTORE PUSH1 0x25 PUSH1 0x24 DUP3 ADD MSTORE PUSH32 0x50726F6A656374457363726F773A20776F726B6572206973207A65726F206164 PUSH1 0x44 DUP3 ADD MSTORE PUSH5 0x6472657373 PUSH1 0xD8 SHL PUSH1 0x64 DUP3 ADD MSTORE PUSH1 0x84 SWAP1 REVERT JUMPDEST PUSH4 0x4E487B71 PUSH1 0xE0 SHL DUP5 MSTORE PUSH1 0x21 DUP10 MSTORE PUSH1 0x24 DUP5 REVERT JUMPDEST POP POP CALLVALUE PUSH2 0x210 JUMPI DUP2 PUSH1 0x3 NOT CALLDATASIZE ADD SLT PUSH2 0x210 JUMPI PUSH1 0x20 SWAP1 MLOAD PUSH32 0x241ECF16D79D0F8DBFB92CBC07FE17840425976CF0667F022FE9877CAA831B08 DUP2 MSTORE RETURN JUMPDEST POP POP CALLVALUE PUSH2 0x210 JUMPI DUP2 PUSH1 0x3 NOT CALLDATASIZE ADD SLT PUSH2 0x210 JUMPI SWAP1 SLOAD SWAP1 MLOAD PUSH1 0x1 PUSH1 0x1 PUSH1 0xA0 SHL SUB SWAP1 SWAP2 AND DUP2 MSTORE PUSH1 0x20 SWAP1 RETURN JUMPDEST SWAP2 SWAP1 POP CALLVALUE PUSH2 0x6A4 JUMPI PUSH1 0x20 CALLDATASIZE PUSH1 0x3 NOT ADD SLT PUSH2 0x6A4 JUMPI DUP2 CALLDATALOAD SWAP2 PUSH2 0x51E PUSH2 0x1E8F JUMP JUMPDEST PUSH2 0x526 PUSH2 0x1EBF JUMP JUMPDEST DUP3 DUP5 MSTORE PUSH1 0x20 DUP2 SWAP1 MSTORE DUP2 DUP5 KECCAK256 PUSH1 0x1 DUP2 ADD SLOAD SWAP1 SWAP3 SWAP1 PUSH1 0x1 PUSH1 0x1 PUSH1 0xA0 SHL SUB AND CALLER SUB PUSH2 0x64C JUMPI PUSH1 0x3 DUP4 ADD SWAP2 DUP3 SLOAD SWAP2 PUSH1 0xFF DUP4 AND PUSH1 0x5 DUP2 LT ISZERO PUSH2 0x639 JUMPI DUP1 ISZERO SWAP1 DUP2 ISZERO PUSH2 0x62E JUMPI JUMPDEST POP ISZERO PUSH2 0x5E0 JUMPI POP POP PUSH1 0xFF NOT AND PUSH1 0x2 SWAP1 DUP2 OR SWAP1 SWAP2 SSTORE TIMESTAMP PUSH1 0x5 DUP4 ADD SSTORE PUSH10 0x21E19E0C9BAB2400000 SWAP2 CALLER DUP5 PUSH32 0xBB5889C77948BADF90E8A5C73D55265E5F5D6E4837A79A78C5669691B897FAED DUP8 DUP1 LOG3 ADD SLOAD LT PUSH2 0x5D1 JUMPI JUMPDEST POP PUSH1 0x1 PUSH1 0x0 DUP1 MLOAD PUSH1 0x20 PUSH2 0x2703 DUP4 CODECOPY DUP2 MLOAD SWAP2 MSTORE SSTORE DUP1 RETURN JUMPDEST PUSH2 0x5DA SWAP1 PUSH2 0x23AD JUMP JUMPDEST CODESIZE PUSH2 0x5BB JUMP JUMPDEST SWAP1 PUSH1 0x20 PUSH1 0x84 SWAP3 MLOAD SWAP2 PUSH3 0x461BCD PUSH1 0xE5 SHL DUP4 MSTORE DUP3 ADD MSTORE PUSH1 0x22 PUSH1 0x24 DUP3 ADD MSTORE PUSH32 0x50726F6A656374457363726F773A20696E76616C6964207461736B2073746174 PUSH1 0x44 DUP3 ADD MSTORE PUSH2 0x7573 PUSH1 0xF0 SHL PUSH1 0x64 DUP3 ADD MSTORE REVERT JUMPDEST PUSH1 0x1 SWAP2 POP EQ CODESIZE PUSH2 0x567 JUMP JUMPDEST PUSH4 0x4E487B71 PUSH1 0xE0 SHL DUP9 MSTORE PUSH1 0x21 DUP4 MSTORE PUSH1 0x24 DUP9 REVERT JUMPDEST SWAP1 PUSH1 0x20 PUSH1 0x84 SWAP3 MLOAD SWAP2 PUSH3 0x461BCD PUSH1 0xE5 SHL DUP4 MSTORE DUP3 ADD MSTORE PUSH1 0x2C PUSH1 0x24 DUP3 ADD MSTORE PUSH32 0x50726F6A656374457363726F773A206F6E6C7920776F726B65722063616E2063 PUSH1 0x44 DUP3 ADD MSTORE PUSH12 0x6F6D706C657465207461736B PUSH1 0xA0 SHL PUSH1 0x64 DUP3 ADD MSTORE REVERT JUMPDEST DUP3 DUP1 REVERT JUMPDEST SWAP2 SWAP1 POP CALLVALUE PUSH2 0x6A4 JUMPI PUSH1 0x20 SWAP1 DUP2 PUSH1 0x3 NOT CALLDATASIZE ADD SLT PUSH2 0x87C JUMPI DUP3 CALLDATALOAD SWAP3 PUSH32 0x408A36151F841709116A4E8ACA4E0202874F7F54687DCB863B1EA4672DC9D8CF DUP1 DUP7 MSTORE PUSH1 0x0 DUP1 MLOAD PUSH1 0x20 PUSH2 0x26C3 DUP4 CODECOPY DUP2 MLOAD SWAP2 MSTORE DUP5 MSTORE DUP3 DUP7 KECCAK256 CALLER DUP8 MSTORE DUP5 MSTORE PUSH1 0xFF DUP4 DUP8 KECCAK256 SLOAD AND ISZERO PUSH2 0x861 JUMPI POP DUP4 DUP6 MSTORE DUP1 DUP4 MSTORE DUP2 DUP6 KECCAK256 SWAP3 PUSH1 0xFF PUSH1 0x3 DUP6 ADD SLOAD AND PUSH1 0x5 DUP2 LT ISZERO PUSH2 0x84E JUMPI PUSH1 0x2 PUSH2 0x732 SWAP2 EQ PUSH2 0x1E39 JUMP JUMPDEST PUSH1 0x8 DUP5 ADD SWAP2 CALLER DUP8 MSTORE DUP3 DUP3 MSTORE PUSH1 0xFF DUP5 DUP9 KECCAK256 SLOAD AND PUSH2 0x80D JUMPI PUSH10 0x21E19E0C9BAB2400000 PUSH1 0x2 DUP7 ADD SLOAD LT PUSH2 0x7C0 JUMPI POP CALLER DUP7 MSTORE MSTORE DUP4 KECCAK256 DUP1 SLOAD PUSH1 0xFF NOT AND PUSH1 0x1 OR SWAP1 SSTORE PUSH1 0x6 ADD DUP1 SLOAD PUSH1 0x2 SWAP2 SWAP1 PUSH2 0x781 SWAP1 PUSH2 0x1E0A JUMP JUMPDEST DUP1 SWAP2 SSTORE CALLER DUP4 PUSH32 0x7C0257138BC682DCFF9EB84D702BF9118B11A37AB9AF95828EA7332C078EB93F DUP7 DUP1 LOG3 LT ISZERO PUSH2 0x7B4 JUMPI POP DUP1 RETURN JUMPDEST PUSH2 0x7BD SWAP1 PUSH2 0x23AD JUMP JUMPDEST DUP1 RETURN JUMPDEST PUSH1 0x84 SWAP2 DUP5 MLOAD SWAP2 PUSH3 0x461BCD PUSH1 0xE5 SHL DUP4 MSTORE DUP3 ADD MSTORE PUSH1 0x24 DUP1 DUP3 ADD MSTORE PUSH32 0x50726F6A656374457363726F773A20617070726F76616C206E6F742072657175 PUSH1 0x44 DUP3 ADD MSTORE PUSH4 0x1A5C9959 PUSH1 0xE2 SHL PUSH1 0x64 DUP3 ADD MSTORE REVERT JUMPDEST PUSH1 0x64 SWAP2 DUP5 MLOAD SWAP2 PUSH3 0x461BCD PUSH1 0xE5 SHL DUP4 MSTORE DUP3 ADD MSTORE PUSH1 0x1F PUSH1 0x24 DUP3 ADD MSTORE PUSH32 0x50726F6A656374457363726F773A20616C726561647920617070726F76656400 PUSH1 0x44 DUP3 ADD MSTORE REVERT JUMPDEST PUSH4 0x4E487B71 PUSH1 0xE0 SHL DUP8 MSTORE PUSH1 0x21 DUP4 MSTORE PUSH1 0x24 DUP8 REVERT JUMPDEST PUSH1 0x44 SWAP3 MLOAD SWAP2 PUSH4 0xE2517D3F PUSH1 0xE0 SHL DUP4 MSTORE CALLER SWAP1 DUP4 ADD MSTORE PUSH1 0x24 DUP3 ADD MSTORE REVERT JUMPDEST DUP4 DUP1 REVERT JUMPDEST DUP4 DUP4 CALLVALUE PUSH2 0x210 JUMPI PUSH1 0x20 DUP1 PUSH1 0x3 NOT CALLDATASIZE ADD SLT PUSH2 0x6A4 JUMPI DUP4 CALLDATALOAD SWAP1 PUSH2 0x89F PUSH2 0x1E8F JUMP JUMPDEST PUSH2 0x8A7 PUSH2 0x1EBF JUMP JUMPDEST DUP2 DUP5 MSTORE PUSH1 0x3 DUP2 MSTORE DUP3 DUP5 KECCAK256 DUP1 SLOAD PUSH1 0x1 PUSH1 0x1 PUSH1 0xA0 SHL SUB SWAP1 DUP2 AND SWAP7 SWAP2 CALLER DUP9 SUB PUSH2 0xA5B JUMPI PUSH1 0x6 DUP2 ADD SLOAD DUP1 ISZERO PUSH2 0xA0C JUMPI PUSH3 0x15180 DUP2 ADD DUP1 SWAP2 GT PUSH2 0x9F9 JUMPI TIMESTAMP LT PUSH2 0x9AA JUMPI PUSH2 0x8F8 PUSH1 0x1 DUP3 ADD SLOAD PUSH1 0x2 DUP4 ADD SLOAD SWAP1 PUSH2 0x1D86 JUMP JUMPDEST SWAP3 DUP4 ISZERO PUSH2 0x95D JUMPI DUP4 PUSH32 0x79FF6A60B3E21B3630B207E2A7B0B50B69B197D3D7CA776108ED2AFB8FBAC8DC SWAP7 SWAP8 SWAP9 SWAP10 PUSH2 0x940 SWAP3 DUP5 ADD PUSH1 0x1 PUSH1 0xFF NOT DUP3 SLOAD AND OR SWAP1 SSTORE DUP5 PUSH1 0x2 SLOAD AND PUSH2 0x1FD1 JUMP JUMPDEST SLOAD AND SWAP5 MLOAD SWAP1 DUP2 MSTORE LOG3 PUSH1 0x1 PUSH1 0x0 DUP1 MLOAD PUSH1 0x20 PUSH2 0x2703 DUP4 CODECOPY DUP2 MLOAD SWAP2 MSTORE SSTORE DUP1 RETURN JUMPDEST DUP7 MLOAD PUSH3 0x461BCD PUSH1 0xE5 SHL DUP2 MSTORE SWAP1 DUP2 ADD DUP6 SWAP1 MSTORE PUSH1 0x21 PUSH1 0x24 DUP3 ADD MSTORE PUSH32 0x50726F6A656374457363726F773A206E6F2066756E647320746F20726566756E PUSH1 0x44 DUP3 ADD MSTORE PUSH1 0x19 PUSH1 0xFA SHL PUSH1 0x64 DUP3 ADD MSTORE PUSH1 0x84 SWAP1 REVERT JUMPDEST DUP6 MLOAD PUSH3 0x461BCD PUSH1 0xE5 SHL DUP2 MSTORE DUP1 DUP5 ADD DUP6 SWAP1 MSTORE PUSH1 0x23 PUSH1 0x24 DUP3 ADD MSTORE PUSH32 0x50726F6A656374457363726F773A2074696D656C6F636B206E6F742065787069 PUSH1 0x44 DUP3 ADD MSTORE PUSH3 0x1C9959 PUSH1 0xEA SHL PUSH1 0x64 DUP3 ADD MSTORE PUSH1 0x84 SWAP1 REVERT JUMPDEST PUSH4 0x4E487B71 PUSH1 0xE0 SHL DUP9 MSTORE PUSH1 0x11 DUP5 MSTORE PUSH1 0x24 DUP9 REVERT JUMPDEST DUP7 MLOAD PUSH3 0x461BCD PUSH1 0xE5 SHL DUP2 MSTORE DUP1 DUP6 ADD DUP7 SWAP1 MSTORE PUSH1 0x23 PUSH1 0x24 DUP3 ADD MSTORE PUSH32 0x50726F6A656374457363726F773A20726566756E64206E6F7420726571756573 PUSH1 0x44 DUP3 ADD MSTORE PUSH3 0x1D1959 PUSH1 0xEA SHL PUSH1 0x64 DUP3 ADD MSTORE PUSH1 0x84 SWAP1 REVERT JUMPDEST DUP6 MLOAD PUSH3 0x461BCD PUSH1 0xE5 SHL DUP2 MSTORE DUP1 DUP5 ADD DUP6 SWAP1 MSTORE PUSH1 0x2F PUSH1 0x24 DUP3 ADD MSTORE PUSH32 0x50726F6A656374457363726F773A206F6E6C7920656D706C6F7965722063616E PUSH1 0x44 DUP3 ADD MSTORE PUSH15 0x81C1C9BD8D95CDCC81C99599D5B99 PUSH1 0x8A SHL PUSH1 0x64 DUP3 ADD MSTORE PUSH1 0x84 SWAP1 REVERT JUMPDEST SWAP2 SWAP1 POP CALLVALUE PUSH2 0x6A4 JUMPI DUP1 PUSH1 0x3 NOT CALLDATASIZE ADD SLT PUSH2 0x6A4 JUMPI PUSH2 0xAFF SWAP2 CALLDATALOAD PUSH2 0xAFA PUSH1 0x1 PUSH2 0xADB PUSH2 0x1C7B JUMP JUMPDEST SWAP4 DUP4 DUP8 MSTORE PUSH1 0x0 DUP1 MLOAD PUSH1 0x20 PUSH2 0x26C3 DUP4 CODECOPY DUP2 MLOAD SWAP2 MSTORE PUSH1 0x20 MSTORE DUP7 KECCAK256 ADD SLOAD PUSH2 0x1F9E JUMP JUMPDEST PUSH2 0x232A JUMP JUMPDEST POP DUP1 RETURN JUMPDEST POP POP CALLVALUE PUSH2 0x210 JUMPI DUP2 PUSH1 0x3 NOT CALLDATASIZE ADD SLT PUSH2 0x210 JUMPI PUSH1 0x20 SWAP1 PUSH1 0x1 SLOAD SWAP1 MLOAD SWAP1 DUP2 MSTORE RETURN JUMPDEST SWAP1 POP CALLVALUE PUSH2 0x6A4 JUMPI DUP3 PUSH1 0x3 NOT CALLDATASIZE ADD SLT PUSH2 0x6A4 JUMPI DUP2 MLOAD SWAP1 DUP3 DUP3 ADD SWAP1 DUP3 DUP3 LT PUSH8 0xFFFFFFFFFFFFFFFF DUP4 GT OR PUSH2 0xBAE JUMPI POP DUP3 MSTORE PUSH1 0x5 DUP2 MSTORE PUSH1 0x20 SWAP1 PUSH5 0x352E302E3 PUSH1 0xDC SHL PUSH1 0x20 DUP3 ADD MSTORE DUP3 MLOAD SWAP4 DUP5 SWAP3 PUSH1 0x20 DUP5 MSTORE DUP3 MLOAD SWAP3 DUP4 PUSH1 0x20 DUP7 ADD MSTORE DUP3 JUMPDEST DUP5 DUP2 LT PUSH2 0xB98 JUMPI POP POP POP DUP3 DUP3 ADD DUP5 ADD MSTORE PUSH1 0x1F ADD PUSH1 0x1F NOT AND DUP2 ADD SUB ADD SWAP1 RETURN JUMPDEST DUP2 DUP2 ADD DUP4 ADD MLOAD DUP9 DUP3 ADD DUP9 ADD MSTORE DUP8 SWAP6 POP DUP3 ADD PUSH2 0xB7A JUMP JUMPDEST PUSH4 0x4E487B71 PUSH1 0xE0 SHL DUP6 MSTORE PUSH1 0x41 SWAP1 MSTORE PUSH1 0x24 DUP5 REVERT JUMPDEST SWAP2 SWAP1 POP CALLVALUE PUSH2 0x6A4 JUMPI PUSH1 0x20 CALLDATASIZE PUSH1 0x3 NOT ADD SLT PUSH2 0x6A4 JUMPI DUP2 CALLDATALOAD SWAP2 PUSH2 0xBE0 PUSH2 0x1E8F JUMP JUMPDEST DUP3 DUP5 MSTORE PUSH1 0x3 PUSH1 0x20 MSTORE DUP2 DUP5 KECCAK256 DUP1 SLOAD PUSH1 0x1 PUSH1 0x1 PUSH1 0xA0 SHL SUB AND CALLER SUB PUSH2 0xCCB JUMPI PUSH1 0xFF DUP3 DUP3 ADD SLOAD AND PUSH1 0x3 DUP2 LT ISZERO PUSH2 0xCB8 JUMPI SWAP1 PUSH2 0xC19 PUSH1 0x6 SWAP3 ISZERO PUSH2 0x1D30 JUMP JUMPDEST ADD SWAP1 DUP2 SLOAD PUSH2 0xC65 JUMPI POP TIMESTAMP SWAP1 SSTORE MLOAD SWAP1 TIMESTAMP DUP3 MSTORE PUSH32 0x6706020A65600B3496005CFD282DBBD692A827197E34C20E4A0FC2FA21D3EFF2 PUSH1 0x20 CALLER SWAP4 LOG3 PUSH1 0x1 PUSH1 0x0 DUP1 MLOAD PUSH1 0x20 PUSH2 0x2703 DUP4 CODECOPY DUP2 MLOAD SWAP2 MSTORE SSTORE DUP1 RETURN JUMPDEST PUSH1 0x84 SWAP1 PUSH1 0x20 DUP5 MLOAD SWAP2 PUSH3 0x461BCD PUSH1 0xE5 SHL DUP4 MSTORE DUP3 ADD MSTORE PUSH1 0x27 PUSH1 0x24 DUP3 ADD MSTORE PUSH32 0x50726F6A656374457363726F773A20726566756E6420616C7265616479207265 PUSH1 0x44 DUP3 ADD MSTORE PUSH7 0x1C5D595CDD1959 PUSH1 0xCA SHL PUSH1 0x64 DUP3 ADD MSTORE REVERT JUMPDEST PUSH4 0x4E487B71 PUSH1 0xE0 SHL DUP7 MSTORE PUSH1 0x21 DUP4 MSTORE PUSH1 0x24 DUP7 REVERT JUMPDEST POP PUSH1 0x20 PUSH1 0x84 SWAP3 MLOAD SWAP2 PUSH3 0x461BCD PUSH1 0xE5 SHL DUP4 MSTORE DUP3 ADD MSTORE PUSH1 0x2F PUSH1 0x24 DUP3 ADD MSTORE PUSH32 0x50726F6A656374457363726F773A206F6E6C7920656D706C6F7965722063616E PUSH1 0x44 DUP3 ADD MSTORE PUSH15 0x81C995C5D595CDD081C99599D5B99 PUSH1 0x8A SHL PUSH1 0x64 DUP3 ADD MSTORE REVERT JUMPDEST POP POP CALLVALUE PUSH2 0x210 JUMPI DUP2 PUSH1 0x3 NOT CALLDATASIZE ADD SLT PUSH2 0x210 JUMPI MLOAD SWAP1 DUP2 MSTORE PUSH1 0x20 SWAP1 RETURN JUMPDEST SWAP1 POP CALLVALUE PUSH2 0x6A4 JUMPI DUP2 PUSH1 0x3 NOT CALLDATASIZE ADD SLT PUSH2 0x6A4 JUMPI DUP2 PUSH1 0x20 SWAP4 PUSH1 0xFF SWAP3 PUSH2 0xD62 PUSH2 0x1C7B JUMP JUMPDEST SWAP1 CALLDATALOAD DUP3 MSTORE PUSH1 0x0 DUP1 MLOAD PUSH1 0x20 PUSH2 0x26C3 DUP4 CODECOPY DUP2 MLOAD SWAP2 MSTORE DUP7 MSTORE DUP3 DUP3 KECCAK256 PUSH1 0x1 PUSH1 0x1 PUSH1 0xA0 SHL SUB SWAP1 SWAP2 AND DUP3 MSTORE DUP6 MSTORE KECCAK256 SLOAD SWAP2 MLOAD SWAP2 AND ISZERO ISZERO DUP2 MSTORE RETURN JUMPDEST DUP3 DUP5 CALLVALUE PUSH2 0x2AE JUMPI PUSH1 0x20 CALLDATASIZE PUSH1 0x3 NOT ADD SLT PUSH2 0x2AE JUMPI DUP2 PUSH2 0x2AA SWAP2 DUP5 CALLDATALOAD DUP2 MSTORE DUP5 PUSH1 0x20 MSTORE KECCAK256 SWAP2 DUP3 SLOAD SWAP3 PUSH1 0x1 DUP1 PUSH1 0xA0 SHL SUB PUSH1 0x1 DUP3 ADD SLOAD AND SWAP5 PUSH1 0x2 DUP3 ADD SLOAD SWAP1 PUSH1 0xFF PUSH1 0x3 DUP5 ADD SLOAD AND SWAP1 DUP4 ADD SLOAD SWAP1 PUSH1 0x5 DUP5 ADD SLOAD SWAP3 PUSH1 0x7 PUSH1 0x6 DUP7 ADD SLOAD SWAP6 ADD SLOAD SWAP6 MLOAD SWAP9 DUP10 SWAP9 DUP10 PUSH2 0x1C91 JUMP JUMPDEST POP POP CALLVALUE PUSH2 0x210 JUMPI DUP2 PUSH1 0x3 NOT CALLDATASIZE ADD SLT PUSH2 0x210 JUMPI PUSH1 0x20 PUSH32 0x62E78CEA01BEE320CD4E420270B5EA74000D11B0C9F74754EBDBFC544B05A258 SWAP2 PUSH2 0xE34 PUSH2 0x1F64 JUMP JUMPDEST PUSH2 0xE3C PUSH2 0x1EBF JUMP JUMPDEST PUSH1 0x0 DUP1 MLOAD PUSH1 0x20 PUSH2 0x26E3 DUP4 CODECOPY DUP2 MLOAD SWAP2 MSTORE DUP1 SLOAD PUSH1 0xFF NOT AND PUSH1 0x1 OR SWAP1 SSTORE MLOAD CALLER DUP2 MSTORE LOG1 DUP1 RETURN JUMPDEST SWAP1 POP CALLVALUE PUSH2 0x6A4 JUMPI PUSH1 0x20 CALLDATASIZE PUSH1 0x3 NOT ADD SLT PUSH2 0x6A4 JUMPI DUP1 CALLDATALOAD SWAP2 PUSH2 0xE7C PUSH2 0x1E8F JUMP JUMPDEST PUSH2 0xE84 PUSH2 0x1EBF JUMP JUMPDEST PUSH2 0xE8C PUSH2 0x1EEA JUMP JUMPDEST DUP3 DUP5 MSTORE DUP2 PUSH1 0x20 MSTORE DUP1 DUP5 KECCAK256 PUSH1 0x3 DUP2 ADD SWAP1 DUP2 SLOAD SWAP2 PUSH1 0xFF DUP4 AND PUSH1 0x5 DUP2 LT ISZERO PUSH2 0xFC8 JUMPI DUP1 ISZERO SWAP1 DUP2 ISZERO PUSH2 0xFBD JUMPI JUMPDEST POP ISZERO PUSH2 0xF54 JUMPI DUP2 SLOAD DUP8 MSTORE PUSH1 0x3 PUSH1 0x20 MSTORE DUP4 DUP8 KECCAK256 SWAP3 PUSH1 0xFF DUP7 DUP6 ADD SLOAD AND PUSH1 0x3 DUP2 LT ISZERO PUSH2 0xF41 JUMPI PUSH1 0x2 PUSH1 0x20 SWAP7 SWAP5 DUP9 SWAP7 SWAP5 PUSH32 0x9A4F521400D1B2F610A5C4845F80B4D79E3EC73D18E977AC9E0B0E6E741EC85F SWAP10 PUSH2 0xF25 SWAP6 PUSH2 0xF12 DUP6 SWAP7 ISZERO PUSH2 0x1D30 JUMP JUMPDEST PUSH1 0xFF NOT AND OR SWAP1 SSTORE ADD SLOAD SWAP3 ADD SWAP2 DUP3 SLOAD PUSH2 0x1D86 JUMP JUMPDEST SWAP1 SSTORE MLOAD SWAP1 DUP2 MSTORE LOG2 PUSH1 0x1 PUSH1 0x0 DUP1 MLOAD PUSH1 0x20 PUSH2 0x2703 DUP4 CODECOPY DUP2 MLOAD SWAP2 MSTORE SSTORE DUP1 RETURN JUMPDEST PUSH4 0x4E487B71 PUSH1 0xE0 SHL DUP10 MSTORE PUSH1 0x21 DUP8 MSTORE PUSH1 0x24 DUP10 REVERT JUMPDEST DUP4 MLOAD PUSH3 0x461BCD PUSH1 0xE5 SHL DUP2 MSTORE PUSH1 0x20 DUP2 DUP8 ADD MSTORE PUSH1 0x39 PUSH1 0x24 DUP3 ADD MSTORE PUSH32 0x50726F6A656374457363726F773A207461736B2063616E6E6F74206265206361 PUSH1 0x44 DUP3 ADD MSTORE PUSH32 0x6E63656C6C656420696E2063757272656E742073746174757300000000000000 PUSH1 0x64 DUP3 ADD MSTORE PUSH1 0x84 SWAP1 REVERT JUMPDEST PUSH1 0x1 SWAP2 POP EQ CODESIZE PUSH2 0xEB5 JUMP JUMPDEST PUSH4 0x4E487B71 PUSH1 0xE0 SHL DUP9 MSTORE PUSH1 0x21 DUP7 MSTORE PUSH1 0x24 DUP9 REVERT JUMPDEST DUP3 DUP5 CALLVALUE PUSH2 0x2AE JUMPI PUSH1 0x20 CALLDATASIZE PUSH1 0x3 NOT ADD SLT PUSH2 0x2AE JUMPI POP PUSH2 0x2710 PUSH2 0x1002 PUSH1 0x20 SWAP4 PUSH1 0x1 SLOAD SWAP1 CALLDATALOAD PUSH2 0x1E19 JUMP JUMPDEST DIV SWAP1 MLOAD SWAP1 DUP2 MSTORE RETURN JUMPDEST DUP4 DUP4 CALLVALUE PUSH2 0x210 JUMPI PUSH1 0x20 CALLDATASIZE PUSH1 0x3 NOT ADD SLT PUSH2 0x210 JUMPI DUP3 CALLDATALOAD PUSH2 0x1027 PUSH2 0x1E8F JUMP JUMPDEST PUSH2 0x102F PUSH2 0x1EBF JUMP JUMPDEST PUSH2 0x103A DUP2 ISZERO ISZERO PUSH2 0x1DA9 JUMP JUMPDEST PUSH2 0x1045 PUSH1 0x5 SLOAD PUSH2 0x1E0A JUMP JUMPDEST SWAP3 DUP4 PUSH1 0x5 SSTORE DUP4 DUP2 MSTORE PUSH1 0x3 PUSH1 0x20 MSTORE DUP3 DUP2 KECCAK256 CALLER PUSH1 0x1 PUSH1 0x1 PUSH1 0x60 SHL SUB PUSH1 0xA0 SHL DUP3 SLOAD AND OR DUP2 SSTORE DUP3 PUSH1 0x1 DUP3 ADD SSTORE DUP6 DUP2 ADD PUSH1 0xFF NOT DUP2 SLOAD AND SWAP1 SSTORE PUSH1 0x5 TIMESTAMP SWAP2 ADD SSTORE PUSH1 0x1 DUP1 PUSH1 0xA0 SHL SUB PUSH1 0x2 SLOAD AND DUP4 MLOAD SWAP2 PUSH4 0x23B872DD PUSH1 0xE0 SHL PUSH1 0x20 DUP5 ADD MSTORE CALLER PUSH1 0x24 DUP5 ADD MSTORE ADDRESS PUSH1 0x44 DUP5 ADD MSTORE DUP4 PUSH1 0x64 DUP5 ADD MSTORE PUSH1 0x64 DUP4 MSTORE PUSH1 0xA0 DUP4 ADD SWAP1 DUP4 DUP3 LT PUSH8 0xFFFFFFFFFFFFFFFF DUP4 GT OR PUSH2 0x111B JUMPI POP DUP5 MSTORE PUSH1 0x20 SWAP6 POP PUSH2 0x10D8 SWAP2 SWAP1 PUSH2 0x2596 JUMP JUMPDEST DUP2 MLOAD SWAP1 DUP2 MSTORE DUP3 PUSH32 0x6251418FFD7F504740544EC3D578897633E212C5D658B7DCE793C5DC9D2E855E DUP6 CALLER SWAP4 LOG3 PUSH1 0x1 PUSH1 0x0 DUP1 MLOAD PUSH1 0x20 PUSH2 0x2703 DUP4 CODECOPY DUP2 MLOAD SWAP2 MSTORE SSTORE MLOAD SWAP1 DUP2 MSTORE RETURN JUMPDEST PUSH4 0x4E487B71 PUSH1 0xE0 SHL DUP2 MSTORE PUSH1 0x41 DUP9 MSTORE PUSH1 0x24 SWAP1 REVERT JUMPDEST POP POP CALLVALUE PUSH2 0x210 JUMPI DUP2 PUSH1 0x3 NOT CALLDATASIZE ADD SLT PUSH2 0x210 JUMPI PUSH1 0x20 SWAP1 PUSH1 0xFF PUSH1 0x0 DUP1 MLOAD PUSH1 0x20 PUSH2 0x26E3 DUP4 CODECOPY DUP2 MLOAD SWAP2 MSTORE SLOAD AND SWAP1 MLOAD SWAP1 ISZERO ISZERO DUP2 MSTORE RETURN JUMPDEST POP POP CALLVALUE PUSH2 0x210 JUMPI DUP2 PUSH1 0x3 NOT CALLDATASIZE ADD SLT PUSH2 0x210 JUMPI PUSH1 0x20 SWAP1 MLOAD PUSH1 0x2 DUP2 MSTORE RETURN JUMPDEST POP POP CALLVALUE PUSH2 0x210 JUMPI DUP2 PUSH1 0x3 NOT CALLDATASIZE ADD SLT PUSH2 0x210 JUMPI PUSH1 0x20 SWAP1 PUSH1 0x6 SLOAD SWAP1 MLOAD SWAP1 DUP2 MSTORE RETURN JUMPDEST DUP3 DUP5 CALLVALUE PUSH2 0x2AE JUMPI DUP1 PUSH1 0x3 NOT CALLDATASIZE ADD SLT PUSH2 0x2AE JUMPI POP PUSH32 0x0 PUSH1 0x1 PUSH1 0x1 PUSH1 0xA0 SHL SUB AND ADDRESS SUB PUSH2 0x1206 JUMPI PUSH1 0x20 SWAP1 MLOAD PUSH32 0x360894A13BA1A3210667C828492DB98DCA3E2076CC3735A920A3CA505D382BBC DUP2 MSTORE RETURN JUMPDEST MLOAD PUSH4 0x703E46DD PUSH1 0xE1 SHL DUP2 MSTORE REVERT JUMPDEST SWAP2 DUP1 SWAP2 POP PUSH1 0x3 NOT CALLDATASIZE ADD SLT PUSH2 0x6A4 JUMPI PUSH2 0x1229 PUSH2 0x1C60 JUMP JUMPDEST SWAP1 PUSH1 0x24 SWAP4 DUP5 CALLDATALOAD PUSH8 0xFFFFFFFFFFFFFFFF DUP2 GT PUSH2 0x210 JUMPI CALLDATASIZE PUSH1 0x23 DUP3 ADD SLT ISZERO PUSH2 0x210 JUMPI DUP1 DUP6 ADD CALLDATALOAD PUSH2 0x1256 DUP2 PUSH2 0x1D14 JUMP JUMPDEST SWAP5 PUSH2 0x1263 DUP6 MLOAD SWAP7 DUP8 PUSH2 0x1CDC JUMP JUMPDEST DUP2 DUP7 MSTORE PUSH1 0x20 SWAP2 DUP3 DUP8 ADD SWAP4 CALLDATASIZE DUP11 DUP4 DUP4 ADD ADD GT PUSH2 0x14D5 JUMPI DUP2 DUP7 SWAP3 DUP12 DUP7 SWAP4 ADD DUP8 CALLDATACOPY DUP9 ADD ADD MSTORE PUSH1 0x1 PUSH1 0x1 PUSH1 0xA0 SHL SUB PUSH32 0x0 DUP2 AND ADDRESS DUP2 EQ SWAP1 DUP2 ISZERO PUSH2 0x14A7 JUMPI JUMPDEST POP PUSH2 0x1497 JUMPI PUSH32 0x189AB7A9244DF0848122154315AF71FE140F3DB0FE014031783B0946B8C9D2E3 DUP1 DUP7 MSTORE PUSH1 0x0 DUP1 MLOAD PUSH1 0x20 PUSH2 0x26C3 DUP4 CODECOPY DUP2 MLOAD SWAP2 MSTORE DUP5 MSTORE DUP7 DUP7 KECCAK256 CALLER DUP8 MSTORE DUP5 MSTORE PUSH1 0xFF DUP8 DUP8 KECCAK256 SLOAD AND ISZERO PUSH2 0x147A JUMPI POP DUP2 AND SWAP6 DUP6 MLOAD PUSH4 0x52D1902D PUSH1 0xE0 SHL DUP2 MSTORE DUP4 DUP2 DUP11 DUP2 DUP12 GAS STATICCALL DUP7 SWAP2 DUP2 PUSH2 0x1447 JUMPI JUMPDEST POP PUSH2 0x1344 JUMPI POP POP POP POP POP POP MLOAD SWAP2 PUSH4 0x4C9C8CE3 PUSH1 0xE0 SHL DUP4 MSTORE DUP3 ADD MSTORE REVERT JUMPDEST SWAP1 DUP9 DUP9 DUP9 SWAP5 SWAP4 DUP13 PUSH32 0x360894A13BA1A3210667C828492DB98DCA3E2076CC3735A920A3CA505D382BBC SWAP2 DUP3 DUP2 SUB PUSH2 0x1432 JUMPI POP DUP6 EXTCODESIZE ISZERO PUSH2 0x141E JUMPI POP DUP1 SLOAD PUSH1 0x1 PUSH1 0x1 PUSH1 0xA0 SHL SUB NOT AND DUP3 OR SWAP1 SSTORE DUP5 MLOAD DUP9 SWAP4 SWAP3 SWAP2 PUSH32 0xBC7CD75A20EE27FD9ADEBAB32041F755214DBC6BFFA90CC0225B39DA2E5C2D3B DUP6 DUP1 LOG2 DUP3 MLOAD ISZERO PUSH2 0x1400 JUMPI POP POP PUSH2 0xAFF SWAP6 DUP3 SWAP2 MLOAD SWAP1 DUP5 GAS DELEGATECALL SWAP2 RETURNDATASIZE ISZERO PUSH2 0x13F6 JUMPI RETURNDATASIZE PUSH2 0x13E8 PUSH2 0x13DF DUP3 PUSH2 0x1D14 JUMP JUMPDEST SWAP3 MLOAD SWAP3 DUP4 PUSH2 0x1CDC JUMP JUMPDEST DUP2 MSTORE DUP6 DUP2 SWAP5 RETURNDATASIZE SWAP3 ADD RETURNDATACOPY PUSH2 0x263F JUMP JUMPDEST POP PUSH1 0x60 SWAP3 POP PUSH2 0x263F JUMP JUMPDEST SWAP6 POP SWAP6 POP POP POP POP POP CALLVALUE PUSH2 0x1412 JUMPI POP POP DUP1 RETURN JUMPDEST PUSH4 0xB398979F PUSH1 0xE0 SHL DUP2 MSTORE REVERT JUMPDEST DUP7 MLOAD PUSH4 0x4C9C8CE3 PUSH1 0xE0 SHL DUP2 MSTORE DUP1 DUP6 ADD DUP5 SWAP1 MSTORE REVERT JUMPDEST DUP8 MLOAD PUSH4 0x2A875269 PUSH1 0xE2 SHL DUP2 MSTORE DUP1 DUP7 ADD SWAP2 SWAP1 SWAP2 MSTORE REVERT JUMPDEST SWAP1 SWAP2 POP DUP5 DUP2 DUP2 RETURNDATASIZE DUP4 GT PUSH2 0x1473 JUMPI JUMPDEST PUSH2 0x145F DUP2 DUP4 PUSH2 0x1CDC JUMP JUMPDEST DUP2 ADD SUB SLT PUSH2 0x146F JUMPI MLOAD SWAP1 CODESIZE PUSH2 0x1328 JUMP JUMPDEST DUP7 DUP1 REVERT JUMPDEST POP RETURNDATASIZE PUSH2 0x1455 JUMP JUMPDEST DUP7 MLOAD PUSH4 0xE2517D3F PUSH1 0xE0 SHL DUP2 MSTORE CALLER DUP2 DUP12 ADD MSTORE DUP1 DUP12 ADD SWAP2 SWAP1 SWAP2 MSTORE PUSH1 0x44 SWAP1 REVERT JUMPDEST DUP6 MLOAD PUSH4 0x703E46DD PUSH1 0xE1 SHL DUP2 MSTORE DUP9 SWAP1 REVERT JUMPDEST SWAP1 POP DUP2 PUSH32 0x360894A13BA1A3210667C828492DB98DCA3E2076CC3735A920A3CA505D382BBC SLOAD AND EQ ISZERO CODESIZE PUSH2 0x12BB JUMP JUMPDEST DUP6 DUP1 REVERT JUMPDEST SWAP1 POP CALLVALUE PUSH2 0x6A4 JUMPI DUP2 PUSH1 0x3 NOT CALLDATASIZE ADD SLT PUSH2 0x6A4 JUMPI PUSH2 0x14F3 PUSH2 0x1C60 JUMP JUMPDEST SWAP1 PUSH2 0x14FC PUSH2 0x1C7B JUMP JUMPDEST PUSH32 0xF0C57E16840DF040F15088DC2F81FE391C3923BEC73E23A9662EFC9C229C6A00 SWAP3 DUP4 SLOAD SWAP3 PUSH1 0xFF DUP5 DUP8 SHR AND ISZERO SWAP4 PUSH8 0xFFFFFFFFFFFFFFFF DUP2 AND DUP1 ISZERO SWAP1 DUP2 PUSH2 0x174C JUMPI JUMPDEST PUSH1 0x1 EQ SWAP1 DUP2 PUSH2 0x1742 JUMPI JUMPDEST ISZERO SWAP1 DUP2 PUSH2 0x1739 JUMPI JUMPDEST POP PUSH2 0x172A JUMPI PUSH8 0xFFFFFFFFFFFFFFFF NOT DUP2 AND PUSH1 0x1 OR DUP7 SSTORE DUP5 PUSH2 0x170B JUMPI JUMPDEST POP PUSH1 0x1 PUSH1 0x1 PUSH1 0xA0 SHL SUB SWAP2 DUP3 AND SWAP2 DUP3 ISZERO PUSH2 0x16B7 JUMPI DUP4 AND ISZERO PUSH2 0x1668 JUMPI POP SWAP1 PUSH20 0x8943CCED9DAE2E4552820834D14134362AD6D46A PUSH2 0x161E SWAP3 PUSH2 0x15A8 PUSH2 0x25FE JUMP JUMPDEST PUSH2 0x15B0 PUSH2 0x25FE JUMP JUMPDEST PUSH2 0x15B8 PUSH2 0x25FE JUMP JUMPDEST PUSH2 0x15C0 PUSH2 0x25FE JUMP JUMPDEST PUSH1 0x1 PUSH1 0x0 DUP1 MLOAD PUSH1 0x20 PUSH2 0x2703 DUP4 CODECOPY DUP2 MLOAD SWAP2 MSTORE SSTORE PUSH2 0x15DA PUSH2 0x25FE JUMP JUMPDEST PUSH1 0x1 PUSH1 0x1 PUSH1 0x60 SHL SUB PUSH1 0xA0 SHL SWAP1 DUP2 PUSH1 0x2 SLOAD AND OR PUSH1 0x2 SSTORE DUP8 SLOAD AND OR DUP7 SSTORE PUSH2 0xBB8 PUSH1 0x1 SSTORE PUSH2 0x1604 DUP2 PUSH2 0x2023 JUMP JUMPDEST POP PUSH2 0x160E DUP2 PUSH2 0x20B1 JUMP JUMPDEST POP PUSH2 0x1618 DUP2 PUSH2 0x2161 JUMP JUMPDEST POP PUSH2 0x220B JUMP JUMPDEST POP PUSH2 0x1627 JUMPI DUP3 DUP1 RETURN JUMPDEST DUP1 SLOAD PUSH9 0xFF0000000000000000 NOT AND SWAP1 SSTORE MLOAD PUSH1 0x1 DUP2 MSTORE PUSH32 0xC7F505B2F371AE2175EE4913F4499E1F2633A7B5936321EED1CDAEB6115181D2 SWAP1 PUSH1 0x20 SWAP1 LOG1 CODESIZE DUP1 DUP3 DUP1 RETURN JUMPDEST PUSH1 0x84 SWAP1 PUSH1 0x20 DUP8 MLOAD SWAP2 PUSH3 0x461BCD PUSH1 0xE5 SHL DUP4 MSTORE DUP3 ADD MSTORE PUSH1 0x24 DUP1 DUP3 ADD MSTORE PUSH32 0x50726F6A656374457363726F773A2061646D696E206973207A65726F20616464 PUSH1 0x44 DUP3 ADD MSTORE PUSH4 0x72657373 PUSH1 0xE0 SHL PUSH1 0x64 DUP3 ADD MSTORE REVERT JUMPDEST DUP7 MLOAD PUSH3 0x461BCD PUSH1 0xE5 SHL DUP2 MSTORE PUSH1 0x20 DUP2 DUP5 ADD MSTORE PUSH1 0x28 PUSH1 0x24 DUP3 ADD MSTORE PUSH32 0x50726F6A656374457363726F773A2046494E20746F6B656E206973207A65726F PUSH1 0x44 DUP3 ADD MSTORE PUSH8 0x2061646472657373 PUSH1 0xC0 SHL PUSH1 0x64 DUP3 ADD MSTORE PUSH1 0x84 SWAP1 REVERT JUMPDEST PUSH9 0xFFFFFFFFFFFFFFFFFF NOT AND PUSH9 0x10000000000000001 OR DUP6 SSTORE CODESIZE PUSH2 0x156B JUMP JUMPDEST POP DUP6 MLOAD PUSH4 0xF92EE8A9 PUSH1 0xE0 SHL DUP2 MSTORE REVERT JUMPDEST SWAP1 POP ISZERO CODESIZE PUSH2 0x154F JUMP JUMPDEST ADDRESS EXTCODESIZE ISZERO SWAP2 POP PUSH2 0x1547 JUMP JUMPDEST DUP7 SWAP2 POP PUSH2 0x153D JUMP JUMPDEST POP POP CALLVALUE PUSH2 0x210 JUMPI DUP2 PUSH1 0x3 NOT CALLDATASIZE ADD SLT PUSH2 0x210 JUMPI PUSH1 0x20 SWAP1 MLOAD PUSH32 0x408A36151F841709116A4E8ACA4E0202874F7F54687DCB863B1EA4672DC9D8CF DUP2 MSTORE RETURN JUMPDEST SWAP1 POP CALLVALUE PUSH2 0x6A4 JUMPI DUP3 PUSH1 0x3 NOT CALLDATASIZE ADD SLT PUSH2 0x6A4 JUMPI PUSH2 0x17A9 PUSH2 0x1F64 JUMP JUMPDEST PUSH1 0x0 DUP1 MLOAD PUSH1 0x20 PUSH2 0x26E3 DUP4 CODECOPY DUP2 MLOAD SWAP2 MSTORE SWAP1 DUP2 SLOAD SWAP1 PUSH1 0xFF DUP3 AND ISZERO PUSH2 0x17F9 JUMPI POP PUSH1 0xFF NOT AND SWAP1 SSTORE MLOAD CALLER DUP2 MSTORE PUSH32 0x5DB9EE0A495BF2E6FF9C91A7834C1BA4FDD244A5E8AA4E537BD38AEAE4B073AA SWAP1 PUSH1 0x20 SWAP1 LOG1 DUP1 RETURN JUMPDEST DUP4 MLOAD PUSH4 0x8DFC202B PUSH1 0xE0 SHL DUP2 MSTORE REVERT JUMPDEST POP POP CALLVALUE PUSH2 0x210 JUMPI DUP2 PUSH1 0x3 NOT CALLDATASIZE ADD SLT PUSH2 0x210 JUMPI PUSH1 0x20 SWAP1 MLOAD PUSH3 0x15180 DUP2 MSTORE RETURN JUMPDEST POP POP CALLVALUE PUSH2 0x210 JUMPI DUP2 PUSH1 0x3 NOT CALLDATASIZE ADD SLT PUSH2 0x210 JUMPI PUSH1 0x20 SWAP1 MLOAD PUSH10 0x21E19E0C9BAB2400000 DUP2 MSTORE RETURN JUMPDEST POP POP CALLVALUE PUSH2 0x210 JUMPI DUP2 PUSH1 0x3 NOT CALLDATASIZE ADD SLT PUSH2 0x210 JUMPI PUSH1 0x20 SWAP1 MLOAD PUSH2 0xBB8 DUP2 MSTORE RETURN JUMPDEST DUP4 DUP4 CALLVALUE PUSH2 0x210 JUMPI DUP1 PUSH1 0x3 NOT CALLDATASIZE ADD SLT PUSH2 0x210 JUMPI PUSH2 0x1881 PUSH2 0x1C7B JUMP JUMPDEST SWAP1 CALLER PUSH1 0x1 PUSH1 0x1 PUSH1 0xA0 SHL SUB DUP4 AND SUB PUSH2 0x189E JUMPI POP PUSH2 0xAFF SWAP2 SWAP3 CALLDATALOAD PUSH2 0x232A JUMP JUMPDEST MLOAD PUSH4 0x334BD919 PUSH1 0xE1 SHL DUP2 MSTORE DUP4 SWAP1 REVERT JUMPDEST SWAP2 SWAP1 POP CALLVALUE PUSH2 0x6A4 JUMPI DUP1 PUSH1 0x3 NOT CALLDATASIZE ADD SLT PUSH2 0x6A4 JUMPI PUSH2 0xAFF SWAP2 CALLDATALOAD PUSH2 0x18D2 PUSH1 0x1 PUSH2 0xADB PUSH2 0x1C7B JUMP JUMPDEST PUSH2 0x22B5 JUMP JUMPDEST SWAP1 POP CALLVALUE PUSH2 0x6A4 JUMPI PUSH1 0x20 CALLDATASIZE PUSH1 0x3 NOT ADD SLT PUSH2 0x6A4 JUMPI DUP1 CALLDATALOAD SWAP2 PUSH2 0x18F5 PUSH2 0x1F64 JUMP JUMPDEST DUP3 DUP5 MSTORE PUSH1 0x3 PUSH1 0x20 MSTORE DUP4 KECCAK256 SWAP1 DUP1 DUP3 ADD SWAP1 DUP2 SLOAD SWAP1 PUSH1 0xFF DUP3 AND SWAP1 PUSH1 0x3 DUP3 LT ISZERO PUSH2 0x1998 JUMPI POP SWAP1 PUSH2 0x1923 PUSH1 0x2 SWAP3 ISZERO PUSH2 0x1D30 JUMP JUMPDEST PUSH1 0xFF NOT AND OR SWAP1 SSTORE PUSH1 0x1 DUP2 ADD SLOAD PUSH1 0x3 DUP3 ADD SLOAD PUSH2 0x193D SWAP2 PUSH2 0x1D86 JUMP JUMPDEST DUP1 PUSH2 0x1976 JUMPI JUMPDEST POP SLOAD PUSH1 0x1 PUSH1 0x1 PUSH1 0xA0 SHL SUB AND SWAP1 PUSH32 0xAB770A3208518C5616AF297C14F45E2E7294DFFBB8B13FFF5213874B7A642072 DUP4 DUP1 LOG3 DUP1 RETURN JUMPDEST PUSH1 0x2 SLOAD DUP3 SLOAD PUSH2 0x1992 SWAP3 SWAP2 PUSH1 0x1 PUSH1 0x1 PUSH1 0xA0 SHL SUB SWAP2 DUP3 AND SWAP2 AND PUSH2 0x1FD1 JUMP JUMPDEST CODESIZE PUSH2 0x1943 JUMP JUMPDEST PUSH4 0x4E487B71 PUSH1 0xE0 SHL DUP8 MSTORE PUSH1 0x21 SWAP1 MSTORE PUSH1 0x24 DUP7 REVERT JUMPDEST SWAP1 POP CALLVALUE PUSH2 0x6A4 JUMPI PUSH1 0x20 CALLDATASIZE PUSH1 0x3 NOT ADD SLT PUSH2 0x6A4 JUMPI DUP2 PUSH1 0x20 SWAP4 PUSH1 0x1 SWAP3 CALLDATALOAD DUP2 MSTORE PUSH1 0x0 DUP1 MLOAD PUSH1 0x20 PUSH2 0x26C3 DUP4 CODECOPY DUP2 MLOAD SWAP2 MSTORE DUP6 MSTORE KECCAK256 ADD SLOAD SWAP1 MLOAD SWAP1 DUP2 MSTORE RETURN JUMPDEST POP POP CALLVALUE PUSH2 0x210 JUMPI DUP2 PUSH1 0x3 NOT CALLDATASIZE ADD SLT PUSH2 0x210 JUMPI PUSH1 0x2 SLOAD SWAP1 MLOAD PUSH1 0x1 PUSH1 0x1 PUSH1 0xA0 SHL SUB SWAP1 SWAP2 AND DUP2 MSTORE PUSH1 0x20 SWAP1 RETURN JUMPDEST SWAP1 POP DUP3 CALLVALUE PUSH2 0x2AE JUMPI PUSH1 0x20 CALLDATASIZE PUSH1 0x3 NOT ADD SLT PUSH2 0x2AE JUMPI POP PUSH1 0x20 PUSH1 0x84 SWAP3 PUSH2 0x1A2E PUSH2 0x1C60 JUMP JUMPDEST POP MLOAD PUSH3 0x461BCD PUSH1 0xE5 SHL DUP2 MSTORE SWAP2 DUP3 ADD MSTORE PUSH1 0x25 PUSH1 0x24 DUP3 ADD MSTORE PUSH32 0x50726F6A656374457363726F773A20726563697069656E7420697320696D6D75 PUSH1 0x44 DUP3 ADD MSTORE PUSH5 0x7461626C65 PUSH1 0xD8 SHL PUSH1 0x64 DUP3 ADD MSTORE REVERT JUMPDEST SWAP1 POP CALLVALUE PUSH2 0x6A4 JUMPI DUP2 PUSH1 0x3 NOT CALLDATASIZE ADD SLT PUSH2 0x6A4 JUMPI DUP1 CALLDATALOAD SWAP2 PUSH1 0x24 CALLDATALOAD SWAP2 PUSH2 0x1A9B PUSH2 0x1E8F JUMP JUMPDEST PUSH2 0x1AA3 PUSH2 0x1EBF JUMP JUMPDEST PUSH2 0x1AAB PUSH2 0x1EEA JUMP JUMPDEST DUP4 DUP6 MSTORE PUSH1 0x20 DUP2 SWAP1 MSTORE DUP2 DUP6 KECCAK256 PUSH1 0x1 DUP2 ADD SLOAD SWAP1 SWAP2 SWAP1 PUSH1 0x1 PUSH1 0x1 PUSH1 0xA0 SHL SUB AND ISZERO PUSH2 0x1B12 JUMPI POP SWAP2 PUSH1 0x20 SWAP2 DUP2 PUSH1 0x7 PUSH32 0xE164B1E1DB9272D9CF0C98816F78BDE86B33AE0DAD5C1745900D943FCED9C3A5 SWAP6 ADD SSTORE MLOAD SWAP1 DUP2 MSTORE LOG2 PUSH1 0x1 PUSH1 0x0 DUP1 MLOAD PUSH1 0x20 PUSH2 0x2703 DUP4 CODECOPY DUP2 MLOAD SWAP2 MSTORE SSTORE DUP1 RETURN JUMPDEST PUSH1 0x64 SWAP1 PUSH1 0x20 DUP5 MLOAD SWAP2 PUSH3 0x461BCD PUSH1 0xE5 SHL DUP4 MSTORE DUP3 ADD MSTORE PUSH1 0x1D PUSH1 0x24 DUP3 ADD MSTORE PUSH32 0x50726F6A656374457363726F773A207461736B206E6F7420666F756E64000000 PUSH1 0x44 DUP3 ADD MSTORE REVERT JUMPDEST SWAP1 POP DUP3 CALLVALUE PUSH2 0x2AE JUMPI PUSH1 0x20 CALLDATASIZE PUSH1 0x3 NOT ADD SLT PUSH2 0x2AE JUMPI POP PUSH1 0x20 PUSH1 0x84 SWAP3 MLOAD SWAP2 PUSH3 0x461BCD PUSH1 0xE5 SHL DUP4 MSTORE DUP3 ADD MSTORE PUSH1 0x22 PUSH1 0x24 DUP3 ADD MSTORE PUSH32 0x50726F6A656374457363726F773A206665652069732066697865642061742033 PUSH1 0x44 DUP3 ADD MSTORE PUSH2 0x3025 PUSH1 0xF0 SHL PUSH1 0x64 DUP3 ADD MSTORE REVERT JUMPDEST DUP5 SWAP2 CALLVALUE PUSH2 0x6A4 JUMPI PUSH1 0x20 CALLDATASIZE PUSH1 0x3 NOT ADD SLT PUSH2 0x6A4 JUMPI CALLDATALOAD PUSH4 0xFFFFFFFF PUSH1 0xE0 SHL DUP2 AND DUP1 SWAP2 SUB PUSH2 0x6A4 JUMPI PUSH1 0x20 SWAP3 POP PUSH4 0x7965DB0B PUSH1 0xE0 SHL DUP2 EQ SWAP1 DUP2 ISZERO PUSH2 0x1BF9 JUMPI JUMPDEST POP ISZERO ISZERO DUP2 MSTORE RETURN JUMPDEST PUSH4 0x1FFC9A7 PUSH1 0xE0 SHL EQ SWAP1 POP DUP4 PUSH2 0x1BF2 JUMP JUMPDEST SWAP4 SWAP2 SWAP8 SWAP7 SWAP6 SWAP3 SWAP1 SWAP8 PUSH1 0xE0 DUP6 ADD SWAP9 PUSH1 0x1 DUP1 PUSH1 0xA0 SHL SUB AND DUP6 MSTORE PUSH1 0x20 DUP6 ADD MSTORE PUSH1 0x40 DUP5 ADD MSTORE PUSH1 0x60 DUP4 ADD MSTORE PUSH1 0x3 DUP4 LT ISZERO PUSH2 0x1C4A JUMPI PUSH1 0xC0 SWAP3 PUSH1 0x80 DUP4 ADD MSTORE PUSH1 0xA0 DUP3 ADD MSTORE ADD MSTORE JUMP JUMPDEST PUSH4 0x4E487B71 PUSH1 0xE0 SHL PUSH1 0x0 MSTORE PUSH1 0x21 PUSH1 0x4 MSTORE PUSH1 0x24 PUSH1 0x0 REVERT JUMPDEST PUSH1 0x4 CALLDATALOAD SWAP1 PUSH1 0x1 PUSH1 0x1 PUSH1 0xA0 SHL SUB DUP3 AND DUP3 SUB PUSH2 0x1C76 JUMPI JUMP JUMPDEST PUSH1 0x0 DUP1 REVERT JUMPDEST PUSH1 0x24 CALLDATALOAD SWAP1 PUSH1 0x1 PUSH1 0x1 PUSH1 0xA0 SHL SUB DUP3 AND DUP3 SUB PUSH2 0x1C76 JUMPI JUMP JUMPDEST SWAP1 DUP2 MSTORE PUSH1 0x1 PUSH1 0x1 PUSH1 0xA0 SHL SUB SWAP1 SWAP2 AND PUSH1 0x20 DUP3 ADD MSTORE PUSH1 0x40 DUP2 ADD SWAP2 SWAP1 SWAP2 MSTORE PUSH2 0x100 DUP2 ADD SWAP7 SWAP6 SWAP5 SWAP2 SWAP4 SWAP1 SWAP3 PUSH1 0x5 DUP6 LT ISZERO PUSH2 0x1C4A JUMPI PUSH1 0xE0 SWAP5 PUSH1 0x60 DUP6 ADD MSTORE PUSH1 0x80 DUP5 ADD MSTORE PUSH1 0xA0 DUP4 ADD MSTORE PUSH1 0xC0 DUP3 ADD MSTORE ADD MSTORE JUMP JUMPDEST SWAP1 PUSH1 0x1F DUP1 NOT SWAP2 ADD AND DUP2 ADD SWAP1 DUP2 LT PUSH8 0xFFFFFFFFFFFFFFFF DUP3 GT OR PUSH2 0x1CFE JUMPI PUSH1 0x40 MSTORE JUMP JUMPDEST PUSH4 0x4E487B71 PUSH1 0xE0 SHL PUSH1 0x0 MSTORE PUSH1 0x41 PUSH1 0x4 MSTORE PUSH1 0x24 PUSH1 0x0 REVERT JUMPDEST PUSH8 0xFFFFFFFFFFFFFFFF DUP2 GT PUSH2 0x1CFE JUMPI PUSH1 0x1F ADD PUSH1 0x1F NOT AND PUSH1 0x20 ADD SWAP1 JUMP JUMPDEST ISZERO PUSH2 0x1D37 JUMPI JUMP JUMPDEST PUSH1 0x40 MLOAD PUSH3 0x461BCD PUSH1 0xE5 SHL DUP2 MSTORE PUSH1 0x20 PUSH1 0x4 DUP3 ADD MSTORE PUSH1 0x21 PUSH1 0x24 DUP3 ADD MSTORE PUSH32 0x50726F6A656374457363726F773A2070726F6A656374206E6F74206163746976 PUSH1 0x44 DUP3 ADD MSTORE PUSH1 0x65 PUSH1 0xF8 SHL PUSH1 0x64 DUP3 ADD MSTORE PUSH1 0x84 SWAP1 REVERT JUMPDEST SWAP2 SWAP1 DUP3 SUB SWAP2 DUP3 GT PUSH2 0x1D93 JUMPI JUMP JUMPDEST PUSH4 0x4E487B71 PUSH1 0xE0 SHL PUSH1 0x0 MSTORE PUSH1 0x11 PUSH1 0x4 MSTORE PUSH1 0x24 PUSH1 0x0 REVERT JUMPDEST ISZERO PUSH2 0x1DB0 JUMPI JUMP JUMPDEST PUSH1 0x40 MLOAD PUSH3 0x461BCD PUSH1 0xE5 SHL DUP2 MSTORE PUSH1 0x20 PUSH1 0x4 DUP3 ADD MSTORE PUSH1 0x2C PUSH1 0x24 DUP3 ADD MSTORE PUSH32 0x50726F6A656374457363726F773A20616D6F756E74206D757374206265206772 PUSH1 0x44 DUP3 ADD MSTORE PUSH12 0x6561746572207468616E203 PUSH1 0xA4 SHL PUSH1 0x64 DUP3 ADD MSTORE PUSH1 0x84 SWAP1 REVERT JUMPDEST PUSH1 0x0 NOT DUP2 EQ PUSH2 0x1D93 JUMPI PUSH1 0x1 ADD SWAP1 JUMP JUMPDEST DUP2 DUP2 MUL SWAP3 SWAP2 DUP2 ISZERO SWAP2 DUP5 DIV EQ OR ISZERO PUSH2 0x1D93 JUMPI JUMP JUMPDEST SWAP2 SWAP1 DUP3 ADD DUP1 SWAP3 GT PUSH2 0x1D93 JUMPI JUMP JUMPDEST ISZERO PUSH2 0x1E40 JUMPI JUMP JUMPDEST PUSH1 0x40 MLOAD PUSH3 0x461BCD PUSH1 0xE5 SHL DUP2 MSTORE PUSH1 0x20 PUSH1 0x4 DUP3 ADD MSTORE PUSH1 0x21 PUSH1 0x24 DUP3 ADD MSTORE PUSH32 0x50726F6A656374457363726F773A207461736B206E6F7420636F6D706C657465 PUSH1 0x44 DUP3 ADD MSTORE PUSH1 0x19 PUSH1 0xFA SHL PUSH1 0x64 DUP3 ADD MSTORE PUSH1 0x84 SWAP1 REVERT JUMPDEST PUSH1 0x0 DUP1 MLOAD PUSH1 0x20 PUSH2 0x2703 DUP4 CODECOPY DUP2 MLOAD SWAP2 MSTORE PUSH1 0x2 DUP2 SLOAD EQ PUSH2 0x1EAD JUMPI PUSH1 0x2 SWAP1 SSTORE JUMP JUMPDEST PUSH1 0x40 MLOAD PUSH4 0x3EE5AEB5 PUSH1 0xE0 SHL DUP2 MSTORE PUSH1 0x4 SWAP1 REVERT JUMPDEST PUSH1 0xFF PUSH1 0x0 DUP1 MLOAD PUSH1 0x20 PUSH2 0x26E3 DUP4 CODECOPY DUP2 MLOAD SWAP2 MSTORE SLOAD AND PUSH2 0x1ED8 JUMPI JUMP JUMPDEST PUSH1 0x40 MLOAD PUSH4 0xD93C0665 PUSH1 0xE0 SHL DUP2 MSTORE PUSH1 0x4 SWAP1 REVERT JUMPDEST CALLER PUSH1 0x0 SWAP1 DUP2 MSTORE PUSH32 0x6484CC59DC38E4F67C31122333A17CA81B3CA18CDF02BFC298072FA52B0316A PUSH1 0x20 MSTORE PUSH1 0x40 SWAP1 KECCAK256 SLOAD PUSH32 0x241ECF16D79D0F8DBFB92CBC07FE17840425976CF0667F022FE9877CAA831B08 SWAP1 PUSH1 0xFF AND ISZERO PUSH2 0x1F46 JUMPI POP JUMP JUMPDEST PUSH1 0x44 SWAP1 PUSH1 0x40 MLOAD SWAP1 PUSH4 0xE2517D3F PUSH1 0xE0 SHL DUP3 MSTORE CALLER PUSH1 0x4 DUP4 ADD MSTORE PUSH1 0x24 DUP3 ADD MSTORE REVERT JUMPDEST CALLER PUSH1 0x0 SWAP1 DUP2 MSTORE PUSH32 0xB7DB2DD08FCB62D0C9E08C51941CAE53C267786A0B75803FB7960902FC8EF97D PUSH1 0x20 MSTORE PUSH1 0x40 DUP2 KECCAK256 SLOAD PUSH1 0xFF AND ISZERO PUSH2 0x1F46 JUMPI POP JUMP JUMPDEST DUP1 PUSH1 0x0 MSTORE PUSH1 0x0 DUP1 MLOAD PUSH1 0x20 PUSH2 0x26C3 DUP4 CODECOPY DUP2 MLOAD SWAP2 MSTORE PUSH1 0x20 MSTORE PUSH1 0x40 PUSH1 0x0 KECCAK256 CALLER PUSH1 0x0 MSTORE PUSH1 0x20 MSTORE PUSH1 0xFF PUSH1 0x40 PUSH1 0x0 KECCAK256 SLOAD AND ISZERO PUSH2 0x1F46 JUMPI POP JUMP JUMPDEST PUSH1 0x40 MLOAD PUSH4 0xA9059CBB PUSH1 0xE0 SHL PUSH1 0x20 DUP3 ADD MSTORE PUSH1 0x1 PUSH1 0x1 PUSH1 0xA0 SHL SUB SWAP1 SWAP3 AND PUSH1 0x24 DUP4 ADD MSTORE PUSH1 0x44 DUP1 DUP4 ADD SWAP4 SWAP1 SWAP4 MSTORE SWAP2 DUP2 MSTORE PUSH1 0x80 DUP2 ADD SWAP2 PUSH8 0xFFFFFFFFFFFFFFFF DUP4 GT DUP3 DUP5 LT OR PUSH2 0x1CFE JUMPI PUSH2 0x2021 SWAP3 PUSH1 0x40 MSTORE PUSH2 0x2596 JUMP JUMPDEST JUMP JUMPDEST PUSH1 0x1 PUSH1 0x1 PUSH1 0xA0 SHL SUB AND PUSH1 0x0 DUP2 DUP2 MSTORE PUSH32 0xB7DB2DD08FCB62D0C9E08C51941CAE53C267786A0B75803FB7960902FC8EF97D PUSH1 0x20 MSTORE PUSH1 0x40 DUP2 KECCAK256 SLOAD SWAP1 SWAP2 SWAP1 PUSH1 0x0 DUP1 MLOAD PUSH1 0x20 PUSH2 0x26C3 DUP4 CODECOPY DUP2 MLOAD SWAP2 MSTORE SWAP1 PUSH1 0xFF AND PUSH2 0x20AC JUMPI DUP3 DUP1 MSTORE PUSH1 0x20 MSTORE PUSH1 0x40 DUP3 KECCAK256 DUP2 DUP4 MSTORE PUSH1 0x20 MSTORE PUSH1 0x40 DUP3 KECCAK256 PUSH1 0x1 PUSH1 0xFF NOT DUP3 SLOAD AND OR SWAP1 SSTORE CALLER SWAP2 PUSH1 0x0 DUP1 MLOAD PUSH1 0x20 PUSH2 0x26A3 DUP4 CODECOPY DUP2 MLOAD SWAP2 MSTORE DUP2 DUP1 LOG4 PUSH1 0x1 SWAP1 JUMP JUMPDEST POP POP SWAP1 JUMP JUMPDEST PUSH1 0x1 PUSH1 0x1 PUSH1 0xA0 SHL SUB AND PUSH1 0x0 DUP2 DUP2 MSTORE PUSH32 0x6484CC59DC38E4F67C31122333A17CA81B3CA18CDF02BFC298072FA52B0316A PUSH1 0x20 MSTORE PUSH1 0x40 DUP2 KECCAK256 SLOAD SWAP1 SWAP2 SWAP1 PUSH32 0x241ECF16D79D0F8DBFB92CBC07FE17840425976CF0667F022FE9877CAA831B08 SWAP1 PUSH1 0x0 DUP1 MLOAD PUSH1 0x20 PUSH2 0x26C3 DUP4 CODECOPY DUP2 MLOAD SWAP2 MSTORE SWAP1 PUSH1 0xFF AND PUSH2 0x215B JUMPI DUP2 DUP5 MSTORE PUSH1 0x20 MSTORE PUSH1 0x40 DUP4 KECCAK256 DUP3 DUP5 MSTORE PUSH1 0x20 MSTORE PUSH1 0x40 DUP4 KECCAK256 PUSH1 0x1 PUSH1 0xFF NOT DUP3 SLOAD AND OR SWAP1 SSTORE PUSH1 0x0 DUP1 MLOAD PUSH1 0x20 PUSH2 0x26A3 DUP4 CODECOPY DUP2 MLOAD SWAP2 MSTORE CALLER SWAP4 DUP1 LOG4 PUSH1 0x1 SWAP1 JUMP JUMPDEST POP POP POP SWAP1 JUMP JUMPDEST PUSH1 0x1 PUSH1 0x1 PUSH1 0xA0 SHL SUB AND PUSH1 0x0 DUP2 DUP2 MSTORE PUSH32 0xDD2B03978755574964DE3A540F0737454491B33185AF74DA97113472C72356D7 PUSH1 0x20 MSTORE PUSH1 0x40 DUP2 KECCAK256 SLOAD SWAP1 SWAP2 SWAP1 PUSH32 0x408A36151F841709116A4E8ACA4E0202874F7F54687DCB863B1EA4672DC9D8CF SWAP1 PUSH1 0x0 DUP1 MLOAD PUSH1 0x20 PUSH2 0x26C3 DUP4 CODECOPY DUP2 MLOAD SWAP2 MSTORE SWAP1 PUSH1 0xFF AND PUSH2 0x215B JUMPI DUP2 DUP5 MSTORE PUSH1 0x20 MSTORE PUSH1 0x40 DUP4 KECCAK256 DUP3 DUP5 MSTORE PUSH1 0x20 MSTORE PUSH1 0x40 DUP4 KECCAK256 PUSH1 0x1 PUSH1 0xFF NOT DUP3 SLOAD AND OR SWAP1 SSTORE PUSH1 0x0 DUP1 MLOAD PUSH1 0x20 PUSH2 0x26A3 DUP4 CODECOPY DUP2 MLOAD SWAP2 MSTORE CALLER SWAP4 DUP1 LOG4 PUSH1 0x1 SWAP1 JUMP JUMPDEST PUSH1 0x1 PUSH1 0x1 PUSH1 0xA0 SHL SUB AND PUSH1 0x0 DUP2 DUP2 MSTORE PUSH32 0xAB71E3F32666744D246EDFF3F96E4BDAFEE2E9867098CDD118A979A7464786A8 PUSH1 0x20 MSTORE PUSH1 0x40 DUP2 KECCAK256 SLOAD SWAP1 SWAP2 SWAP1 PUSH32 0x189AB7A9244DF0848122154315AF71FE140F3DB0FE014031783B0946B8C9D2E3 SWAP1 PUSH1 0x0 DUP1 MLOAD PUSH1 0x20 PUSH2 0x26C3 DUP4 CODECOPY DUP2 MLOAD SWAP2 MSTORE SWAP1 PUSH1 0xFF AND PUSH2 0x215B JUMPI DUP2 DUP5 MSTORE PUSH1 0x20 MSTORE PUSH1 0x40 DUP4 KECCAK256 DUP3 DUP5 MSTORE PUSH1 0x20 MSTORE PUSH1 0x40 DUP4 KECCAK256 PUSH1 0x1 PUSH1 0xFF NOT DUP3 SLOAD AND OR SWAP1 SSTORE PUSH1 0x0 DUP1 MLOAD PUSH1 0x20 PUSH2 0x26A3 DUP4 CODECOPY DUP2 MLOAD SWAP2 MSTORE CALLER SWAP4 DUP1 LOG4 PUSH1 0x1 SWAP1 JUMP JUMPDEST SWAP1 PUSH1 0x0 SWAP2 DUP1 DUP4 MSTORE PUSH1 0x0 DUP1 MLOAD PUSH1 0x20 PUSH2 0x26C3 DUP4 CODECOPY DUP2 MLOAD SWAP2 MSTORE DUP1 PUSH1 0x20 MSTORE PUSH1 0x40 DUP5 KECCAK256 SWAP3 PUSH1 0x1 DUP1 PUSH1 0xA0 SHL SUB AND SWAP3 DUP4 DUP6 MSTORE PUSH1 0x20 MSTORE PUSH1 0xFF PUSH1 0x40 DUP6 KECCAK256 SLOAD AND ISZERO PUSH1 0x0 EQ PUSH2 0x215B JUMPI DUP2 DUP5 MSTORE PUSH1 0x20 MSTORE PUSH1 0x40 DUP4 KECCAK256 DUP3 DUP5 MSTORE PUSH1 0x20 MSTORE PUSH1 0x40 DUP4 KECCAK256 PUSH1 0x1 PUSH1 0xFF NOT DUP3 SLOAD AND OR SWAP1 SSTORE PUSH1 0x0 DUP1 MLOAD PUSH1 0x20 PUSH2 0x26A3 DUP4 CODECOPY DUP2 MLOAD SWAP2 MSTORE CALLER SWAP4 DUP1 LOG4 PUSH1 0x1 SWAP1 JUMP JUMPDEST SWAP1 PUSH1 0x0 SWAP2 DUP1 DUP4 MSTORE PUSH1 0x0 DUP1 MLOAD PUSH1 0x20 PUSH2 0x26C3 DUP4 CODECOPY DUP2 MLOAD SWAP2 MSTORE DUP1 PUSH1 0x20 MSTORE PUSH1 0x40 DUP5 KECCAK256 SWAP3 PUSH1 0x1 DUP1 PUSH1 0xA0 SHL SUB AND SWAP3 DUP4 DUP6 MSTORE PUSH1 0x20 MSTORE PUSH1 0xFF PUSH1 0x40 DUP6 KECCAK256 SLOAD AND PUSH1 0x0 EQ PUSH2 0x215B JUMPI DUP2 DUP5 MSTORE PUSH1 0x20 MSTORE PUSH1 0x40 DUP4 KECCAK256 DUP3 DUP5 MSTORE PUSH1 0x20 MSTORE PUSH1 0x40 DUP4 KECCAK256 PUSH1 0xFF NOT DUP2 SLOAD AND SWAP1 SSTORE PUSH32 0xF6391F5C32D9C69D2A47EA670B442974B53935D1EDC7FD64EB21E047A839171B CALLER SWAP4 DUP1 LOG4 PUSH1 0x1 SWAP1 JUMP JUMPDEST PUSH1 0x0 SWAP1 DUP1 DUP3 MSTORE PUSH1 0x4 PUSH1 0x20 MSTORE PUSH1 0x40 SWAP2 DUP3 DUP2 KECCAK256 SWAP3 PUSH1 0x3 DUP5 ADD DUP1 SLOAD SWAP1 PUSH1 0xFF DUP3 AND PUSH1 0x5 DUP2 LT ISZERO PUSH2 0x2582 JUMPI PUSH1 0x2 PUSH2 0x23DF SWAP2 EQ PUSH2 0x1E39 JUMP JUMPDEST PUSH1 0x2 DUP7 ADD SWAP2 DUP3 SLOAD SWAP2 PUSH10 0x21E19E0C9BAB2400000 DUP4 LT ISZERO PUSH2 0x2523 JUMPI JUMPDEST PUSH2 0x241E SWAP2 PUSH1 0x3 SWAP2 DUP10 SLOAD DUP9 MSTORE DUP3 PUSH1 0x20 MSTORE DUP3 DUP8 DUP10 KECCAK256 SWAP3 PUSH1 0xFF NOT AND OR SWAP1 SSTORE ADD SWAP2 DUP3 SLOAD PUSH2 0x1E2C JUMP JUMPDEST SWAP1 SSTORE SLOAD PUSH2 0x2710 PUSH2 0x2430 PUSH1 0x1 SLOAD DUP4 PUSH2 0x1E19 JUMP JUMPDEST DIV SWAP1 PUSH2 0x243C DUP3 DUP3 PUSH2 0x1D86 JUMP JUMPDEST DUP5 SLOAD SWAP1 SWAP7 PUSH1 0x1 PUSH1 0x1 PUSH1 0xA0 SHL SUB SWAP3 SWAP1 SWAP2 DUP4 AND SWAP1 DUP2 ISZERO ISZERO DUP1 PUSH2 0x251A JUMPI JUMPDEST ISZERO PUSH2 0x250F JUMPI POP SWAP1 PUSH2 0x246E DUP5 DUP5 SWAP4 DUP5 PUSH1 0x2 SLOAD AND PUSH2 0x1FD1 JUMP JUMPDEST PUSH2 0x2486 DUP9 PUSH1 0x1 DUP5 PUSH1 0x2 SLOAD AND SWAP4 ADD SWAP3 DUP5 DUP5 SLOAD AND SWAP1 PUSH2 0x1FD1 JUMP JUMPDEST SLOAD AND DUP6 PUSH32 0x21D71DB5BE59BB9FA133895586B7404307DD33FB93B16DB09DC6F1D9D7D231B0 PUSH1 0x20 DUP7 MLOAD DUP11 DUP2 MSTORE LOG3 DUP2 ISZERO ISZERO DUP1 PUSH2 0x2503 JUMPI JUMPDEST PUSH2 0x24C8 JUMPI JUMPDEST POP POP POP POP POP POP JUMP JUMPDEST PUSH32 0x64687F8F42032F5DB03C3CF2D2EA692D7E5E64BD9E78E890FC2DD2D2B81906B8 SWAP4 SLOAD AND SWAP5 DUP3 MLOAD SWAP2 DUP3 MSTORE PUSH1 0x20 DUP3 ADD MSTORE LOG3 CODESIZE DUP1 DUP1 DUP1 DUP1 DUP1 PUSH2 0x24C0 JUMP JUMPDEST POP DUP1 DUP5 SLOAD AND ISZERO ISZERO PUSH2 0x24BB JUMP JUMPDEST SWAP8 POP DUP3 SWAP2 SWAP1 POP PUSH2 0x246E JUMP JUMPDEST POP DUP5 ISZERO ISZERO PUSH2 0x2457 JUMP JUMPDEST PUSH1 0x2 PUSH1 0x6 DUP10 ADD SLOAD LT ISZERO PUSH2 0x23FA JUMPI DUP5 MLOAD PUSH3 0x461BCD PUSH1 0xE5 SHL DUP2 MSTORE PUSH1 0x20 PUSH1 0x4 DUP3 ADD MSTORE PUSH1 0x25 PUSH1 0x24 DUP3 ADD MSTORE PUSH32 0x50726F6A656374457363726F773A20696E73756666696369656E742061707072 PUSH1 0x44 DUP3 ADD MSTORE PUSH5 0x6F76616C73 PUSH1 0xD8 SHL PUSH1 0x64 DUP3 ADD MSTORE PUSH1 0x84 SWAP1 REVERT JUMPDEST PUSH4 0x4E487B71 PUSH1 0xE0 SHL DUP6 MSTORE PUSH1 0x21 PUSH1 0x4 MSTORE PUSH1 0x24 DUP6 REVERT JUMPDEST SWAP1 PUSH1 0x0 PUSH1 0x20 SWAP2 DUP3 DUP2 MLOAD SWAP2 ADD DUP3 DUP6 GAS CALL ISZERO PUSH2 0x25F2 JUMPI PUSH1 0x0 MLOAD RETURNDATASIZE PUSH2 0x25E9 JUMPI POP PUSH1 0x1 PUSH1 0x1 PUSH1 0xA0 SHL SUB DUP2 AND EXTCODESIZE ISZERO JUMPDEST PUSH2 0x25C7 JUMPI POP JUMP JUMPDEST PUSH1 0x40 MLOAD PUSH4 0x5274AFE7 PUSH1 0xE0 SHL DUP2 MSTORE PUSH1 0x1 PUSH1 0x1 PUSH1 0xA0 SHL SUB SWAP1 SWAP2 AND PUSH1 0x4 DUP3 ADD MSTORE PUSH1 0x24 SWAP1 REVERT JUMPDEST PUSH1 0x1 EQ ISZERO PUSH2 0x25C0 JUMP JUMPDEST PUSH1 0x40 MLOAD RETURNDATASIZE PUSH1 0x0 DUP3 RETURNDATACOPY RETURNDATASIZE SWAP1 REVERT JUMPDEST PUSH1 0xFF PUSH32 0xF0C57E16840DF040F15088DC2F81FE391C3923BEC73E23A9662EFC9C229C6A00 SLOAD PUSH1 0x40 SHR AND ISZERO PUSH2 0x262D JUMPI JUMP JUMPDEST PUSH1 0x40 MLOAD PUSH4 0x1AFCD79F PUSH1 0xE3 SHL DUP2 MSTORE PUSH1 0x4 SWAP1 REVERT JUMPDEST SWAP1 PUSH2 0x2666 JUMPI POP DUP1 MLOAD ISZERO PUSH2 0x2654 JUMPI PUSH1 0x20 DUP2 MLOAD SWAP2 ADD REVERT JUMPDEST PUSH1 0x40 MLOAD PUSH4 0xD6BDA275 PUSH1 0xE0 SHL DUP2 MSTORE PUSH1 0x4 SWAP1 REVERT JUMPDEST DUP2 MLOAD ISZERO DUP1 PUSH2 0x2699 JUMPI JUMPDEST PUSH2 0x2677 JUMPI POP SWAP1 JUMP JUMPDEST PUSH1 0x40 MLOAD PUSH4 0x9996B315 PUSH1 0xE0 SHL DUP2 MSTORE PUSH1 0x1 PUSH1 0x1 PUSH1 0xA0 SHL SUB SWAP1 SWAP2 AND PUSH1 0x4 DUP3 ADD MSTORE PUSH1 0x24 SWAP1 REVERT JUMPDEST POP DUP1 EXTCODESIZE ISZERO PUSH2 0x266F JUMP INVALID 0x2F DUP8 DUP9 GT PUSH31 0x7EFF1D82E926EC794901D17C78024A50270940304540A733656F0D02DD7BC7 0xDE 0xC4 0xDC 0xEE 0xDD 0xA7 PUSH22 0xE58DD541E08A116C6C53815C0BD028192F7B626800CD MCOPY 0xD1 TLOAD PUSH15 0x187E77E9AEE88184C21F4F2182AB58 0x27 0xCB EXTCODESIZE PUSH31 0x7FBEDCD63F033009B779B17422D0DF92223018B32B4D1FA46E071723D6817 0xE2 BASEFEE PUSH14 0x3BECC55F00A264697066735822 SLT KECCAK256 0xED EXP 0x24 0xEB ORIGIN 0xC4 SWAP3 0xCF MCOPY 0xB4 CALLVALUE EXTCODECOPY INVALID 0x1F 0xD4 JUMPDEST PUSH7 0x1FE7A8FDA71EFE 0xD0 0xA9 CODECOPY 0x28 0xBE 0xD7 CALL 0xAB PUSH5 0x736F6C6343 STOP ADDMOD XOR STOP CALLER "},"methodIdentifiers":{"APPROVAL_THRESHOLD()":"3ab34290","APPROVER_ROLE()":"4245962b","DEFAULT_ADMIN_ROLE()":"a217fddf","MANAGER_ROLE()":"ec87621c","MAX_PLATFORM_FEE()":"3998a681","REFUND_TIMELOCK()":"3d7faa40","REQUIRED_APPROVALS()":"599c5533","UPGRADER_ROLE()":"f72c0d8b","UPGRADE_INTERFACE_VERSION()":"ad3cb1cc","allocateTask(uint256,address,uint256)":"eeeb241f","approvePayment(uint256)":"de14c818","cancelProject(uint256)":"24941147","cancelTask(uint256)":"7eec20a8","completeTask(uint256)":"e1e29558","finToken()":"1df4111b","fundProject(uint256)":"6c563abe","getPlatformFeeAmount(uint256)":"6f4532c2","getProject(uint256)":"f0f3f2c8","getRoleAdmin(bytes32)":"248a9ca3","getTask(uint256)":"1d65e77e","grantRole(bytes32,address)":"2f2ff15d","hasRole(bytes32,address)":"91d14854","initialize(address,address)":"485cc955","pause()":"8456cb59","paused()":"5c975abb","platformFeePercentage()":"cdd78cfc","platformFeeRecipient()":"eb13554f","processRefund(uint256)":"dac87ca4","projectCounter()":"f8a518ed","projects(uint256)":"107046bd","proxiableUUID()":"52d1902d","renounceRole(bytes32,address)":"36568abe","requestRefund(uint256)":"a4b2409e","revokeRole(bytes32,address)":"d547741f","setPlatformFee(uint256)":"12e8e2c3","setPlatformFeeRecipient(address)":"1871e243","supportsInterface(bytes4)":"01ffc9a7","taskCounter()":"58671730","tasks(uint256)":"8d977672","unpause()":"3f4ba83a","updateTaskHashrate(uint256,uint256)":"16d924ef","upgradeToAndCall(address,bytes)":"4f1ef286"}},"storageLayout":{"storage":[{"astId":2722,"contract":"contracts/ProjectEscrow.sol:ProjectEscrow","label":"platformFeeRecipient","offset":0,"slot":"0","type":"t_address"},{"astId":2725,"contract":"contracts/ProjectEscrow.sol:ProjectEscrow","label":"platformFeePercentage","offset":0,"slot":"1","type":"t_uint256"},{"astId":2729,"contract":"contracts/ProjectEscrow.sol:ProjectEscrow","label":"finToken","offset":0,"slot":"2","type":"t_contract(IERC20)1775"},{"astId":2787,"contract":"contracts/ProjectEscrow.sol:ProjectEscrow","label":"projects","offset":0,"slot":"3","type":"t_mapping(t_uint256,t_struct(Project)2758_storage)"},{"astId":2793,"contract":"contracts/ProjectEscrow.sol:ProjectEscrow","label":"tasks","offset":0,"slot":"4","type":"t_mapping(t_uint256,t_struct(Task)2781_storage)"},{"astId":2796,"contract":"contracts/ProjectEscrow.sol:ProjectEscrow","label":"projectCounter","offset":0,"slot":"5","type":"t_uint256"},{"astId":2799,"contract":"contracts/ProjectEscrow.sol:ProjectEscrow","label":"taskCounter","offset":0,"slot":"6","type":"t_uint256"}],"types":{"t_address":{"encoding":"inplace","label":"address","numberOfBytes":"20"},"t_bool":{"encoding":"inplace","label":"bool","numberOfBytes":"1"},"t_contract(IERC20)1775":{"encoding":"inplace","label":"contract IERC20","numberOfBytes":"20"},"t_enum(ProjectStatus)2734":{"encoding":"inplace","label":"enum ProjectEscrow.ProjectStatus","numberOfBytes":"1"},"t_enum(TaskStatus)2741":{"encoding":"inplace","label":"enum ProjectEscrow.TaskStatus","numberOfBytes":"1"},"t_mapping(t_address,t_bool)":{"encoding":"mapping","key":"t_address","label":"mapping(address => bool)","numberOfBytes":"32","value":"t_bool"},"t_mapping(t_uint256,t_struct(Project)2758_storage)":{"encoding":"mapping","key":"t_uint256","label":"mapping(uint256 => struct ProjectEscrow.Project)","numberOfBytes":"32","value":"t_struct(Project)2758_storage"},"t_mapping(t_uint256,t_struct(Task)2781_storage)":{"encoding":"mapping","key":"t_uint256","label":"mapping(uint256 => struct ProjectEscrow.Task)","numberOfBytes":"32","value":"t_struct(Task)2781_storage"},"t_struct(Project)2758_storage":{"encoding":"inplace","label":"struct ProjectEscrow.Project","members":[{"astId":2744,"contract":"contracts/ProjectEscrow.sol:ProjectEscrow","label":"employer","offset":0,"slot":"0","type":"t_address"},{"astId":2746,"contract":"contracts/ProjectEscrow.sol:ProjectEscrow","label":"totalFunded","offset":0,"slot":"1","type":"t_uint256"},{"astId":2748,"contract":"contracts/ProjectEscrow.sol:ProjectEscrow","label":"totalAllocated","offset":0,"slot":"2","type":"t_uint256"},{"astId":2750,"contract":"contracts/ProjectEscrow.sol:ProjectEscrow","label":"totalReleased","offset":0,"slot":"3","type":"t_uint256"},{"astId":2753,"contract":"contracts/ProjectEscrow.sol:ProjectEscrow","label":"status","offset":0,"slot":"4","type":"t_enum(ProjectStatus)2734"},{"astId":2755,"contract":"contracts/ProjectEscrow.sol:ProjectEscrow","label":"createdAt","offset":0,"slot":"5","type":"t_uint256"},{"astId":2757,"contract":"contracts/ProjectEscrow.sol:ProjectEscrow","label":"refundRequestedAt","offset":0,"slot":"6","type":"t_uint256"}],"numberOfBytes":"224"},"t_struct(Task)2781_storage":{"encoding":"inplace","label":"struct ProjectEscrow.Task","members":[{"astId":2761,"contract":"contracts/ProjectEscrow.sol:ProjectEscrow","label":"projectId","offset":0,"slot":"0","type":"t_uint256"},{"astId":2763,"contract":"contracts/ProjectEscrow.sol:ProjectEscrow","label":"worker","offset":0,"slot":"1","type":"t_address"},{"astId":2765,"contract":"contracts/ProjectEscrow.sol:ProjectEscrow","label":"amount","offset":0,"slot":"2","type":"t_uint256"},{"astId":2768,"contract":"contracts/ProjectEscrow.sol:ProjectEscrow","label":"status","offset":0,"slot":"3","type":"t_enum(TaskStatus)2741"},{"astId":2770,"contract":"contracts/ProjectEscrow.sol:ProjectEscrow","label":"createdAt","offset":0,"slot":"4","type":"t_uint256"},{"astId":2772,"contract":"contracts/ProjectEscrow.sol:ProjectEscrow","label":"completedAt","offset":0,"slot":"5","type":"t_uint256"},{"astId":2774,"contract":"contracts/ProjectEscrow.sol:ProjectEscrow","label":"approvalCount","offset":0,"slot":"6","type":"t_uint256"},{"astId":2776,"contract":"contracts/ProjectEscrow.sol:ProjectEscrow","label":"hashrate","offset":0,"slot":"7","type":"t_uint256"},{"astId":2780,"contract":"contracts/ProjectEscrow.sol:ProjectEscrow","label":"approvals","offset":0,"slot":"8","type":"t_mapping(t_address,t_bool)"}],"numberOfBytes":"288"},"t_uint256":{"encoding":"inplace","label":"uint256","numberOfBytes":"32"}}}}}}